:020000040800F2
:10000000008000204505000895050008412C0008E7
:1000100095050008950500089505000800000000FA
:10002000000000000000000000000000950500082E
:10003000950500080000000095050008492C0008FF
:100040009505000895050008950500089505000828
:100050009505000895050008950500089505000818
:100060009505000895050008950500089505000808
:1000700095050008950500089505000895050008F8
:1000800095050008000000003531000895050008BE
:1000900095050008950500089505000895050008D8
:1000A0005D310008453100089505000895050008F8
:1000B00095050008950500089505000895050008B8
:1000C00095050008950500089505000895050008A8
:1000D0009505000895050008212B000895050008E6
:1000E0008D2C000895050008950500089505000869
:1000F000950500089505000895050008000000001A
:1001000000000000950500080000000095050008AB
:1001100095050008000000009505000895050008F9
:100120009505000895050008950500089505000847
:10013000950500080000000000000000950500087B
:10014000950500089505000800000000000000006B
:10015000000000000000000000000000000000009F
:1001600000000000000000000000000095050008ED
:1001700095050008000000000000000000000000DD
:1001800000000000950500080000000000000000CD
:10019000000000000000000000000000000000005F
:1001A000000000000000000095050008950500080B
:1001B0009505000895050008950500080000000059
:1001C000000000009505000800000000000000008D
:0801D0009505000895050008E3
:1001D80010B5054C237833B9044B13B10448AFF379
:1001E80000800123237010BDDC0400200000000003
:1001F8000C8F000808B5034B1BB103490348AFF344
:10020800008008BD00000000E00400200C8F0008FA
:1002180053B94AB9002908BF00281CBF4FF0FF3165
:100228004FF0FF3000F088B9ADF1080C6DE904CE4D
:1002380000F006F8DDF804E0DDE9022304B07047B9
:100248002DE9F047089D8E4604468846002B4AD182
:100258008A42174662D9B2FA82F64EB1C6F1200335
:1002680001FA06F820FA03F3B74043EA0808B44055
:100278004FEA174E1FFA87FCB8FBFEF1230C0EFB62
:10028800118843EA084301FB0CF29A4209D9FB188A
:1002980001F1FF3080F0EA809A4240F2E7800239AB
:1002A8003B449A1AA3B2B2FBFEF00EFB102243EABB
:1002B800024300FB0CFC9C4509D9FB1800F1FF32F6
:1002C80080F0D6809C4540F2D3803B44023840EA17
:1002D8000140A3EB0C0300211DB1F3400022C5E946
:1002E8000032BDE8F0878B4205D90DB1C5E90001A0
:1002F80000210846F5E7B3FA83F1002946D1734592
:1003080002D3824200F20581841A6EEB03020120B7
:100318009046002DE5D0C5E90048E2E7002A00F044
:100328009080B2FA82F6002E40F0A4808A1A030C5C
:100338004FEA174E80B2BCB20121B2FBFEFC0EFBA5
:100348001C2243EA024304FB0CF29A4207D9FB1829
:100358000CF1FF3802D29A4200F2E080C4469B1AA0
:10036800B3FBFEF20EFB123340EA034302FB04F434
:100378009C4207D9FB1802F1FF3002D29C4200F2DE
:10038800CA8002461B1B42EA0C40A5E7C1F12006C1
:100398008B4022FA06F71F430EFA01F420FA06F3FF
:1003A8002EFA06FE4FEA1749234300FA01F81FFA0E
:1003B80087FCBEFBF9F01C0C09FB10EE44EA0E4466
:1003C80000FB0CFEA64502FA01F209D93C1900F11E
:1003D800FF3A80F09C80A64540F2998002383C4460
:1003E800A4EB0E041FFA83FEB4FBF9F309FB1344D4
:1003F8004EEA044403FB0CFCA44508D93C1903F15C
:10040800FF3E80F08280A4457FD9023B3C4443EA0A
:100418000040A4EB0C04A0FB02EC64457346E146E3
:1004280062D35FD05DB1B8EB030264EB090404FA50
:1004380006F622FA01F31E43CC40C5E90064002108
:100448004FE7B1FBF2FC010C41EA0E4180B240EAF1
:1004580001423B4638463C46B846BE462026B1FBDC
:10046800F7F1A2EB080241EA0C4166E7014618E7FA
:1004780010462CE7C6F120022EFA02F3B740B1402D
:1004880020FA02F24FEA174E0A43B3FBFEF8BCB259
:100498000EFB1833110C41EA034108FB04F9B04084
:1004A80089454FEA104380B23ED9791808F1FF3CDC
:1004B80001D289451FD8A1EB0901B1FBFEF909FB5F
:1004C80004F80EFB191192B242EA0142424529D2C0
:1004D800BA1809F1FF31C4D24245C2D2A9F10201CA
:1004E8003A44BEE7F0459DD2BEEB02036CEB070C25
:1004F8000138E14696E7A7EB09094944A8F1020C3F
:10050800B1FBFEF909FB04F8DBE773467FE75046C9
:1005180066E70846FDE63B44023A33E7ACF1020CD5
:100528003B441CE749469CE7A1EB0901C446B1FBE3
:10053800FEF909FB04F8C4E7704700BF0D4885467B
:1005480003F0B8FE0C480D490D4A002302E0D458C8
:10055800C4500433C4188C42F9D30A4A0A4C002305
:1005680001E013600432A242FBD308F099FC00F0CA
:10057800BFFCFEE70080002000000020DC04002013
:1005880048920008DC040020441B0020FEE700001D
:1005980070B50446C36C406998470023656DA4F89C
:1005A800643084F86030606904F11C012B46042231
:1005B800BDE87040184700BF10B40B780A7991F86D
:1005C80002C01E4CDB0143EA02134A7843EA0223C5
:1005D800CA7843EA8C3343EA4253DAB242F005025E
:1005E80023F07041A25C82EA1122D2B2A25C82EAB4
:1005F8001142D2B2A25C124C82EA1162A25C43EAB6
:10060800027343F00503036272B6836C4BB162B6A2
:1006180090F8243013B9022380F824305DF8044B95
:10062800704700F12001032380F82430816462B60A
:100638000422836D5DF8044B40691847348F000825
:10064800248F000830B44B0190F860C090F86340E4
:100658001D4D43EA011343EA02330CF0010143EA5A
:10066800811343EAC11304F00F0443EA0423DAB206
:10067800164C42F0060243F00601A25C82EA1322FD
:10068800D2B2A25C82EA1342D2B2A25C82EA1363BB
:10069800EB5C41EA0373036272B6836C43B162B6E2
:1006A80090F8243013B9022380F8243030BC704706
:1006B80000F12001032380F82430816462B604220B
:1006C800836D406930BC1847248F0008348F0008B8
:1006D8000A2A09D090F83630012B1DD990F83E30FF
:1006E800012B0DD90020704790F82E30012BF9D836
:1006F800836A012204330B6080F82E2001207047A2
:10070800836B4FF0010C00F13802043380F83EC0CF
:1007180002640B6001207047036B4FF0010C00F17D
:100728003002043380F836C002640B60F2E700BF81
:10073800844690F86400022801D00220704743EAFA
:10074800021041F8040C9CF86C00012804D14FF603
:10075800CA608852023292B20A2B05D19CF8100066
:1007680048B300208CF8100051F8040C70B5344DD3
:10077800C4B204322E5DC0F307247440A1F1040E04
:100788002E5DC0F30744744092B22C5DC0F303653C
:100798006C402C4D2C5D40EA047041F8040C72B694
:1007A800DCF84810B9B162B6092B06D00A2B2AD05A
:1007B8007BB3002070BD01207047DCF84030196819
:1007C8008E4514BF03200020DCF84410A1B3022199
:1007D80099719A8070BD092B29D00A2B4FF0030319
:1007E8000BBF8CF82E308CF824300CF128030CF158
:1007F8002003CCF8483062B6DCF85830DCF8140036
:1008080071469847D5E79CF82E30012B09D0032074
:1008180070BD9CF82430002BF9D102238CF82430C9
:10082800C7E702238CF82E30ACF82C20C1E7DCF89F
:10083800403003219971DCE7CCF84430C7E700BFAA
:10084800348F0008248F000810B590F82430032B4B
:10085800044613D0826C0021917190F82E20022A50
:1008680013D0022B1DD100F12001836D8164042275
:1008780040699847032384F8243010BD90F82E303F
:100888000022022B80F824200BD104F12800A36D4C
:10089800A064A28DA16A60699847032384F82E306A
:1008A80010BD72B6636CCBB10322A3649A71196848
:1008B8009A886069A36D984794F83630022B07D060
:1008C80094F83E30022B03D00023636462B610BD57
:1008D800626C630068339B1A6364F7E7A364F5E707
:1008E8002DE9F04790F86150C269002304460B8057
:1008F8009DB190F8645080F86130012D4ED0022DE2
:1009080012D0D5B9836E052B62D0062B15D1C2F350
:100918000F322946FFF796FE0FE090F86230B3B920
:1009280000252846BDE8F087856E052D00F0D980A2
:10093800062D00F02581092D3ED000256069636DE4
:10094800042204F11C0198472846BDE8F08703EB10
:1009580003231B02C3F307228C488D4D82F0090242
:1009680043F00F01825C82EA1343DBB2C35CEB5CA9
:1009780041EA0373236272B6A36C002B00F0F48083
:1009880062B694F8243013B9022384F82430002284
:10099800236D606984F862209847C1E7816E052954
:1009A80064D00629C9D1C2F30F322946FFF74AFE9F
:1009B800022384F86430C0E790F86030B0F85C2017
:1009C800A5690133012084F8603020740A80B5E7F6
:1009D80094F81DC094F86D30007F94F86C6094F81A
:1009E8006E7094F86F900CF03F0CC009634528BFF7
:1009F8006346B0420146C2F3863828BF314661F3E8
:100A08000705C2F3465AB845414663F30F2528BF88
:100A18003946CA45D64661F3174528BFCE466EF318
:100A28001F65B042E5661BD89C4519D8B84517D84C
:100A3800CA4515D894F87000C2F3021290420FD13B
:100A48004A1C0133D2B2DBB252014FEA8E1E5B015F
:100A58000121A281A4F80EE0A4F85E3084F86410A5
:100A680004F16C012046FFF7A7FD66E7457F90F883
:100A78006CC0017F90F86D0094F86E6094F86FE098
:100A880005F03F05C909A84228BF284661450F4619
:100A980028BF674667F30703C2F38637C2F3465891
:100AA800B742B94660F30F2328BFB146F04569F352
:100AB8001743C14628BFF14669F31F636145E366E2
:100AC8000BD8854209D8B74207D8F04505D894F81D
:100AD8007030C2F302129342C2D0002384F864300B
:100AE800BEE794F81DC094F86D50007F94F86CE050
:100AF80094F86E6094F86F800CF03F0CC00965455F
:100B080028BF654670450746194628BF774667F3EC
:100B18000701C2F38637C2F34659B742BA4665F3AE
:100B28000F2128BFB246C1456AF31741CA4628BFFC
:100B3800C2466AF31F617045E16604F16C010DD885
:100B4800AC450BD8B74209D8C14507D894F87030DE
:100B5800C2F302129B1AB3FA83F35B0984F8643078
:100B68002046FFF729FDE8E604F12001032384F875
:100B78002430A16462B60422A36D6069984706E731
:100B8800C2F30F320121FFF75DFDD6E6348F00086E
:100B9800248F000810B590F86530044643B1012B46
:100BA80000D010BD002280F8652080F8613010BDAB
:100BB800C1691F4ACBB2D35C83EA1123DBB2D35C91
:100BC80083EA1143DBB2D35C83EA1163D35C5BB97C
:100BD800037F03F00F03062B836609D8042B1FD964
:100BE800012384F8613010BD042380F8623010BD01
:100BF800092B15D1838B1B09A0F85C30002BEFD093
:100C0800B0F85E209A420FD390F86C208169406951
:100C180003EB4202636D9847012384F8653010BDE9
:100C2800012384F8623010BD022380F8623010BDC1
:100C3800348F00080146002280F86520436D406922
:100C480004221C31184700BF00F038000838C0B231
:100C580010289ABF014B185C002070473490000898
:100C680000F03803102B03D0474B05200B6070476A
:100C780020F00700B0F51D6F82B273D012D8B2F51C
:100C88000D6F7CD021D8B2F5056F70D04CD8B2F575
:100C9800FA6F3DD0B2F5016FE6D13C4B1B6A0020DC
:100CA8000233E3E7B2F5396F66D01CD8B2F5296F85
:100CB8004BD041D8B2F5216F25D0B2F5256FD3D1ED
:100CC800324B1B6A00201633D0E7B2F5156F41D0BE
:100CD800B2F5196F20D0B2F5116FC5D12B4B1B6A35
:100CE80000200A33C2E7B2F5496F38D041F6D04345
:100CF8009A4216D02648244BB2F5456F0ABF0346E0
:100D080005200020B2E7214B1B6A00201433ADE711
:100D18001E4B00201B6AA9E71C4B1B6A00200E33E0
:100D2800A4E71C4B0020A1E7B2F5096F9CD1174B33
:100D38001B6A0020063399E71748134BB2F5356F45
:100D48000ABF03460520002090E7104B1B6A0020CD
:100D580018338BE70D4B1B6A00200C3386E70F4BCB
:100D6800002083E7094B1B6A002012337EE7074BFC
:100D78001B6A0020043379E7094B002076E7034B10
:100D88001B6A0020083371E7F804002000000020E7
:100D9800D8000020B40300206C000020DA000020F6
:100DA800740000204FF0904330491868304A20F40E
:100DB80040301860186840F400301860186820F453
:100DC80040201860186840F400201860186820F463
:100DD80040101860186840F400101860086820F087
:100DE80040600860086840F00060086019682148A1
:100DF80021F040711960196841F00071196011689B
:100E080021F040411160116841F0004111600188F2
:100E1800C807CAB203D5196881F44031196091072F
:100E280005D54FF090410B6883F440230B605307BE
:100E380005D54FF090410B6883F440130B60100701
:100E480004D50A490B6883F040630B60D10605D5C9
:100E58004FF090410B6883F040730B60930604D504
:100E6800034A136883F04043136070470008004842
:100E7800000400485C08002010B594B03822002116
:100E880006A808F005F80020CDE90100CDE9030027
:100E9800059004F09FFC9FED147B02235522CDE9B9
:100EA8000F320324082206A88DED067BCDE90D3408
:100EB800CDE91123139304F007FD08B172B6FEE7DC
:100EC800042103460F220DEB0100CDE90124CDE9F1
:100ED8000333059304F076FF08B172B6FEE705F018
:100EE8009FF814B010BD00BF010000000000010011
:100EF8002DE980480024A3B003F00CFAFFF7BCFFEB
:100F0800CDE91544A94D1794EB6CA948DFF8D492A4
:100F180043F00403EB64EB6C03F004030493049BB9
:100F2800EB6C43F02003EB64EB6C03F020030593B8
:100F3800059BEB6C43F00103EB64EB6C03F00103DE
:100F48000693069BEB6C43F00203EB64EB6C03F037
:100F5800020307934FF48062079B13924FF4041324
:100F680013A9149304F000FAAB6C43F00403AB64C8
:100F7800AB6C03F004030293029BAB6C43F00103D8
:100F8800AB64AB6C089403F00103214603933C2245
:100F980013A8CDE90944039B07F07AFF20222146D4
:100FA8000BA807F075FF4FF40047C9E90144C9E9E8
:100FB8000B44C9F81040A9F81C4089F8244089F866
:100FC8003840C9F83C4089F840404FF0A04201261B
:100FD800042402254846C9E90564C9F80020C9F86F
:100FE8000C70C9F8205003F0BFF908B172B6FEE7DB
:100FF800089008A9484604F019F808B172B6FEE747
:101008006C4B15904FF0090BCDE91740CDE9133B18
:10101800ADF870008DF872008DF87C004FF07F08F5
:101028004FF0840A802313A94846CDE91DA31B95D8
:10103800CDF8588003F0FCFC08B172B6FEE75E4AB2
:1010480040F20F1313A94846CDE9132303F0F0FC2F
:1010580008B172B6FEE7DFF890E1109006220BA9FE
:101068004846CDE90D48CDE90BE20F9403F070FA3C
:1010780008B172B6FEE7DFF874C10C230BA9484625
:10108800CDE90BC303F064FA014608B172B6FEE776
:10109800DFF85C9101903C2213A807F0F9FE019952
:1010A800464AC9F80C704846C9E90111C9E904164D
:1010B800C9F82060C9F81840A9F81C1089F824104C
:1010C80089F83810C9F83C1089F84010C9F8002090
:1010D80003F04AF908B172B6FEE7394A1590802341
:1010E8001890ADF870008DF872008DF87C0013A987
:1010F8004846CDE91684CDF850B01B95CDF874A0BC
:101108001E93139203F094FC08B172B6FEE7294BC4
:101118001393484640F20F1313A9149303F088FC65
:1011280008B172B6FEE72748274B036003F0E2FFD9
:1011380008B172B6FEE72548254F002340264FF434
:1011480000354FF44044C0E90073036103758361BF
:10115800C362C0E90954866004F0C4FA034608B1C2
:1011680072B6FEE71B48C0E9013603610375836167
:10117800C362194B0360C0E9095404F0B3FA03468B
:1011880008B172B6FEE71548866043600361836163
:10119800C3620126124B0360C0E90954067504F0C6
:1011A800A1FA044630B372B6FEE700BF0010024051
:1011B800000800480800900C001060320001005040
:1011C80000008CCB58070020000C02401C070020B0
:1011D80000030140E006002004030140A4060020AB
:1011E80008030140EC070020020030042000F0143E
:1011F80080070020844DCDE90800CDE90A00CDE93B
:101208000C00CDE90E00CDE910000146342213A8E8
:1012180007F03EFE7D4B6E612B60202640F61133B1
:10122800C5E9026328464FF480736C60AC612B619A
:1012380005F00AF908B172B6FEE7CDE9090008A978
:1012480028467024089405F0A5FA024608B172B63B
:10125800FEE760214FF4B163CDE90D00CDE90F0041
:10126800CDE90B1311900BA9284605F0ADF908B18B
:1012780072B6FEE704220BA9284605F0A5F908B1C5
:1012880072B6FEE708220BA9284605F09DF908B1B9
:1012980072B6FEE74FF431630BA90C222846CDE95C
:1012A8000B4305F091F9034608B172B6FEE74FF417
:1012B80000644FF48062CDE913423F244FF400529A
:1012C800CDE91534CDE917324FF00074032213A984
:1012D8002846CDE91933CDE91B34CDE91D231F93E9
:1012E80005F0AAFA08B172B6FEE74748484C01F083
:1012F80039FE48484FF416410023C4E900010C2286
:101308002046C4E90233C4E90432C4E90633C4E917
:101318000833A36205F09EFD014608B172B6FEE7E8
:10132800204605F0E9FD014608B172B6FEE7204601
:1013380005F024FE08B172B6FEE7204605F0BEFDB2
:10134800044608B172B6FEE701F076F801220321DF
:10135800262003F0FBFE262003F034FF224603215B
:101368000B2003F0F3FE0B2003F02CFF01220421D5
:10137800182003F0EBFE182003F024FF2246214634
:10138800192003F0E3FE192003F01CFF2246022176
:10139800122003F0DBFE122003F014FF2246032183
:1013A800282003F0D3FE282003F00CFFDFF8748018
:1013B800194E1A4D1A4FDFF870B0DFF870A04FF0D1
:1013C8000109B8F8001032782B889BB2994218D0DE
:1013D80002F0C4FF2B88386086F80090A8F8003027
:1013E80002F0BCFFBBF800303A689BB2821A9A42FE
:1013F800E7D3FFF7D7FC2B8834709BB2AAF80030EC
:10140800DFE7002AE0D0EBE758060020002C014077
:10141800C405002000440040FA0400205C080020B5
:10142800FC04002000050020580800205A0800206D
:1014380072B6FEE7014B186800F07CB8201B00204C
:10144800014B186800F08CB8201B0020014B18686D
:1014580000F06AB8201B002002207047704700BFC8
:10146800704700BF40F2011C032381820283A0F869
:1014780006C00372704700BF40F2012C0423C182EA
:101488000283A0F806C00372704700BF82B040F222
:10149800013204234162C280037202B0704700BF68
:1014A8004388B0F804C00B4323EA020341EA0C0165
:1014B80043808180704700BF8379012B00D070473B
:1014C80010B5C279022A04461ED0032A13D0012A75
:1014D80017D1036A002283F82020C069032101F094
:1014E80087FA228BB4F91410E06901F085FA40B14B
:1014F8000223A37110BD026A82F82030406AD060CE
:10150800F6E70323A37110BD036A002283F82020A5
:10151800C069042101F06CFA228BB4F91610E06955
:1015280001F06AFAE3E700BF4078704780887047A7
:101538004088704710B50446FFF7F6FF08B1002051
:1015480010BD2046FFF7F2FF0028F8D12046FFF72C
:10155800EFFF0028F3D101202070A07110BD00BF5B
:1015680038B50546FFF7E0FF044618B1B0F10C04A2
:1015780018BF01242846FFF7D9FF10B100242046E0
:1015880038BD2846FFF7D4FF0028F7D1002CF5D046
:1015980005232B70F3E700BF10B50446FFF7C4FF1F
:1015A8000B2801D0002010BD2046FFF7C1FF0028FE
:1015B800F8D102232370A080012010BD83884088C1
:1015C80043EA0040704700BF007A7047C379022B96
:1015D80013D0032B09D0012B17D1B0F91430002BED
:1015E800B4BF4FF0FF3001207047B0F92430002B12
:1015F800B4BF4FF0FF3001207047B0F91630002B10
:10160800B4BF4FF0FF30012070470120704700BF82
:10161800B0F91400704700BFB0F91600704700BF5A
:10162800008B7047C3690022DA60DA61704700BF37
:10163800C369586907F01EB8C06901F0D5B900BF81
:10164800036A186883B26FF30F0082B0184302B0C0
:10165800704700BF036A586883B26FF30F0082B007
:10166800184302B0704700BF036A986883B26FF3EB
:101678000F0082B0184302B0704700BF036AD868F1
:1016880083B26FF30F0082B0184302B0704700BFF7
:10169800036AD3F8120083B26FF30F0082B01843C5
:1016A80002B07047036AD3F8160083B26FF30F00D5
:1016B80082B0184302B07047036AB3F91A00704742
:1016C80010B5D0E9070401F019FAC0F30F43A0815F
:1016D800E38110BDC0F30F4344F6E6114BF21A62E2
:1016E80013FB01F310FB02F2A2EB4302B2F1804FAD
:1016F80084B003B205DAD11311F5004F0CDA094AA8
:1017080001E047F6FF729BB2002063F30F0093B22B
:1017180063F31F4004B0704702480AB28242B8BF60
:101728000246F0E70180FFFF064B00F1FF404FF053
:10173800601200F5FE0082B01A605860986802B026
:10174800704700BF000C024030B50546044685B01E
:101758000846FFF7E9FF2DB201B22414001405FB77
:1017680001F304FB1033B3F1804F05DADA1312F5F5
:10177800004F22DA144A01E047F6FF7201FB04F435
:1017880005FB0044B4F1804F4FEAE43304DA13F563
:10179800004F0CDA0C4B01E047F6FF7392B20020C1
:1017A80062F30F009BB263F31F4005B030BD0649DA
:1017B8001BB28B42B8BF0B46F0E7034B12B29A42FA
:1017C800B8BF1A46DAE700BF0180FFFF30B505460B
:1017D80085B004460846FFF7A7FF241402142DB26B
:1017E80000B204FB02F305FB003300FB04F405FB25
:1017F8001244C3F3CF33002063F30F00C4F3CF3494
:1018080064F31F4005B030BD002809DD72B6054BF2
:1018180040F269121A6058609868C00B62B6704747
:1018280000207047000C024000B310B5104A114C5C
:1018380002600023237000F09FF90F48FEF7A8FE0E
:101848000E4805F06DFD0E4807F02CFA0D4800F023
:10185800E9FF0D4806F074FD0C4805F03DFDFFF763
:10186800FDFD00F007FE0123237010BD704700BF87
:10187800000000208C0800204404002038030020C9
:10188800B003002088030020740300209803002080
:10189800014B1880704700BF90080020034B188840
:1018A80080B2B0FA80F04009704700BF900800206D
:1018B800014B1880704700BF8E080020034B188822
:1018C80080B2B0FA80F04009704700BF8E0800204F
:1018D80008B5002000F064FB064A0748136890F832
:1018E80029100133136009B9002008BD05F0BCFBBD
:1018F800002008BD401B002008040020F8B5154F43
:101908000446386800F072FF05467CB1124E04EBBD
:10191800840306EBC306EA43304692B22946FFF732
:10192800BFFD3046FFF74AFE50B9F8BD0B4B0C48D7
:10193800598906F00BFD20F00E00284385B2E5E733
:1019480057F8240000F026FF2046BDE8F84000F0D4
:10195800E5B800BF880800200000002088030020A8
:101968007403002008B5044B1B78012B00D008BD78
:101978000020FFF7C3FF08BD8C0800201E4B1B7812
:10198800CBB170B51D4C2388B3B1013B9BB21C4A47
:10199800238013889BB21BB11388013B9BB2138031
:1019A800184A13889BB21BB11388013B9BB2138062
:1019B800FFF7D8FF70BD7047134D00F077F9FFF7B8
:1019C8004FFD294651F80C0B83689847686030B181
:1019D80029460A2251F8080B0368984708B90123D9
:1019E800D5E7284600F064FC2868EA894668A968B3
:1019F8000A23B047F3E700BF8C08002092080020B4
:101A0800900800208E0800203404002008B500202B
:101A180000F084F8BDE80840024800228021FFF762
:101A28003FBD00BF0000002008B5FFF70FFD18B943
:101A3800BDE80840FFF7FEBCBDE80840FFF700BD61
:101A4800F0B42F4A2F48304C04268CB0D061D661B0
:101A5800D061D3690B934FF0011101250B9BD16124
:101A6800D561D161D3690A9302270A9BD461D761F2
:101A7800D4614FF09043D2F81CC0CDF824C0DDF8F3
:101A880024C0DC61DF61DC61DC690894089C1F4CC0
:101A9800DC610827DF61DC61DC690794079CD86199
:101AA800DE61D861D8690690069C1948D86140243F
:101AB800DC61D861D8690590059C1648D861202456
:101AC800DC61D861D8690490049C1348D8618024EB
:101AD800DC61D861D8690390039C4FF4A0304FF4BF
:101AE8008044D061D461D061D2690292029AD961EE
:101AF800DD61D961DB690193019B0CB0F0BC7047D3
:101B08000004004804000100020001000800010070
:101B180040000100200001008000010038B500EB02
:101B28000011114B002443F8114003EB41020F4907
:101B38005460054651F820009460D460C2F8124001
:101B4800C2F81640C2F81A40214605F0FDFB084BC2
:101B5800214653F8250005F0F7FB064B53F82500FE
:101B6800BDE8384000F016BE6408002030000020B0
:101B78002C00002088080020F0B5274D274E284863
:101B8800284F294C85B0286005F0C2FF304605F083
:101B9800C7FB384606F09CFF20683A46314600F0FD
:101BA800FFFE28682168214B214A00902148224DD8
:101BB80006F096FC214805F0B3FB214805F0B0FB80
:101BC800204B214A1B682148C3E90252204B186068
:101BD80006F0F4FB0020FFF7A1FF206800F0F8FEF4
:101BE8000123206885F8203000F088FFC0F30F42F9
:101BF80003462068EA81AB8100F080FFC0F30F4301
:101C080020682B8200F076FF01461248002205B0BA
:101C1800BDE8F040FFF726BC880800203803002004
:101C280090010020680000203400002054000020AB
:101C3800B003002030020020640800200C030020BC
:101C4800E002002028000020740300203C0000204F
:101C58006008002000000020704700BF2DE9F04117
:101C6800044672B60F4E00EB001506EB450507015A
:101C7800B5F90E80B5F90C0062B695F820304BB175
:101C880072B6274406EB4706B081A6F80E8062B606
:101C9800BDE8F081044B53F8240000F0F5FE68839A
:101CA800EEE700BF6408002034000020F0B583B0E0
:101CB80000236946B048ADF8003006F00BFEAF4B84
:101CC800AF4C186805F0B2FB2046FFF731FC18B19D
:101CD8000A23637003B0F0BD2046FFF727FC68BBFA
:101CE8006378132BF6D801A252F823F0F71E0008E8
:101CF800DD1C0008DD1C0008DD1C0008691E00084A
:101D0800DD1C00083F1E0008DD1C00081F1E00081F
:101D1800DD1C0008451D0008111E0008DD1C000818
:101D2800DD1C0008DD1C0008DD1C0008CD1D0008B6
:101D38009B1D0008DD1C00084D1D00080B23637067
:101D480003B0F0BD2378052B00F0E8808D4801A989
:101D580006F0FEFF05468B4807F096F80DB90028F7
:101D6800B8D0894D8948002105F0EEFA82492868E3
:101D780000F02CFE0020FFF76FFF0020FFF76EFF3A
:101D8800286800F0C1FE7E48FFF796FB06236370C3
:101D9800A0E723787E4D052B286800F0C18001213B
:101DA80000F0FCFC002895D02378032B00F0DA80A3
:101DB8002868002105F0DCFD1420FFF769FD1023D9
:101DC800637087E72378052B00F0A880FFF766FD8E
:101DD80000283FF47FAF6E4D286805F003FE6A497E
:101DE8006C4B08686749012283F8202000F0EEFD5B
:101DF800614806F047FE0020FFF790FE042328689C
:101E0800637000F0C9FC65E72378022B7FF462AFAA
:101E1800002323805EE7FFF751FD00283FF45AAF07
:101E2800594B5849186800F0D1FD564806F02CFF68
:101E3800002323804EE72378052B6FD05048FFF707
:101E48003BFB0020FFF70AFF4B4B1A78DB789A42DE
:101E58007FF440AF4A4800222021FFF721FB39E7F1
:101E68002378052B5AD04C4806F0C2FB02460028BE
:101E780066D143481021FFF713FB42480DF10201D8
:101E880006F066FF444806F0EBFB00283FF422AF5B
:101E9800394E0DF10201304606F054FE0546384829
:101EA800FFF794FB41B2304606F0EAFE3548294672
:101EB80006F0DCFF002D3FF40DAF364FB6F90410E5
:101EC8007868364DFFF740FC0190286806F076FAEE
:101ED800B7F90C102868002206F0BCFABDF9041006
:101EE8002868002206F0B6FA13236370F2E6257814
:101EF80005F0FD05012D7FF4EDAE2148244EFFF7D6
:101F080065FB0146244806F027FB306890F87F10EF
:101F180001BB00F043FC11236370DBE61C4B18681F
:101F280005F060FD0020FFF7F9FD174B186800F079
:101F38004FFD4FF44870FFF7BBFC08236370C9E6F8
:101F4800114B186800F0A0FD124BB3F910209881CE
:101F5800DA8192E72946A0F8605000F01FFC30684B
:101F6800002127E70020FFF7D9FD074B186800F08C
:101F78002FFD00232380ADE6680000202800002004
:101F880000000020B00300203400002038030020A7
:101F98008808002064080020300200206008002023
:101FA8002DE9F0435B4F5C4C89B0054600F0D6FC48
:101FB80000F09EFC7B78D4F816000590132B00F0F7
:101FC8009D80564BDFF878811B68D8F800005B6964
:101FD80002A9B3F90460036898470298FFF77AFBEF
:101FE80031460390FFF7B0FBD8F80030009093F823
:101FF8008430002B6DD19946ADF80630ADF80490C9
:102008000199474805F002F8314681460190FFF7EB
:10201800DDFB0146D8F80000049190F88430002BCD
:102028003ED102982060039860600098C4F812902E
:10203800C4F81610A683A0603A4806F011FB7B7816
:10204800064663B10A3B012B09D9374B6068DB8828
:10205800069005A93548ADF81C3006F049FB334C0D
:10206800204606F0E3FC46B17B78042B0DD0132BF9
:102078000BD0284609B0BDE8F083314604F134009E
:1020880005F062F97B78042BF1D1A3882848ADF8D4
:10209800103004A906F00AFE284609B0BDE8F0830E
:1020A80000F054FA01460298206003986060009896
:1020B800A06001290498C4F81290A683C4F81600F9
:1020C800BAD114480022FFF7EBF9284609B0BDE859
:1020D800F083BDF90030B4F90C10C91A154B186813
:1020E80005F064F9BDF90230B4F90E10C91A124BA3
:1020F8008146186805F05AF903467DE70F4E3068A7
:1021080006F086F900287FF45CAF306806F05EF9C7
:10211800A08156E700000020640800203400002059
:1021280038000020300200207403002068000020DE
:10213800B0030020300000202C00002060080020A0
:10214800880800202DE9F04F89B08568334B069345
:102158004FF00008324B4468B0F90C20ADF81680F7
:102168000646A0F80E806F18CDF80C800793C5F1CD
:102178000109A2F1020A002A0FFA8AFE0DF11603DC
:102188001FFA8AFA36DD34F802CB0DF120082CF05C
:1021980007000CF0070B1CF0060F224680B20CF06B
:1021A800380108EB8B0B2DD15BF808BCCDF800E0AB
:1021B800D847BDF8161005EB0903DBB2AAEB0102FC
:1021C800012B12B20C4412D0BD4221D005F8010BEC
:1021D800F3890133F3810028CBD0072812D00123DB
:1021E8000A280393C5D1039809B0BDE8F08F002AE7
:1021F800EAD10390039B002BF5D10398F38109B032
:10220800BDE8F08F01230393039809B0BDE8F08F70
:1022180008230393039809B0BDE8F08F99310008AB
:10222800993200082DE9F04786B00023ADF80E304A
:10223800C381B0F80C801C4B04931C4BD0F804905D
:1022480086680593B8F1000F29D007460CB24D46B1
:1022580012E05EF808AC0094D047A8EB050319FA21
:1022680083F39BB2E0B9BDF80E10FA89641A0A44E8
:102278000E44FA8124B29BB135F802CB0DF1180A4D
:102288002CF007000CF0070E1CF0060F0DF10E03E2
:10229800324680B20CF038010AEB8E0ED9D00120FC
:1022A80006B0BDE8F08700BF9D380008D1390008A6
:1022B800F0B504464668226836F8023B8089928960
:1022C80003F47F45013A023823F0070CB5F5807F07
:1022D80091B283B080B21FFA8CFC12B239D0013BA4
:1022E800534FA08103F0070303EB83030025BCF1E0
:1022F800380F666007EBC307E58135D8BCF1380FA6
:102308001ED8DFE80CF06C1D1D1D1D1D1D1D741D44
:102318001D1D1D1D1D1D591D1D1D1D1D1D1D4B1D7B
:102328001D1D1D1D1D1D531D1D1D1D1D1D1D5E1D5E
:102338001D1D1D1D1D1D471D1D1D1D1D1D1D66006F
:1023480000230220A268D054E3890133E38103B05B
:10235800F0BDCCF3C40C0023BCF1010FA081666072
:10236800E38151D90D20EDE7BCF1680F09D043D8BE
:10237800BCF1480FE4D13846FFF7A2F9E3892846B3
:10238800E0E7A3680093314604F10E03FFF764F811
:10239800E389D7E73846FFF7C7F838B93846FFF773
:1023A800C9F880F00100E389C0B2CBE73846FFF7EF
:1023B800D7F8E3890020C5E72046FFF733FFE38914
:1023C800C0E73846FFF7B0F8062829D0E38900208F
:1023D800B8E73846FFF7E0F8E3890020B2E7A368DA
:1023E80004210122E1811A70E3890020AAE720462E
:1023F800FFF7A8FEE389A5E7BCF1780FA0D102F0AA
:10240800EFFEE38928469DE70A4B53F82C506DB13F
:10241800A3680093314604F10E03A847E38991E7C6
:102428003846FFF7FFF8E38900208BE72B4699E74A
:10243800000000209408002008B503F0C7FD0A4BEF
:10244800A3FB0030C00902F0DDFE084B002219682A
:102458004FF0FF3002F07AFE0548FFF7E5F9BDE8D6
:102468000840FFF7EDBA00BFD34D6210D804002032
:10247800201B00202249234A8B6810B423F4401300
:1024880023F0700343F0100383B08B608B6823F450
:10249800803323F0070343F006038B60936DDB075B
:1024A80016D4936D43F001039365936D4FF080410B
:1024B80003F001030193019B4B6943F001034B6156
:1024C800936D23F00103936503B05DF8044B7047E7
:1024D8004FF080430C485A6859680C4C014041F051
:1024E80020015960596941F0010159615968224038
:1024F80001400A435A6003B05DF8044B704700BFBF
:10250800002C0140001002408FFFFFFD7000000208
:10251800013270B552086FF00206550106610022BB
:1025280093F800C0BCF10F0F02F1010E0CD804693A
:10253800A407F5D51FFA8EF295420661F0D81C78EB
:102548000F2CEDD801230B8070BD00BF30B5B0F85B
:1025580070400B1404FB03F3C3EBC3734FEA430E41
:1025680043F38072B0F84E3009B203FB01F11EEB61
:1025780001034FEA94054FEA530342EBE174BEEBC3
:10258800010C62EBE1724FEA5C0153EAC47383B059
:1025980041EAC27157D4002935DB012280F87A203C
:1025A8005A1A44BF02F57F3202F2FF32002BB8BF3D
:1025B80003F5FF3390F8864005EBA242B8BF03F25B
:1025C800FF1302EB6141A2EB6343002C60D11FFAB9
:1025D80081FC95B29CB2A0F85C404469A0F858C050
:1025E80023EAE37322EAE27221EAE171A0F85430A7
:1025F8002346A0F85A50A0F85020A0F8521003B073
:10260800BDE830401847BEF1000F67DD0023AEEB90
:10261800010280F87A3001F5FF3303F2FF1305EB6E
:10262800A24290F87D4002EB6341A1EB6E43002C7F
:1026380040F09B8090F88650002D00F0A5804FF068
:10264800020C0125C7E7002990F8864061DBBEF13E
:10265800000F22DD022280F87A20B3EB0E0244BF7D
:1026680002F57F3202F2FF32002BB8BF03F5FF33C9
:1026780005EBA242B8BF03F2FF13A2EB634303EBDF
:102688006E41002C6CD11FFA81FC9DB294B2A2E776
:102698004FF0020C002501249DE7BEEB010248BF64
:1026A80002F57F324FF0030348BF02F2FF3280F891
:1026B8007A30BEF10003B8BF03F5FF3305EBA24241
:1026C80002EB6141B8BF03F2FF13A1EB6343002C97
:1026D80055D04FF0000C012502247CE74FF005028D
:1026E80080F87A20A3EB0E02714605EBA242B8BF30
:1026F8000EF5FF3190F88640A2EB6343B8BF01F2B4
:10270800FF1103EB6141ACB34FF0010C022500242B
:1027180061E7042280F87A205A1A44BF02F57F3212
:1027280002F2FF320029BCBF01F5FF3101F2FF11AF
:10273800002BB8BF03F5FF3305EBA242B8BF03F285
:10274800FF1302EB6141A2EB634324B91FFA83FC38
:1027580095B28CB23FE74FF0010C002502243AE70E
:102768004FF0000C0225012435E74FF0020C01253B
:10277800002430E71FFA82FC9DB28CB22BE71FFAC7
:1027880083FC8DB294B226E71FFA82FC8DB29CB20C
:1027980021E700BF436818478368184710B5044607
:1027A80079B1012901D0002010BDB0F860306BB1BB
:1027B800013B9BB2A0F86030002BF4D1C368984766
:1027C80004E0FFF7E7FFE36820469847012010BDC3
:1027D8004A6C03464FF0010C42F480624A64783038
:1027E80083F881C083F883C0704700BF034690F820
:1027F8008100A8B1002283F881204221022093F8A9
:1028080080201AB1002283F88020084693F882209D
:102818002AB140F48060002280B283F88220704799
:102828004021ECE72F490A78032A56D810B52E4CD8
:10283800036844F82200027301320A709A68D407C8
:1028480022D45A68042122F004025A6019605A6896
:10285800202122F020025A6019609A6822F0404232
:1028680022F03F0242F000429A609A68002AFCDB9C
:102878001A68D10708D41D499A680A4042F0010233
:102888009A601A68D207F7D5196B21F00F011963FE
:10289800017A01228A40092942EA816201EB410C4E
:1028A8001DD9ACF11E0C42EA0C5242F000724FEAFC
:1028B800D25C0CF0040C1433406853F80C10C2F3CB
:1028C80004524FF0070E90400EFA02F221EA02027B
:1028D800024343F80C20012010BD0020704742EA53
:1028E8000C52E4E7241B0020281B0020C0FFFF7FB8
:1028F800174B1B7853B3174B174A197852F82120F6
:10290800117A12680123092901EB410003FA01F346
:1029180043EA816384BF1E3843EA0053116B94BFB6
:1029280043EA005343F000731B0D21F4F86103F4EC
:10293800F8630B4313630423116C1360936823F04B
:10294800004323F03F0343F004039360704700BF44
:10295800241B0020251B0020281B00200D4B1B7862
:10296800B3B130B40C490D480A7850F82200046815
:1029780025686D0703D5246C24F00F044481013BBE
:102988009A420BBF002301320B700A7030BC7047AB
:10299800704700BF241B0020251B0020281B002097
:1029A80010B4B0F930C00161B0F9321090F82E407F
:1029B800047000234FEA0C440904C0E90141426154
:1029C8005DF8044B4380C360C36170474161704741
:1029D8000378032B04D0042B04BF002383607047C3
:1029E8000069002104F0B0BCB0F90600704700BFD0
:1029F80000230170C360704710B40378042B19D00A
:102A0800B0F822C08C4503DA00205DF8044B70470B
:102A1800B0F928408C42F7DC848C8C4203DDB0F995
:102A280026408C42F0DB4468AAB9032B0AD109047A
:102A3800416009E0438D8B42E6DBB0F92C308B42D4
:102A4800E2DCE2B9090481600023C360C3610120AC
:102A58005DF8044B70474FEA244C038C094C4180C5
:102A680002FB03F3A4FB03439B090133A1EB0C0C0A
:102A78004FEA0C42C36092FBF3F2C261E7E7B0F998
:102A88000AC0EAE7D34D621038B50278C368042A51
:102A9800044612D0012B456808D9C169013B0D4491
:102AA800C360032A11D02814A56038BDF9D1B0F944
:102AB800025000232D04C360F3E7012B856811D968
:102AC800C269013B1544C360EDE7606905F0D2FDBA
:102AD800C0EB254109B2206904F068FC6560050473
:102AE800A56038BDDFD1B0F9025000232D04C360C2
:102AF800D9E700BFB0F93000704700BFD0F8320006
:102B080082B002B0704700BF10B50446406905F0B6
:102B1800B1FD0004606010BD444BDA69520610B57F
:102B280009D543494348CA69402422F00102CA61D1
:102B38001C62FDF789FE3D4BD869DA69D9699B6843
:102B48004C076AD5D8071ED5384B0E221A624FF0AB
:102B5800402202F5816353E8003F23F0010302F5A8
:102B6800816040E800310029F3D14FF0402202F59E
:102B7800806353E8003F43F0100302F5806040E8AB
:102B880000310029F3D1294BDA691B68D20643D5F5
:102B9800DB0641D54FF0402202F5806353E8003F41
:102BA80023F0100302F5806040E800310029F3D1DA
:102BB8004FF0402202F5816353E8003F43F00103E0
:102BC80002F5816040E800310029F3D14FF040223E
:102BD80002F5816353E8003F23F0400302F581606A
:102BE80040E800310029F3D1104B5B6A4FF04022D6
:102BF80002F5816353E8003F43F0400302F581602A
:102C080040E800310029F3D1094B0A480222BDE807
:102C180010405A60FEF70EB810BDD907B3D502F0C0
:102C2800020200F0080002438ED1ACE700440040E5
:102C3800000002404404002008B5FEF7E7FEFEE766
:102C480010B50D4C2378022B0FD00133DBB20B4AA1
:102C5800237013689B0704D5022309485360FDF7C6
:102C680099FFBDE81040FEF789BE01F06BFB02F04A
:102C7800E5FA0123EBE700BFCC0400200000024086
:102C880044040020044B5A69520500D470474FF49D
:102C980080625A61FEF7C8BE0004014000B50E4BC1
:102CA8001A6E42F0010283B01A661A6E02F001022F
:102CB8000092009A9A6D42F080529A659B6D03F0DB
:102CC800805301930420019B02F02EFA03B05DF8B3
:102CD80004EB02F0F1BD00BF00100240000000004C
:102CE80010B504469CB0002144220BA8CDE906117A
:102CF800CDE908110A9106F0CBF82368B3F1A04F8B
:102D080004D0434A934246D01CB010BD4FF4004251
:102D18004FF080530BA80B921A9303F089F90028FF
:102D28006AD13C4A13680133012B136009D13A4B2D
:102D3800DA6C42F40052DA64DB6C03F4005301935A
:102D4800019B354BDA6C42F00102DA64DA6C02F06E
:102D580001020292029ADA6C42F00202DA64DB6C37
:102D68000520032103F00203CDE9060103930024A3
:102D780006A94FF09040039B089402F0F5FA44F23C
:102D8800020203232548089406A9CDE9062302F088
:102D9800EBFA1CB010BD4FF400424FF080530BA863
:102DA8000B921A9303F044F948BB1A4A136801338B
:102DB800012B136009D1184BDA6C42F40052DA6423
:102DC800DB6C03F400530493049B134BDA6C42F05E
:102DD8000102DA64DB6C9FED0C7B03F001030593C1
:102DE80006A900234FF090408DED067B059A0893C5
:102DF80002F0BAFA1CB010BDFEF71AFB91E7FEF715
:102E080017FBD2E7AFF3008040000000030000008A
:102E180000010050381B0020001002400004004848
:102E2800094B02689A4200D07047D3F8482442F010
:102E3800080282B003F580639A649B6C03F0080370
:102E48000193019B02B07047000C02400000000093
:102E580000B5026834498BB000238A42CDE90433B7
:102E6800CDE90633089308D0304B9A421ED0304B38
:102E78009A4233D00BB05DF804FB03F1804303F5AD
:102E880004339FED237BDA6C42F00102DA64DB6CD9
:102E980003F00103019304A94FF090408DED047BEA
:102EA800019B02F061FA0BB05DF804FB03F5863371
:102EB800FC33DA6C42F00102DA64DB6C9FED167BBE
:102EC80003F00103029304A94FF090408DED047BB9
:102ED800029B02F049FA0BB05DF804FB03F5863358
:102EE800F833DA6C134842F00202DA64DB6C9FEDC7
:102EF8000C7B03F00203039304A98DED047B039B71
:102F080002F032FA0BB05DF804FB00BFAFF30080AB
:102F18000E00000003000000E000000003000000B5
:102F28000700000003000000000301400403014003
:102F38000803014000040048094B02689A4200D087
:102F4800704703F5644382B01A6E42F400621A6651
:102F58001B6E03F400630193019B02B0704700BF2E
:102F6800002C014070B52B4A01688AB000239142B9
:102F7800CDE90433CDE90633089301D00AB070BD1A
:102F880003F1804303F504334FF40050DA6C42F048
:102F98000402DA64DA6C02F004020192019ADA6C33
:102FA80042F00202DA64DA6C02F002020292029A39
:102FB800DA6C42F00102DA64DB6C022103F00103EF
:102FC800CDE90401022402250393042604A912482A
:102FD800039B0896CDE9064502F0C6F904A94FF40B
:102FE800004202230D480896CDE90423CDE90645A1
:102FF80002F0BAF94FF4B8520223CDE9042304A928
:1030080006234FF09040CDE90645089302F0ACF94D
:103018000AB070BD002C01400008004800040048B8
:1030280070B5044698B00021442207A8CDE90211E2
:10303800CDE90411069105F02BFF354B22689A4221
:1030480001D018B070BD022307A8079302F0F0FF63
:1030580000284CD12F4B30489A6D304E42F4003244
:103068009A659A6D02F400320092009ADA6C9FED2C
:10307800247B42F00202DA64DB6C8DED027B9FED6B
:10308800227B03F00203019302A90723019A069306
:103098008DED047B02F068F921491A220023C6E964
:1030A800001230468022C6E90233C6E90423C6E985
:1030B8000633336202F0C6F8F8B91A4D1A49C4F853
:1030C80080601B220023C5E90012284610218022B7
:1030D800C5E90213C5E90533C5E90733B4622A61B6
:1030E80002F0B0F830B9E567AC6218B070BDFEF711
:1030F8009FF9AFE7FEF79CF9F5E7FEF799F9DCE7EA
:10310800180000000200000000000000000000009D
:1031180000440040001002400004004864050020FC
:1031280008000240040500201C000240024B402217
:103138001A60FEF7CDBB00BF00010050034B0448E6
:103148006FF001021A6104F02BBF00BF002C014090
:10315800900100200C4908B50B691A0605D56FF0D7
:1031680080030A480B61FFF733FB07490B69DB054E
:1031780005D56FF4807305480B61FFF729FBBDE89F
:103188000840FEF7FBBB00BF002C01409001002067
:1031980010B40839BDF904C0202912D8DFE801F0BD
:1031A80017111111111111112111111111111111F1
:1031B8002F111111111111113911111111111111B1
:1031C8004D0000221A8007205DF8044B70474828FC
:1031D8004FF0010214BF052004205DF8044B1A804B
:1031E8007047B0F5656F39D042D9B0F5696F35D001
:1031F80041F65832904214BF052004202FE01828C9
:103208004FF0040214BF052010465DF8044B1A80E5
:1032180070470121198092F9000028B31FFA8CF039
:1032280003E0198012F9014FF4B101F1010C814258
:103238001FFA8CF1F5D30420C6E71288023292B245
:103248001FFA8CFC62451A801AD8A828F3D01BD81C
:1032580020F040002828EED00520B5E70020022203
:103268005DF8044B1A807047002313700420ABE705
:1032780020F04000B0F5B26F14BF05200420EEE73F
:1032880000221A800A209FE7E828E5D1D3E700BF8B
:1032980030B583B00839BDF918E094461C4620299A
:1032A80012D8DFE801F016111111111111112311B3
:1032B800111111111111561111111111111144117E
:1032C800111111111111630000232380072003B08D
:1032D80030BD882800F0968020F0800048280CBF78
:1032E800042005200123238003B030BDB0F5196FF9
:1032F800158800F031825CD8B0F5347F00F0278261
:1033080000F2B980B0F5C87F00F0358200F2118173
:10331800D02800F0F981B0F5887F00F0F08190287E
:1033280040F05282B74829B204F002F861E0012265
:1033380022809CF90030002B36D01FFA8EF303E070
:1033480022801CF9011F79B3511C93428AB2F7D825
:103358002DE0982866D05DD820F04000182814BFCA
:10336800052004200423238003B030BD11888A1C63
:1033780092B21FFA8EF39A4222803FD8B0F50A7FA4
:1033880000F0E88000F2A880B0F5D47F00F08A80D1
:1033980000F2B280A8280AD000F2938120F0400001
:1033A800282804D0052092E700238CF80030042058
:1033B8008DE741F29053984200F0C48140D941F61C
:1033C800D003984200F0FB8100F2A28041F2106322
:1033D800984200F08F8141F25063984200F0858155
:1033E80041F2D053984240F0EF818748294603F0D4
:1033F800AFFF00200223238003B030BD00232380C9
:103408000A2064E71378042B5DD0032B00F0408179
:10341800002067E7D82854D0B0F58C7F14BF05206A
:1034280004209FE7B2F900307849794881FB0321ED
:10343800A1EBE371002209B2FEF714F8002091E72E
:1034480041F29043984200F06E8140F2F28041F2DE
:103458001053984200F0628141F25053984200F0B4
:10346800588141F2D043984240F0AE8165482946E0
:1034780003F096FFBDE7B0F58A6F00F09B8100F27C
:10348800F980B0F5547F00F08881B0F5647F00F0D2
:103498007781B0F5447F40F097815E4829B203F008
:1034A80077FFA6E7DCF80210584BBCF8062083FB30
:1034B8000103A3EBE171564809B2FDF7D3FF0020E1
:1034C80005E704204EE75248FEF7F6F800220146C9
:1034D8004F48FDF7D1FF9BE7B0F55A7F00F0A28077
:1034E800B0F5A56F7FF45EAF4B480CF1020103B055
:1034F800BDE8304003F076BEB0F5F47F7FF452AFFC
:10350800BCF80620BCF902104148FDF7B5FFD6E724
:1035180041F65053984200F02B8100F2D68041F6D4
:103528001013984240F07C813C48294603F010FF74
:103538005FE7B0F5047F00F00081B0F5247F00F06C
:10354800F780B0F5E87F40F03F812F4829B203F0BB
:10355800F1FE4EE74B077FF453AFC9B22F293FF670
:103568004FAFC908ABD0BCF90230284ABCF80850A4
:1035780082FB0340A0EBE370294BBCF906401C8298
:1035880001299D81D8819AD0BCF90A40BCF90E5016
:1035980082FB04E0A0EBE4700229BCF810401C8315
:1035A8009D8358838BD0BCF91240BCF9165082FB1E
:1035B80004E0A0EBE4700329BCF818409C841D8546
:1035C800D8843FF47CAFBCF91A40BCF91E5082FB8A
:1035D80004E0A0EBE4700529BCF820401C869D8619
:1035E80058867FF46CAFBCF92210BCF9260082FB28
:1035F8000142A2EBE172BCF828409C87A3F8400086
:10360800DA875CE7380300200C030020ABAAAA2A5B
:1036180000000020E0020020080400209C00002098
:1036280030020020DCF8021092480191FDF72EFFCD
:1036380045E7B0F5696F3FF4DCAE4DD8B0F5656F7E
:103648003FF4D7AE00F2C080B0F5396F00F0BE800D
:1036580000F2D980B0F5256F00F0B88000F2EF8055
:10366800B0F51D6F00F0B280B0F5216F14BF0520D2
:103678000420BFE6B0F5016F00F0A88011D8B0F5BE
:10368800926F40F0B3807C4829B203F051FEB0E657
:103698007848FDF7D1FF002201467648FDF7E2FEA3
:1036A800B6E6B0F5156F40F093807248FDF7E6FF77
:1036B80003460193ADF804506E480199FDF7E6FE04
:1036C80097E6E8283FF473AE6CE641F6D05398428B
:1036D8007AD16A4B1D808CE641F25043984273D1EF
:1036E8006748294603F034FE83E66648294603F016
:1036F80057FE7EE66348294603F036FE79E66048C1
:1037080029B203F045FE74E65D4829B203F012FEC3
:103718006FE65D48294603F027FE6AE65A482946BF
:1037280003F016FE65E65648294603F01DFE60E6DE
:10373800554829B203F0FCFD5BE6524829B203F074
:1037480027FE56E65048294603F02AFE51E64E4821
:1037580029B203F0EFFD4CE64648FDF78FFF03461C
:103768000193ADF8065043480199FDF78FFE40E6F6
:10377800464B1D803DE6434829B203F0D9FD38E6A3
:1037880001AA0DF10201424805F058FA4048BDF976
:1037980002102AB205F05AFA2BE601AA0DF102012D
:1037A8003B4805F04BFA3A48BDF9042029B205F028
:1037B8004DFA1EE6304829B203F0BCFD19E62E4842
:1037C800294603F0D1FD14E6052013E6042011E68E
:1037D800FAD8B0F50D6FF9D040D8B0F5056FF5D02F
:1037E800B0F5096F14BF0520042003E6ECD3B0F54B
:1037F800F26FEBD02CD820F04000B0F5B26F14BFB8
:1038080005200420F6E5B0F5456FDFD02CD8B0F5DB
:103818003D6FDBD0B0F5416F14BF05200420E9E50A
:1038280041F60F139842CFD941F690239842CDD054
:1038380041F65833984214BF05200420DAE5B0F564
:10384800296FC3D0B0F5356F14BF05200420D1E52A
:10385800B0F5FA6F14BF05200420CBE5B0F5116F61
:1038680014BF05200420C5E5B0F5496F14BF052035
:103878000420BFE5000000209C000020580800201C
:10388800380300200C030020E00200205C08002020
:103898006800002010B5A1F1080CBDF908E0BCF1E2
:1038A800200F12D8DFE80CF01B11111111111111A2
:1038B80027111111111111112211111111111111C9
:1038C80035111111111111111300072010BD2828ED
:1038D80029D012880232052092B21A8010BDBEF19A
:1038E800000F1EDD01221A80052010BDBEF1030F56
:1038F80015DD0422F7E7BEF1010F10DDB0F5656FA5
:103908005AD0B0F5696F14BF0520002002221A8032
:1039180010BD20282CD060280FD00022E3E7082013
:1039280010BD084610BD1FFA8EFE0A21BEF10B0F0E
:10393800118035D80C220820CFE7204C94F90000DC
:103948000121198080B11FFA8EFEA44608E002F812
:10395800010B1988013189B219801CF9010F18B1BE
:103968007145F4D3062010BD00231370002010BD4C
:10397800134C94F90000012119800028F4D01FFA93
:103988008EFEA44609E002F8010B1988013189B2BC
:1039980019801CF9010F0028E6D08E45F3D8E1E71D
:1039A800084948680C680989C2F80600C2F802404C
:1039B800518100200C2290E70020A7E7D49000084E
:1039C800B0900008A490000830B595B01D46A1F14C
:1039D8000803BDF960C01446202B12D8DFE803F0B5
:1039E80031111111111111116A1111111111111146
:1039F8004711111111111111611111111111111129
:103A08001400072015B030BDB0F5D47F00F0D48184
:103A18007ED8E82804F1020300F0EA8100F221814F
:103A2800682800F0DA81A82840F0AE811FFA8CFCE3
:103A38001022BCF1110F228000F24B8212230820C1
:103A480082E0BCF1000F40F37481882800F098816F
:103A5800C82800F09181482840F0CD80B648FDF78D
:103A680063FD2070002001232B8015B030BDBCF110
:103A7800030F4ADDD82800F0C58100F26D8158286F
:103A880000F04F81982800F0C481182840F0BF81C9
:103A9800A948FDF793FD2060002004232B8015B072
:103AA80030BDA02800F08F80E0286FD000232B8045
:103AB8000520A7E7BCF1010F27DDB0F51D6F00F069
:103AC8001D8344D8B0F58A6F00F0138340F29580C7
:103AD800B0F5056F00F0178300F2BB81B0F5BA6F3F
:103AE80000F0938200F25E82B0F5926F00F03483AA
:103AF800B0F5B26F40F03C82904803F081FA208024
:103B0800002002232B8015B030BD082015B030BD31
:103B1800B0F50A7F00F0BD80B0F55A7F00F039811A
:103B2800B0F5F47F40F03081042323808248FDF70C
:103B380073FD034663808048FDF772FD23880246C3
:103B480002330020A2809BB22B8015B030BD41F219
:103B58009043984200F0C18266D8B0F53D6F00F0FE
:103B6800008300F26381B0F5296F00F0EE8200F265
:103B7800E681B0F5216F00F0B582B0F5256F40F011
:103B8800F7816D48FDF78EFD2080B9E76C4B1A6808
:103B980001232B8002F1240192F924207AB11FFA23
:103BA8008CFC08E004F8012B2B8801339BB22B8096
:103BB80011F9012F1AB19C45F4D8062022E70023F9
:103BC800237000201EE75F4A012311682B8091F9BA
:103BD8000020002AF3D01FFA8CFC09E004F8012B1E
:103BE8002B8801339BB22B8011F9012F002AE6D0D4
:103BF8009C45F3D8E1E7052035E7B0F5047F00F0F0
:103C0800508200F23981B0F5887F00F02C8200F2F2
:103C1800BE81902800F08F82D02840F0A9814A48C0
:103C280003F08EFB20806BE741F21063984200F0AE
:103C3800248200F2338141F25053984200F00E8200
:103C480000F2988141F2D043984200F0798241F223
:103C58001053984240F08C813C4803F077FB208059
:103C68004EE7B0F5947F40F08F801FFA8CFC0C2251
:103C7800BCF10D0F228040F22981354A5068146842
:103C88009168D268DA6058601C60996000200E2341
:103C98005AE71FFA8CFC2823BCF1290F238040F235
:103CA80012812C4BB3F90E20B3F9100099892181A8
:103CB80002EB4202E0805200B3F91C00C4F8022073
:103CC800B3F91A20198B218202EB4202E0815200DB
:103CD800B3F92800C4F80A20B3F92620998C218367
:103CE80002EB4202E0825200B3F93400C4F8122019
:103CF800B3F93220198E218402EB4202E08352008C
:103D0800B3F94000C4F81A20B3F93E20998F2185F1
:103D180002EB42025200E084C4F822202A23002049
:103D280012E70548FDF784FC00EB400040002060E6
:103D3800B2E6084666E600BF0000002074030020D3
:103D4800EC030020F403002038030020E0020020E8
:103D5800F803002030020020B0F58C7F61D041F6D6
:103D68005833984253D1B04B186803F07BFB8DED64
:103D7800010A019B23608FE6AC4B93F8480070E67C
:103D8800AB48FDF721FC6CE62388023305209BB283
:103D9800DAE604232380A648FDF770FC0346638017
:103DA800A3481293FDF76AFC2388C0F30F4002333F
:103DB800A0809BB20020C7E69D48FDF729FC00EBD8
:103DC80040004300C4F802309948FDF729FC062357
:103DD800E080238000200823B6E61FFA8CFC3C22F2
:103DE800BCF13D0F228000F28E803E230820ABE616
:103DF8001FFA8CFC0E22BCF10F0F228076D81023FC
:103E08000820A1E68B4BD3F80031236044E6052057
:103E180043E68748FDF710FC00EB400040002060B7
:103E28003AE6844BD3F8FC30236035E6B0F5496FA9
:103E380000F0758100F28F80B0F5416F00F0688165
:103E4800B0F5456F40F094807A4804F0E1FE208098
:103E580056E6B0F5116F00F0308100F2C080B0F581
:103E6800096F00F02381B0F50D6F40F08180704834
:103E7800FDF7FAFB208043E6B0F5447F00F00781A8
:103E880000F29D80B0F5247F00F0FC80B0F5347F0F
:103E98006ED1694803F054FA208031E641F61013D8
:103EA800984200F0688100F2A88041F2506398427D
:103EB80000F05C8141F6D003984259D15F4803F085
:103EC8004DFA20801CE62A2308203DE60E23082010
:103ED8003AE65B4A1268506814689168D268DA60FA
:103EE80058601C609960002012232DE6554A12681C
:103EF8001068516894689C601860596092899A812A
:103F08000020102320E6504A126802F1300E14688F
:103F180050689168D2F80CC0C3F80CC010327245D2
:103F28001C605860996003F11003F0D11068516863
:103F380092689A601860596000203E2304E6B0F544
:103F4800356F00F0F380B0F5396F11D1394804F0BE
:103F5800CBFB2080D4E541F2504398425FD007D88C
:103F6800B0F5656F3FF4CCADB0F5696F3FF4C8ADFF
:103F78000520C6E541F29053984279D041F2D053DA
:103F88009842F5D1314803F0E1F92080B8E5B0F561
:103F9800C87F3FD0B0F5E87FEAD12C4803F0D0F9CC
:103FA8002080ADE5B0F5FA6F76D0B0F5016FDFD1BE
:103FB8001F48FDF745FBC0F30F432380A0E5B0F58C
:103FC800547F00F08180B0F5647FD1D1194813AADD
:103FD80012A904F033FEBDF84C30238090E5B0F50B
:103FE800156F00F0CD80B0F5196FC1D11048FDF7FD
:103FF80045FBC0F30F43238082E541F69053984276
:10400800B6D1134B1B8823807AE5124803F076F962
:10401800208075E50D4803F08FF9208070E50E4883
:1040280003F094F920806BE528000020300200207E
:104038000000002068000020E00200209C00002012
:10404800E8030020F0030020EC0300200C0300200C
:104058005A08002098030020380300204B4803F03A
:104068007DF920804CE54A4803F094F9208047E523
:10407800464803F093F9208042E5464803F06EF97C
:1040880020803DE5414803F057F9208038E53F4856
:1040980003F080F9208033E53F48FDF7D1FA20800E
:1040A8002EE53C4803F076F9208029E53A48FDF7EB
:1040B800D1FAC0F30F43238022E53748FDF7D4FA3D
:1040C800C0F30F4323801BE5344813AA12A904F058
:1040D800B5FDBDF84830238012E52D4803F03EF9C0
:1040E80020800DE52C48FDF7D3FAC0F30F43238059
:1040F80006E52B4803F024F9208001E52648FDF762
:10410800C7FA2080FCE42448FDF7A4FA2080F7E4ED
:10411800224804F081FDC0F30F432380F0E41F48D8
:1041280004F076FDC0F30F432380E9E41B4BB3F999
:1041380004302380E4E4164803F0FEF82080DFE42E
:10414800134803F02BF92080DAE41348FDF7AAFAA4
:10415800C0F30F432380D3E4114803F0EDF8208027
:10416800CEE40E4804F058FD2080C9E4094803F065
:1041780015F92080C4E40A4803F0E8F82080BFE479
:104188000548FDF77BFA2080BAE400BFE002002072
:10419800380300200C0300200000002068000020E5
:1041A8009C00002030B4026802F1080151E8003F89
:1041B80043F0010341E80034002CF7D1C168194DE0
:1041C80043686C5C234402F1240199604023136224
:1041D80002F1080151E8003F43F0400341E8003490
:1041E800002CF7D14023136252E8003F43F040030C
:1041F80042E800310029F7D102F1080151E8003FF7
:1042080043F0800341E80034002CF7D1016983684A
:10421800695C0B4402F128004021986030BC1162AF
:10422800704700BFF09100080369806810B40B4C18
:10423800E35CC458E40700EB030C0CD4CCF80C1076
:10424800DCF804106FF30F010A43CCF80420C258BD
:1042580042F00102C2505DF8044B7047F09100082B
:1042680010B4C3680C4C4068E35CC45800EB030C02
:1042780024F00104C450CCF80C10DCF804105DF8EC
:10428800044B6FF30F011143CCF80410C25842F0ED
:104298000102C250704700BFF09100080268102365
:1042A800136252E8003F43F0100342E8003100294E
:1042B800F7D17047034AD2F8883043F47003C2F844
:1042C8008830704700ED00E038B50F4B1B680BB91C
:1042D800012038BD0D494FF47A720546B2FBF3F35D
:1042E8000868B0FBF3F000F08DFF04460028EFD11A
:1042F8000F2DEDD8024629464FF0FF3000F026FF7B
:10430800034B20461D6038BDD4040020D004002093
:10431800D80400200A4A136843F4807310B50320B8
:10432800136000F001FF0420FFF7CEFF10B1012455
:10433800204610BD0446FEF7B1FC204610BD00BF64
:1043480000200240034A0449136809680B441360BB
:10435800704700BF3C1B0020D4040020014B1868A4
:10436800704700BF3C1B002030B583B00023019389
:10437800002800F0AA80C56D0446002D00F0AA8030
:10438800226893689D0005D5936823F0204323F0A5
:104398003F0393609368D80019D4684B68481B683A
:1043A80091689B09A0FB030321F010419B0921F0B0
:1043B8003F0101335B0041F0805191600193019B03
:1043C8002BB1019B013B0193019B002BF9D1936811
:1043D800D9007DD4E36D43F01003E365236E01201B
:1043E80003432366936813F0040FE36D69D1DB067A
:1043F80067D4E36D23F4817343F00203E3659368A4
:10440800DD0709D44FF0A0439B6813F0010F4D4B13
:104418009B6801D1D9077AD5E568E36B94F8241035
:104428002B43A5682B43657F012943EA453343EABB
:10443800014355D0E16A21B1256B01F47871294314
:104448000B43D568404929401943D1601369616B12
:1044580023F040630B43136193681B0722D4D16890
:1044680094F83830257F21F480415B0021F0020167
:1044780043EA85330B432169D360136900293CD093
:1044880043F480331361D2F8C0306FF30D030B434C
:10449800C2F8C03094F84030012B40D0136923F0A3
:1044A800010313616369012B1FD0136B23F00F0302
:1044B8001363E36D23F0030343F00103E36503B0E3
:1044C80030BDE36D43F01003E365012003B030BD58
:1044D800002087E7FEF704FC256684F858504FE76C
:1044E800A16A013943EA4143A4E7116B236A21F029
:1044F8000F01013B0B431363DBE723F480331361A4
:10450800D2F8C0306FF30D03C2F8C030C2E70F49CC
:1045180065688B6823F47C132B438B607CE71169F7
:10452800636CA56C6FF38A012B430B43E16C0B435F
:10453800216D0B4343F001031361B3E7D00400205E
:10454800632D3E05000100500740F0FF00030050B6
:104558002DE9F04190F8582082B00346012A4FF027
:104568000000019000F02D811A68012083F858009E
:104578009468640755D448684FEA901E00F01F0CF1
:104588000EF00C0E086802F13004C0F3846054F891
:104598000E501F2600FA0CF006FA0CFC25EA0C0C4B
:1045A80040EA0C0044F80E009068470743D590682D
:1045B80008689468E50712D4CE68B04CD2F8B050B9
:1045C80006F01807FC40C0F31207044025EA070567
:1045D8002C43C2F8B040AA4CA64200F0A280A949D8
:1045E80008421CD0A84CA94DA168A84201F0E07669
:1045F80074D0A74DA84271D0A64DA84200F0E5801E
:10460800A54DA8420BD1490209D4A4498A4206D033
:10461800A26822F0E072324342F48002A2600020D5
:1046280003E0DA6D42F02002DA65002283F85820B0
:1046380002B0BDE8F081946808682607B9D48D688F
:10464800C0F304560724C00DB440B5F1004F00F084
:1046580004006FEA040400F0078102F11407B54072
:104668003E5834402C433C50506920F00040506183
:10467800D1E904640868D568042E074600F0C880AC
:10468800C5F3C1056D0000F0F84704FA05F002F122
:104698006004834D54F826C00CEA05053D432843C1
:1046A80040F0004044F826000D698E6954F8250052
:1046B80020F08070304344F825000E690D7F54F8CF
:1046C8002600A5F10105B5FA85F56D0920F0007001
:1046D80040EA456044F8260008686AE70C029ED460
:1046E800B2F1A04F9BD168496E488A6822F0E07207
:1046F800324342F400028A6002686B499209A1FBC6
:1047080002129209013202EB420292000192019ACE
:10471800002A84D0019A013A0192019A002AF9D11B
:104728007DE7002F60D090FAA0F4002C00F0BE8046
:10473800B4FA84F4013404F01F04092C40F2B68062
:1047480090FAA0F4002C00F05781B4FA84F40134F4
:10475800A40604F0F84490FAA0F5002D00F0568164
:10476800B5FA85F5013505F01F05012606FA05F5A8
:104778002C4390FAA0F0002800F04681B0FA80F0AF
:10478800451C05F01F0503206FF01D0610FB056092
:10479800000540F000702043C50D8C6805F0040545
:1047A80002F11406C0F3045004FA00F74FF0070CA6
:1047B80074590CFA00F024EA000038437051086874
:1047C8000DE7022002B0BDE8F081C8013FF527AF30
:1047D80032498A423FF423AFA26822F0E0723243A2
:1047E80042F08072A2601AE7800E013000F01F05C7
:1047F8000124800600F0F840AC40092D44EA00048A
:1048080005EB450077D91E38000540F00070C2E777
:10481800146E146EC0F31205C4F38464002D6CD1B9
:10482800C0F38460844200F0A080546E556E02F19B
:104838006004C5F3846502F1640E854200F0C0800F
:10484800A568A56804F1080CC5F38465854200F0E5
:10485800A180E568E56804F10C06C5F38464A0420C
:1048680000F0C4803846A4E602F1140635582C40FE
:104878003450506940F000405061F9E6FFFF0700EE
:1048880000007F400000088000030050000021C3A2
:104898001000C090000052C7000084CB00010050F7
:1048A80000F0FF03D0040020632D3E0590FAA0F429
:1048B800002C00F0B780B4FA84F40134A40604F0A4
:1048C800F84490FAA0F5002D00F0AA80B5FA85F515
:1048D800013505F01F05012606FA05F52C4390FA67
:1048E800A0F0002800F09980B0FA80F0013000F0C4
:1048F8001F0000EB400000054DE790FAA0F51DB140
:10490800B5FA85F5AC4230D0546E556E02F16004AC
:10491800C5F3846502F1640E97FAA7F604F1080C52
:10492800E046002E74D0B6FA86F6AE424AD0DCF8DD
:104938000050DCF80050C5F3846597FAA7FE04F12F
:104948000C06B046BEF1000F59D0BEFA8EFEAE4539
:1049580022D034683468C4F3846497FAA7F5002D2C
:104968003FF427AEB5FA85F079E7106E144620F0CB
:10497800004044F8600F0F68506E556EC7F312067A
:1049880002F1640EC5F384653846002EC4D1C7F31E
:10499800846052E704F10C08DCF8000020F00040C5
:1049A800CCF800000F68E068E468C7F312054646D3
:1049B800C4F384643846002DCFD1C7F384604EE732
:1049C80004F10808DEF8000020F00040CEF80000EE
:1049D8000F68A068A568C7F31206C446C5F38465C6
:1049E8003846002EA9D1C7F384602FE7306820F03D
:1049F800004030600868DCE54FF08064ABE6E568AD
:104A0800E468C4F38464A8E70848C4E60225AFE66E
:104A1800A568A568C5F384658FE74FF44010BAE62A
:104A280002255BE74FF080644BE700BF000050FEB3
:104A38002DE9F04390F8583083B00246012B4FF02F
:104A48000000019000F075810123556982F8583003
:104A5800D1E900401368002D72D00D6A012D6FD086
:104A6800976E00F01F00C4F384668640002F40F064
:104A78001A81886A013D002800F01E82CF6A00F082
:104A88007C00284338433043C2E919059868000779
:104A980010D491F8260091F825504005002D40F0DB
:104AA800F780DD6891F8246025F4401540EA065047
:104AB8002843D860986810F0040057D09868002000
:104AC8009D68EE0714D4CF68A34DD3F8B06007F003
:104AD800180C25FA0CF5C4F3120E254026EA0E0C24
:104AE80045EA0C05C3F8B0509C4DAF4200F0F68083
:104AF8009B490C421ED09B4E9B4DB168AC4201F0C5
:104B0800E07700F09F80994DAC4200F09B80984D73
:104B1800AC4200F01281974DAC420BD1490209D446
:104B280095498B4206D0B36823F0E0733B4343F4C6
:104B38008003B360002382F8583003B0BDE8F083E7
:104B48000928A3D1886A650C05F4785520B1CE6A86
:104B580000F07C0030430543D86C884E3040284331
:104B6800D864986855660007A4D492E79D682F0713
:104B7800A6D48D6A91F82500002D40F0A680012862
:104B8800D86800F09B8120F00070D860002091F870
:104B98003050012D00F085811D6925F002051D6149
:104BA8008E68C4F304570725E40DBD40B6F1004FE5
:104BB80004F004046FEA050500F0698103F1140CA0
:104BC800BE405CF804703D4035434CF804505C69C5
:104BD80024F000445C610F690C684D69DE68042F9D
:104BE800A44600F00C81C6F3C106760004F0F84C28
:104BF80005FA06F403F16005614E55F827E00EEA60
:104C0800060646EA0C06344344F0004445F82740BB
:104C18000F698E6955F8274024F08074344345F8AD
:104C280027400F690E7F55F82740A6F10106B6FA0E
:104C380086F6760924F0007444EA466445F827406D
:104C48000C683DE70D023FF575AFB3F1A04F7FF457
:104C580071AF44494B4C8B6823F0E0733B4343F4FA
:104C680000038B60236848499B09A1FB03139B0938
:104C780003EB43039B0018330193019B002B3FF484
:104C880059AF019B013B0193019B002BF9D151E7DF
:104C9800DD6825F440152843D860986810F00400B2
:104CA8003FF464AF0AE7556E013F35439766556692
:104CB800002F7FF4EBAED86C304E30402843D864D8
:104CC800986800073FF5F6AEE3E6CD6A002D3FF49D
:104CD80056AF012800F01881D86854E7BEF1000FDC
:104CE80054D1A40E013404F01F060125A40604F0D3
:104CF800F844B540092E45EA040506EB460400F2DF
:104D0800FE8024052C43E60D8D6806F0040603F1A9
:104D18001407C4F3045405FA04FC4FF0070EBD59F8
:104D28000EFA04F425EA040444EA0C04BC510C68A5
:104D3800DEE6022003B0BDE8F083CC013FF5FAAE11
:104D48000D498B423FF4F6AEB36823F0E0733B4362
:104D580043F08073B360EDE6FFFF070000007F407B
:104D68000000088000030050000021C31000C0901C
:104D7800000052C7000084CB00010050004010041E
:104D880000F0FF03D0040020632D3E0594FAA4F53B
:104D9800002D00F0BE80B5FA85F5013505F01F0538
:104DA800092D40F2B68094FAA4F5002D00F02B816D
:104DB800B5FA85F50135AD0605F0F84594FAA4F67F
:104DC800002E00F01E81B6FA86F6013606F01F06A0
:104DD800012707FA06F6354394FAA4F4002C00F0EC
:104DE8000981B4FA84F4661C06F01F0603246FF0E8
:104DF8001D0714FB0674240544F0007482E71D6E39
:104E08001D6EC4F31206C5F38465002E5AD094FAB9
:104E1800A4F626B1B6FA86F6B54200F0CE805D6EED
:104E28005E6E03F16005C6F3846603F164089CFABC
:104E3800ACF705F1080EF146002F00F0DD80B7FA57
:104E480087F7B74200F0A380DEF80060DEF8006064
:104E5800C6F384669CFAACF805F10C07B946B8F1BC
:104E6800000F00F0D380B8FA88F8B04577D03D68D5
:104E78003D68C5F384659CFAACF6002E3FF420AE7D
:104E8800B6FA86F4AC4200F0AF80644618E603F147
:104E980014073E5935403D515C6944F000445C615B
:104EA80099E6D1E90D571E693D4326F4FF7635434F
:104EB80045F002051D6173E62846E4E540F0007000
:104EC800D86063E6C4F38464A54276D05D6E5E6EF6
:104ED80003F16005C6F3846603F16408A64254D062
:104EE800AE68AE6805F1080EC6F38466A64234D0F3
:104EF800EE68EE6805F10C07C6F38465C2E71E3C50
:104F0800240544F00074FDE6D56D45F02005D5650F
:104F18003DE694FAA4F5002D00F08280B5FA85F5F7
:104F28000135AD0605F0F84594FAA4F6002E75D0C3
:104F3800B6FA86F6013606F01F06012707FA06F6C6
:104F4800354394FAA4F4002C65D0B4FA84F40134FF
:104F580004F01F0404EB4404D3E605F10C09DEF861
:104F6800004024F00044CEF80040D1F800C0EC68BE
:104F7800ED68CCF312064F46C5F384656446002EEF
:104F88007FF479AFCCF384647CE705F10809D8F89D
:104F9800004024F00044C8F80040D1F800C0AC68D4
:104FA800AE68CCF31207CE46C6F384666446002F7B
:104FB8007FF450AFCCF3846498E71C6E1D4624F050
:104FC800004445F8604FD1F800C05C6E5E6ECCF3CB
:104FD8001207C6F3846603F164086446002F7FF461
:104FE80026AFCCF3846479E73C6824F000443C6045
:104FF8000C6865E50C4C85E6AE68AE68C6F3846659
:1050080028E70226E7E64FF08065D7E6EE68ED6808
:10501800C5F384652FE74FF4401473E602268FE743
:105028004FF0806580E700BF000050FE90F85820E0
:10503800012A45D0F0B404689CB003460022012040
:10504800B4F1A04F189283F85800199208D0D96D7E
:1050580083F8582041F02001D9651CB0F0BC704796
:10506800224A906840070BD5A268DA6D42F0200208
:105078000120DA65002283F858201CB0F0BC704784
:10508800A0684507F1D40D68E5B1194E4F68B068BE
:1050980093F838C020F46040384340EA4C30B060A0
:1050A800A0689268C0071ED4D7071CD4B268896864
:1050B80022F471620D4322F00F021543B56012E02D
:1050C800022070470A48816821F460418160A16824
:1050D8009268CD0707D4D40705D4826822F4716298
:1050E80022F00F0282600020C4E700BF00010050D8
:1050F80000030050B0B110B590F82130044603F019
:10510800FF0253B100200123606284F82130C4E912
:105118000100C4E90300606110BD80F82020FDF79C
:105128007FFEEFE7012070470749CA6803024FF680
:10513800FF0003F4E0630240134343F0BF6343F40A
:105148000033CB60704700BF00ED00E01B4BDB680D
:10515800C3F3022300B5C3F1070EBEF1040F03F138
:10516800040C28BF4FF0040EBCF1060F1CD9A3F1A4
:10517800030C4FF0FF3303FA0CF322EA03024FF05B
:10518800FF3303FA0EF321EA030303FA0CF3134384
:105198001B010028DBB20ADB00F1604000F561402A
:1051A80080F800335DF804FB00229446E7E7044AE0
:1051B80000F00F00024413765DF804FB00ED00E0F8
:1051C800FCEC00E0002807DB044A4109012300F059
:1051D8001F00834042F82130704700BF00E100E023
:1051E800BFF34F8F0549064BCA6802F4E0621343C8
:1051F800CB60BFF34F8F00BFFDE700BF00ED00E0BD
:105208000400FA050138B0F1807F01D3012070470E
:1052180010B44FF0E023074C58614FF0F00C84F8BD
:1052280023C00022072110469A615DF8044B1961DA
:10523800704700BF00ED00E0704700BF08B5FFF7FA
:10524800FBFF08BD002876D0F0B43C4A04689442BD
:1052580003465CD93A493B4A3B482144A2FB012119
:105268000909890002229D6883F82520DA68354EED
:10527800364FC3E9100118692A43024358690243AB
:1052880098690243D8690243E0B20838A6FB006077
:10529800266826F4FF4C1E6A2CF0700C324342EA52
:1052A8000C022260254E2A4AC0F30410B44298BF6B
:1052B8003A4606F27946012404FA00F0DE64B5F5B0
:1052C800804F01EB020618659E644FEA910127D0D2
:1052D8005E68F5B2013E032E42F82150C7F88400FB
:1052E80024D81C4A1C482A449200013DAC400021A5
:1052F800C3E91520DC651160184A546400200122B6
:10530800D86383F8240083F82520F0BC704714493B
:105318000C4A14482144A2FB012109098900A1E78C
:1053280000245C6042F82140C7F884000022C3E9E9
:105338001522DA65E2E70120704700BF0704024042
:10534800F8FBFDBFCDCCCCCC0004024000080240E5
:10535800200802403F820010400902400009024034
:10536800F8FFFDBF000002400B68002B00F0988199
:105378002DE9F04FB0F1904F85B04FF000024FF09B
:10538800010B00F00D81DFF84CE30093009B0BFA52
:1053980002FC1CEA030A77D04D6805F003075400A5
:1053A800032307F1FF3803FA04F6B8F1010F6FEA97
:1053B800060640F21981032F40F0798107FA04F4B8
:1053C80007683E40344315F4403F04605CD0BE4E4D
:1053D800346E44F001043466346E04F0010403941E
:1053E800039C22F0030404F1804402F003070F2316
:1053F80004F58034BF0003FA07FCB44BA668984252
:1054080026EA0C0600F04081B14B984200F02D814D
:10541800DFF8C4C2604500F03D81DFF8C0C26045D6
:1054280000F03F81DFF8B8C260450CBF4FF0050CB3
:105438004FF0060C0CFA07F73E43A660DEF808406A
:105448006FEA0A06EF0254BF34404AEA0404CEF871
:105458000840DEF80C40AB0254BF34404AEA04046A
:10546800CEF80C40DEF80440AF0354BF34404AEA9B
:105478000404CEF80440DEF80040EB0354BF344087
:105488004AEA0404CEF80040009B013233FA02F4E1
:105498007FF47CAF05B0BDE8F08FD0F80890CE68F7
:1054A8000AEA090906FA07F848EA0908C0F808806C
:1054B800D0F8048028EA0E08C5F3001E0EFA02FE92
:1054C8004EEA080EC0F804E0D0F80C808E680AEAAC
:1054D800080806FA07FE4EEA080E022CC0F80CE08F
:1054E80019D14FEAD20E0E694FEA8E0E02F0070864
:1054F8000EF1904E4FEA880806FA08F6DEF820907A
:1055080000960F2606FA08F8009E29EA080946EAD6
:105518000908CEF82080BC40076807EA0A073C4320
:1055280015F4403F046036D0674F3C6E44F00104E8
:105538003C663C6E04F001040394039C22F00304CF
:1055480004F1804404F5803402F00307D4F808E03D
:105558000F26BF0006FA07F72EEA0707A7605D4C7B
:10556800EE02A4686FEA0C077CD43C40594EB46044
:10557800F468AE0200F185803C40564EF4607468D1
:10558800AE037BD43C40534EED037460346872D450
:105598003C40504D2C60013233FA02F43FF47AAFAC
:1055A8000BFA02FE13EA0E0CF5D04D6857000326DD
:1055B80006FA07F805F003046FEA080A04F1FF3851
:1055C800B8F1010F7FF669AF032CA4D04FF09048D3
:1055D8008E68D8F80C9006FA07FE0AEA09094EEA1E
:1055E800090EC8F80CE096E7D0F80890CB6809EAED
:1055F800060903FA04F848EA0908C0F80880D0F850
:1056080004808B6828EA0C08C5F3001C0CFA02FC1D
:105618004CEA080CC0F804C0D0F80C8003FA04FC6B
:1056280008EA06084CEA080C022FC0F80CC07FF400
:10563800C5AE0B694FEAD20802F0070C00EB8808E8
:105648004FEA8C0C03FA0CF3D8F8209001930F233F
:1056580003FA0CFC019B29EA0C0943EA090CC8F877
:1056680020C0ABE644EA0C0480E74FF0020C0CFAC9
:1056780007F73E43E1E64CEA04048AE744EA0C04EF
:1056880081E74CEA040478E74FF0010C0CFA07F7BD
:105698003E43D2E64FF0030C0CFA07F73E43CCE644
:1056A80070474FF0040C0CFA07F73E43C5E6D0F8F4
:1056B8000C808B6808EA060803FA04FC4CEA080C1C
:1056C800C0F80CC07AE600BF001002400004004891
:1056D8000008004800040140000C00480010004881
:1056E8000014004800286FD030B590F83A30052BE8
:1056F80083B0044656D090F83A30022B52D0334B40
:105708001A6E42F001021A661B6E03F00103019340
:10571800019B90F83A3003F0FF020BB980F839206A
:105728002046FDF795FBA368E06A23F02002402A93
:105738002268116839D0656821F010010143E068DA
:1057480011602B430343206911680343606A0343D4
:10575800A06A0343206B43EAC043606B43EA0063DB
:105768001B480840217DA1F10101B1FA81F10343F1
:10577800490943EA012313609369002B09DBD4E943
:10578800063091690343206A21F03F0103430B432C
:10579800936194F83A3013B9012384F83A30002021
:1057A80003B030BD012003B030BD21F0100101432A
:1057B8006068116003432069616AA56A03430B436B
:1057C800206B11682B43C6E7012070470010024088
:1057D800113E00E0354A136860B903F4C063B3F5BD
:1057E800806FD2F880301BD023F48073C2F88030E9
:1057F80000207047B0F5007F06D023F4C06343F45F
:10580800806313600020704703F4C063B3F5806FB2
:10581800D2F8803029D043F48073C2F88030F1E7A1
:1058280023F48073C2F8803013682148214923F497
:10583800C06343F4007313600368322000FB03F372
:105848005069A1FB03139B0C400503F1010306D526
:1058580000E023B15169490503F1FF33F9D4134B33
:105868005B695B05CED50320704743F48073C2F8AB
:10587800803013680E480F4923F4C06343F4007363
:1058880013600368322000FB03F35069A1FB031384
:105898009B0C400503F10103E1D501E0002BDED0AC
:1058A8005169490503F1FF33D9D5F7E70070004086
:1058B800D004002083DE1B43024A936843F48043EC
:1058C8009360704700700040002800F0BD812DE90A
:1058D800F0410368D90782B0044612D5A6498A6800
:1058E800C96802F00C020C2A00F0D080082A40F0A7
:1058F800D280A14A1268920303D56268002A00F098
:1059080037819A0722D59C4A9368D26803F00C0322
:105918000C2B00F0F880042B40F0FA80964B1B68A3
:105928005B0503D5E368002B00F02281924A2069C9
:105938005368924923F0FE4343EA006353600868C2
:10594800FEF7C2FC002840F0138123681A0719D516
:105958006369894D002B00F0C280D5F8943043F07C
:105968000103C5F89430FEF7F9FC064605E0FEF79A
:10597800F5FC801B022800F21781D5F894309B07AC
:10598800F5D523685D0741D57B4B9A6DD00000F1B2
:105998000F819A6D42F080529A659B6D03F0805397
:1059A8000193019B0125764E3368D90540F12E817C
:1059B800A368012B00F0FE80052B00F084816E4E59
:1059C800D6F8902022F00102C6F89020D6F8902050
:1059D80022F00402C6F89020002B40F0F280FEF777
:1059E800BDFC41F28838074605E0FEF7B7FCC01B4E
:1059F800404500F2D980D6F890309907F5D425B102
:105A08005D4A936D23F08053936523689A0618D5F1
:105A1800A369594D002B00F0E580D5F8983043F084
:105A28000103C5F89830FEF799FC064605E0FEF735
:105A380095FC801B022800F2B780D5F898309B07A8
:105A4800F5D5E369F3B14C4DAA6802F00C020C2AB3
:105A580000F04781022B2B6823F080732B6000F045
:105A6800F580FEF77BFC044605E0FEF777FC001B9B
:105A7800022800F299802B689B01F6D4EA68414B12
:105A88001340EB60002002B0BDE8F08101F0030193
:105A980003293FF42EAF6368B3F5803F55D0B3F5C3
:105AA800A02F00F0C480344D2A6822F480322A6086
:105AB8002A6822F480222A60002B4BD1FEF74EFC84
:105AC800064604E0FEF74AFC801B64286CD82B6865
