:020000040800F2
:1000000000800020450500089505000849400008CB
:1000100095050008950500089505000800000000FA
:10002000000000000000000000000000950500082E
:1000300095050008000000009505000851400008E3
:100040009505000895050008950500089505000828
:100050009505000895050008950500089505000818
:100060009505000895050008950500089505000808
:1000700095050008950500089505000895050008F8
:100080009505000800000000554600089505000889
:1000900095050008950500089505000895050008D8
:1000A0007D4600086546000895050008950500088E
:1000B00095050008950500089505000895050008B8
:1000C00095050008950500089505000895050008A8
:1000D0009505000895050008293F000895050008CA
:1000E000954000089505000895050008950500084D
:1000F000950500089505000895050008000000001A
:1001000000000000950500080000000095050008AB
:1001100095050008000000009505000895050008F9
:100120009505000895050008950500089505000847
:10013000950500080000000000000000950500087B
:10014000950500089505000800000000000000006B
:10015000000000000000000000000000000000009F
:1001600000000000000000000000000095050008ED
:1001700095050008000000000000000000000000DD
:1001800000000000950500080000000000000000CD
:10019000000000000000000000000000000000005F
:1001A000000000000000000095050008950500080B
:1001B0009505000895050008950500080000000059
:1001C000000000009505000800000000000000008D
:0801D0009505000895050008E3
:1001D80010B5054C237833B9044B13B10448AFF379
:1001E80000800123237010BDF804002000000000E7
:1001F8006C9A000808B5034B1BB103490348AFF3D9
:10020800008008BD00000000FC0400206C9A000873
:1002180053B94AB9002908BF00281CBF4FF0FF3165
:100228004FF0FF3000F088B9ADF1080C6DE904CE4D
:1002380000F006F8DDF804E0DDE9022304B07047B9
:100248002DE9F047089D8E4604468846002B4AD182
:100258008A42174662D9B2FA82F64EB1C6F1200335
:1002680001FA06F820FA03F3B74043EA0808B44055
:100278004FEA174E1FFA87FCB8FBFEF1230C0EFB62
:10028800118843EA084301FB0CF29A4209D9FB188A
:1002980001F1FF3080F0EA809A4240F2E7800239AB
:1002A8003B449A1AA3B2B2FBFEF00EFB102243EABB
:1002B800024300FB0CFC9C4509D9FB1800F1FF32F6
:1002C80080F0D6809C4540F2D3803B44023840EA17
:1002D8000140A3EB0C0300211DB1F3400022C5E946
:1002E8000032BDE8F0878B4205D90DB1C5E90001A0
:1002F80000210846F5E7B3FA83F1002946D1734592
:1003080002D3824200F20581841A6EEB03020120B7
:100318009046002DE5D0C5E90048E2E7002A00F044
:100328009080B2FA82F6002E40F0A4808A1A030C5C
:100338004FEA174E80B2BCB20121B2FBFEFC0EFBA5
:100348001C2243EA024304FB0CF29A4207D9FB1829
:100358000CF1FF3802D29A4200F2E080C4469B1AA0
:10036800B3FBFEF20EFB123340EA034302FB04F434
:100378009C4207D9FB1802F1FF3002D29C4200F2DE
:10038800CA8002461B1B42EA0C40A5E7C1F12006C1
:100398008B4022FA06F71F430EFA01F420FA06F3FF
:1003A8002EFA06FE4FEA1749234300FA01F81FFA0E
:1003B80087FCBEFBF9F01C0C09FB10EE44EA0E4466
:1003C80000FB0CFEA64502FA01F209D93C1900F11E
:1003D800FF3A80F09C80A64540F2998002383C4460
:1003E800A4EB0E041FFA83FEB4FBF9F309FB1344D4
:1003F8004EEA044403FB0CFCA44508D93C1903F15C
:10040800FF3E80F08280A4457FD9023B3C4443EA0A
:100418000040A4EB0C04A0FB02EC64457346E146E3
:1004280062D35FD05DB1B8EB030264EB090404FA50
:1004380006F622FA01F31E43CC40C5E90064002108
:100448004FE7B1FBF2FC010C41EA0E4180B240EAF1
:1004580001423B4638463C46B846BE462026B1FBDC
:10046800F7F1A2EB080241EA0C4166E7014618E7FA
:1004780010462CE7C6F120022EFA02F3B740B1402D
:1004880020FA02F24FEA174E0A43B3FBFEF8BCB259
:100498000EFB1833110C41EA034108FB04F9B04084
:1004A80089454FEA104380B23ED9791808F1FF3CDC
:1004B80001D289451FD8A1EB0901B1FBFEF909FB5F
:1004C80004F80EFB191192B242EA0142424529D2C0
:1004D800BA1809F1FF31C4D24245C2D2A9F10201CA
:1004E8003A44BEE7F0459DD2BEEB02036CEB070C25
:1004F8000138E14696E7A7EB09094944A8F1020C3F
:10050800B1FBFEF909FB04F8DBE773467FE75046C9
:1005180066E70846FDE63B44023A33E7ACF1020CD5
:100528003B441CE749469CE7A1EB0901C446B1FBE3
:10053800FEF909FB04F8C4E7704700BF0D4885467B
:1005480004F03EF90C480D490D4A002302E0D45846
:10055800C4500433C4188C42F9D30A4A0A4C002305
:1005680001E013600432A242FBD309F049FA00F01B
:1005780013FCFEE70080002000000020F8040020A3
:10058800AC9E0008F8040020341C0020FEE70000A0
:1005980070B50446C36C406998470023656DA4F89C
:1005A800643084F86030606904F11C012B46042231
:1005B800BDE87040184700BF10B40B780A7991F86D
:1005C80002C01E4CDB0143EA02134A7843EA0223C5
:1005D800CA7843EA8C3343EA4253DAB242F005025E
:1005E80023F07041A25C82EA1122D2B2A25C82EAB4
:1005F8001142D2B2A25C124C82EA1162A25C43EAB6
:10060800027343F00503036272B6836C4BB162B6A2
:1006180090F8243013B9022380F824305DF8044B95
:10062800704700F12001032380F82430816462B60A
:100638000422836D5DF8044B40691847949A0008BA
:10064800849A000830B44B0190F860C090F8634079
:100658001D4D43EA011343EA02330CF0010143EA5A
:10066800811343EAC11304F00F0443EA0423DAB206
:10067800164C42F0060243F00601A25C82EA1322FD
:10068800D2B2A25C82EA1342D2B2A25C82EA1363BB
:10069800EB5C41EA0373036272B6836C43B162B6E2
:1006A80090F8243013B9022380F8243030BC704706
:1006B80000F12001032380F82430816462B604220B
:1006C800836D406930BC1847849A0008949A0008E2
:1006D8000A2A09D090F83630012B1DD990F83E30FF
:1006E800012B0DD90020704790F82E30012BF9D836
:1006F800836A012204330B6080F82E2001207047A2
:10070800836B4FF0010C00F13802043380F83EC0CF
:1007180002640B6001207047036B4FF0010C00F17D
:100728003002043380F836C002640B60F2E700BF81
:10073800844690F86400022801D00220704743EAFA
:10074800021041F8040C9CF86C00012804D14FF603
:10075800CA608852023292B20A2B05D19CF8100066
:1007680048B300208CF8100051F8040C70B5344DD3
:10077800C4B204322E5DC0F307247440A1F1040E04
:100788002E5DC0F30744744092B22C5DC0F303653C
:100798006C402C4D2C5D40EA047041F8040C72B694
:1007A800DCF84810B9B162B6092B06D00A2B2AD05A
:1007B8007BB3002070BD01207047DCF84030196819
:1007C8008E4514BF03200020DCF84410A1B3022199
:1007D80099719A8070BD092B29D00A2B4FF0030319
:1007E8000BBF8CF82E308CF824300CF128030CF158
:1007F8002003CCF8483062B6DCF85830DCF8140036
:1008080071469847D5E79CF82E30012B09D0032074
:1008180070BD9CF82430002BF9D102238CF82430C9
:10082800C7E702238CF82E30ACF82C20C1E7DCF89F
:10083800403003219971DCE7CCF84430C7E700BFAA
:10084800949A0008849A000810B590F82430032B75
:10085800044613D0826C0021917190F82E20022A50
:1008680013D0022B1DD100F12001836D8164042275
:1008780040699847032384F8243010BD90F82E303F
:100888000022022B80F824200BD104F12800A36D4C
:10089800A064A28DA16A60699847032384F82E306A
:1008A80010BD72B6636CCBB10322A3649A71196848
:1008B8009A886069A36D984794F83630022B07D060
:1008C80094F83E30022B03D00023636462B610BD57
:1008D800626C630068339B1A6364F7E7A364F5E707
:1008E8002DE9F04790F86150C269002304460B8057
:1008F8009DB190F8645080F86130012D4ED0022DE2
:1009080012D0D5B9836E052B62D0062B15D1C2F350
:100918000F322946FFF796FE0FE090F86230B3B920
:1009280000252846BDE8F087856E052D00F0D980A2
:10093800062D00F02581092D3ED000256069636DE4
:10094800042204F11C0198472846BDE8F08703EB10
:1009580003231B02C3F307228C488D4D82F0090242
:1009680043F00F01825C82EA1343DBB2C35CEB5CA9
:1009780041EA0373236272B6A36C002B00F0F48083
:1009880062B694F8243013B9022384F82430002284
:10099800236D606984F862209847C1E7816E052954
:1009A80064D00629C9D1C2F30F322946FFF74AFE9F
:1009B800022384F86430C0E790F86030B0F85C2017
:1009C800A5690133012084F8603020740A80B5E7F6
:1009D80094F81DC094F86D30007F94F86C6094F81A
:1009E8006E7094F86F900CF03F0CC009634528BFF7
:1009F8006346B0420146C2F3863828BF314661F3E8
:100A08000705C2F3465AB845414663F30F2528BF88
:100A18003946CA45D64661F3174528BFCE466EF318
:100A28001F65B042E5661BD89C4519D8B84517D84C
:100A3800CA4515D894F87000C2F3021290420FD13B
:100A48004A1C0133D2B2DBB252014FEA8E1E5B015F
:100A58000121A281A4F80EE0A4F85E3084F86410A5
:100A680004F16C012046FFF7A7FD66E7457F90F883
:100A78006CC0017F90F86D0094F86E6094F86FE098
:100A880005F03F05C909A84228BF284661450F4619
:100A980028BF674667F30703C2F38637C2F3465891
:100AA800B742B94660F30F2328BFB146F04569F352
:100AB8001743C14628BFF14669F31F636145E366E2
:100AC8000BD8854209D8B74207D8F04505D894F81D
:100AD8007030C2F302129342C2D0002384F864300B
:100AE800BEE794F81DC094F86D50007F94F86CE050
:100AF80094F86E6094F86F800CF03F0CC00965455F
:100B080028BF654670450746194628BF774667F3EC
:100B18000701C2F38637C2F34659B742BA4665F3AE
:100B28000F2128BFB246C1456AF31741CA4628BFFC
:100B3800C2466AF31F617045E16604F16C010DD885
:100B4800AC450BD8B74209D8C14507D894F87030DE
:100B5800C2F302129B1AB3FA83F35B0984F8643078
:100B68002046FFF729FDE8E604F12001032384F875
:100B78002430A16462B60422A36D6069984706E731
:100B8800C2F30F320121FFF75DFDD6E6949A000803
:100B9800849A000810B590F86530044643B1012BDB
:100BA80000D010BD002280F8652080F8613010BDAB
:100BB800C1691F4ACBB2D35C83EA1123DBB2D35C91
:100BC80083EA1143DBB2D35C83EA1163D35C5BB97C
:100BD800037F03F00F03062B836609D8042B1FD964
:100BE800012384F8613010BD042380F8623010BD01
:100BF800092B15D1838B1B09A0F85C30002BEFD093
:100C0800B0F85E209A420FD390F86C208169406951
:100C180003EB4202636D9847012384F8653010BDE9
:100C2800012384F8623010BD022380F8623010BDC1
:100C3800949A00080146002280F86520436D4069B7
:100C480004221C31184700BF4FF090433049186800
:100C5800304A20F440301860186840F400301860BA
:100C6800186820F440201860186840F400201860C4
:100C7800186820F440101860186840F400101860D4
:100C8800086820F040600860086840F0006008606C
:100C98001968214821F040711960196841F0007104
:100CA8001960116821F040411160116841F000415C
:100CB80011600188C807CAB203D5196881F44031A8
:100CC8001960910705D54FF090410B6883F44023D4
:100CD8000B60530705D54FF090410B6883F4401320
:100CE8000B60100704D50A490B6883F040630B605A
:100CF800D10605D54FF090410B6883F040730B6027
:100D0800930604D5034A136883F040431360704781
:100D18000008004800040048F8080020000000000F
:100D280010B594B03822002106A808F061FE002012
:100D3800CDE90100CDE90300059005F073F99FEDB9
:100D4800147B02235522CDE90F320324082206A87A
:100D58008DED067BCDE90D34CDE91123139305F014
:100D6800DBF908B172B6FEE7042103460F220DEB4A
:100D78000100CDE90124CDE90333059305F04AFCD0
:100D880008B172B6FEE705F073FD14B010BD00BFE0
:100D980001000000000001002DE980480024A7B0F0
:100DA80003F03EFDFFF7BCFFCDE91944AB4D1B94A2
:100DB800EB6CAB48DFF8E49243F00403EB64EB6CB4
:100DC80003F004030593059BEB6C43F02003EB64ED
:100DD800EB6C03F020030693069BEB6C43F00103D6
:100DE800EB64EB6C03F001030793079BEB6C43F098
:100DF8000203EB64EB6C03F0020308934FF4806288
:100E0800089B17924FF4041317A9189304F0D4FE03
:100E1800AB6C43F00403AB64AB6C03F004030393C3
:100E2800039BAB6C43F00103AB64AB6C0C9403F015
:100E38000103214604933C2217A8CDE90D44049BE5
:100E480008F0D6FD202221460FA808F0D1FD4FF466
:100E58000047C9E90144C9E90B44C9F81040A9F899
:100E68001C4089F8244089F83840C9F83C4089F882
:100E780040404FF0A0420126042402254846C9E913
:100E88000564C9F80020C9F80C70C9F8205003F0AF
:100E9800F1FC08B172B6FEE70C900CA9484604F0C4
:100EA8004BFB08B172B6FEE76E4B19904FF0090B79
:100EB800CDE91B40CDE9173BADF880008DF88200E5
:100EC8008DF88C004FF07F084FF0840A802317A913
:100ED8004846CDE921A31F95CDF8688004F02EF887
:100EE80008B172B6FEE7604A40F20F1317A94846E8
:100EF800CDE9172304F022F808B172B6FEE7DFF84F
:100F0800A0E1149006220FA94846CDE91148CDE981
:100F18000FE2139403F0A2FD08B172B6FEE7DFF802
:100F280084C10C230FA94846CDE90FC303F096FDF1
:100F3800014608B172B6FEE7DFF86C9101903C22D9
:100F480017A808F055FD0199484AC9F80C70484699
:100F5800C9E90111C9E90416C9F82060C9F818409F
:100F6800A9F81C1089F8241089F83810C9F83C1021
:100F780089F84010C9F8002003F07CFC08B172B66B
:100F8800FEE73B4A199080231C90ADF880008DF84D
:100F980082008DF88C0017A94846CDE91A84CDF84F
:100FA80060B01F95CDF884A02293179203F0C6FF76
:100FB80008B172B6FEE72B4B1793484640F20F1361
:100FC80017A9189303F0BAFF034608B172B6FEE7F3
:100FD8002848C0E90333C0E905334360264B036062
:100FE8004023836004F00CFB08B172B6FEE7234887
:100FF800234E00234024C0E90063C0E90333C0E95D
:101008000533846004F0FCFA034608B172B6FEE7C3
:101018001C48C0E90134C0E90333C0E905331A4B61
:10102800036004F0EDFA08B172B6FEE71748184BF2
:10103800036004F085FB014608B172B6FEE7154D62
:10104800302217A808F0D4FC134B2B60284604F074
:101058001FFC024650B372B6FEE700BF0010024004
:10106800000800480800900C001060320001005091
:1010780000008CCBF807002000020140D4070020B4
:1010880004020140B00700200C020140880700203C
:10109800000C02407407002000100050880800204F
:1010A800020030042000F0141C0800200223CDE9BF
:1010B8001900ADF860001B901E9017A92846CDE9CD
:1010C8001C33179304F0FAFB08B172B6FEE7284602
:1010D800102217A904F0F2FB034608B172B6FEE726
:1010E80083484FF40036C0E9013403610375836116
:1010F800C3624FF440457F4B0360C0E9096504F0C3
:1011080019FF034608B172B6FEE77B48C0E901340F
:10111800036103758361C362784B0360C0E90965A5
:1011280004F008FF034608B172B6FEE77448C0E948
:101138000965436003618361C3620125714B846063
:101148000360057504F0F6FE044608B172B6FEE7C2
:10115800CDE90C00CDE90E00CDE91000CDE9120073
:10116800CDE91400CDE90A0009900146342217A8F8
:1011780008F03EFC6448654B45610360202540F655
:101188001133C0E902534FF48073446084610361F2
:1011980005F082FD08B172B6FEE7702500235A48B3
:1011A800099509A9CDE90A3305F01CFF08B172B603
:1011B800FEE701240E90022353480CAA2146CDE9EC
:1011C8000C3405F0AFFF08B172B6FEE704264E48AE
:1011D8000C960CAA214605F0A5FF08B172B6FEE7E9
:1011E8000CAA102348480C93214605F09BFF0246A1
:1011F80008B172B6FEE760214FF4B163CDE9110082
:10120800CDE91300CDE90F1315900FA93E4805F05D
:1012180003FE08B172B6FEE73B4832460FA905F057
:10122800FBFD08B172B6FEE7374808220FA905F0A2
:10123800F3FD08B172B6FEE74FF4316332480C2271
:101248000FA9CDE90F5305F0E7FD034608B172B6C3
:10125800FEE74FF400604FF48062CDE917024FF4C7
:1012680080523F244FF400501B920B22CDE91C0200
:10127800CDE9193403224FF00074234817A9CDE9AA
:101288002042CDE91E33CDE9223305F0FDFE0446A8
:1012980008B172B6FEE71C4803F0F4F81C481D4973
:1012A80084624FF416420C23C0E90012C0E90244DC
:1012B800C0E90443C0E90644C0E9084406F04AFA14
:1012C80008B172B6FEE70021114806F095FA01460A
:1012D80008B172B6FEE70E4806F0D0FA08B172B649
:1012E800FEE70B4806F06AFA0446A8B172B6FEE7B4
:1012F8003807002000030140FC06002004030140D9
:10130800C00600200803014074060020002C01409C
:10131800E00500200044004001F08EF8012203217E
:10132800262004F039FA262004F072FA2246032116
:101338000B2004F031FA0B2004F06AFA0122042190
:10134800182004F029FA182004F062FA22462146EF
:10135800192004F021FA192004F05AFA2246022131
:10136800122004F019FA122004F052FA224603213E
:10137800282004F011FA282004F04AFADFF86480E3
:10138800154E164D164FDFF860B0DFF860A04FF02D
:101398000109B8F8001032782B889BB2994218D00E
:1013A80003F062FA2B88386086F80090A8F80030BD
:1013B80003F05AFABBF800303A689BB2821A9A4294
:1013C800E7D3FFF741FC2B8834709BB2AAF80030B2
:1013D800DFE7002AE0D0EBE714050020F80800203A
:1013E800180500201C050020F4080020F60800203D
:1013F80072B6FEE7014B186800F080B8CC1B0020DD
:10140800014B186800F090B8CC1B0020014B1868FD
:1014180000F06EB8CC1B002002207047704700BF58
:10142800704700BF4FF0010C40F2013380F80CC048
:10143800C1818283838470474FF0020C40F20143DC
:1014480080F80CC0018282838384704782B00322B3
:1014580040F201430273C0F81210838402B070474F
:10146800038CB0F822C00B4323EA020341EA0C01C3
:1014780003844184704700BF90F82430012B00D0CA
:10148800704710B5027B022A044621D0032A14D0E3
:10149800012A19D14368002283F824200068032117
:1014A80007F048FEA28BB4F90E10206807F046FE3C
:1014B80050B1022384F8243010BD426882F82430E9
:1014C800D0F812301361F4E7032384F8243010BDF8
:1014D8004368002283F824200068042107F02AFECC
:1014E800A28BB4F91010206807F028FEE0E700BFCF
:1014F800C07F7047408C7047008C704710B5044619
:10150800FFF7F6FF08B1002010BD2046FFF7F2FFF5
:101518000028F8D12046FFF7EFFF0028F3D101207B
:10152800A07784F8240010BD38B50546FFF7E0FF22
:10153800044618B1B0F10C0418BF01242846FFF77F
:10154800D9FF10B10024204638BD2846FFF7D4FF44
:101558000028F7D1002CF5D00523AB77F3E700BFBF
:1015680010B50446FFF7C4FF0B2801D0002010BDBA
:101578002046FFF7C1FF0028F8D10223A377608433
:10158800012010BD438C008C43EA0040704700BF27
:1015980090F82500704700BF037B022B13D0032B64
:1015A80009D0012B17D1B0F90E30002BB4BF4FF082
:1015B800FF3001207047B0F91230002BB4BF4FF054
:1015C800FF3001207047B0F91030002BB4BF4FF046
:1015D800FF30012070470120704700BFB0F90E00AE
:1015E800704700BFB0F91000704700BF808B70478C
:1015F80003680022DA609A61704700BF036858697F
:1016080007F030BD006807F091BD00BF4368186857
:1016180083B26FF30F0082B0184302B0704700BF67
:101628004368586883B26FF30F0082B0184302B062
:10163800704700BF4368D86883B26FF30F0082B069
:10164800184302B0704700BF4368186983B26FF34C
:101658000F0082B0184302B0704700BF4368D3F848
:10166800160083B26FF30F0082B0184302B07047C0
:101678004368D3F81A0083B26FF30F0082B018439F
:1016880002B070474368B3F91E00704710B5D0E93F
:10169800000407F0D5FDC0F30F432082638210BD1C
:1016A800C0F30F4344F6E6114BF21A6213FB01F341
:1016B80010FB02F2A2EB4302B2F1804F84B003B2F6
:1016C80005DAD11311F5004F0CDA094A01E047F6A3
:1016D800FF729BB2002063F30F0093B263F31F40C5
:1016E80004B0704702480AB28242B8BF0246F0E727
:1016F8000180FFFF064B00F1FF404FF0601200F53C
:10170800FE0082B01A605860986802B0704700BF47
:10171800000C024030B50546044685B00846FFF780
:10172800E9FF2DB201B22414001405FB01F304FBF8
:101738001033B3F1804F05DADA1312F5004F22DACD
:10174800144A01E047F6FF7201FB04F405FB00446C
:10175800B4F1804F4FEAE43304DA13F5004F0CDAA2
:101768000C4B01E047F6FF7392B2002062F30F00C2
:101778009BB263F31F4005B030BD06491BB28B42D4
:10178800B8BF0B46F0E7034B12B29A42B8BF1A46ED
:10179800DAE700BF0180FFFF30B5054685B0044693
:1017A8000846FFF7A7FF241402142DB200B204FB69
:1017B80002F305FB003300FB04F405FB1244C3F3FA
:1017C800CF33002063F30F00C4F3CF3464F31F401A
:1017D80005B030BD002809DD72B6054B40F269122C
:1017E8001A6058609868C00B62B67047002070474E
:1017F800000C024008B310B5104A114C02600023D7
:10180800237000F0D1F90F48FEF7C2FE0E4806F02B
:1018180063FA0E4807F0F6FF0D4802F0F3F80D489A
:1018280007F06AFA0C4802F0EDF80C4806F018FACE
:10183800FFF7F4FD0123237010BD7047000000205E
:10184800380900206004002038030020CC03002061
:101858009003002074030020BC030020A003002094
:10186800014B1880704700BF3C090020034B1888C3
:1018780080B2B0FA80F04009704700BF3C090020F0
:10188800014B1880704700BF3A090020034B1888A5
:1018980080B2B0FA80F04009704700BF3A090020D2
:1018A80008B5002000F09AFB064A0748136890F82C
:1018B80029100133136009B9002008BD06F054F857
:1018C800002008BD301C002024040020F8B5044680
:1018D80098B1214E306800F0CDFF01461F4D04EB52
:1018E800840305EBC305CA43284692B2FFF7B8FD47
:1018F8002846FFF747FED8B9F8BD1948164E02F03A
:10190800A3F90146174806F0BDF90746306800F00C
:10191800B1FF0546144802F097F90146134807F04D
:1019280017FA074307F00E0745EA070189B2D5E71A
:1019380056F8240000F052FF0D4890F8293023B9DA
:101948002046BDE8F84000F0F5B806F0CBF8204690
:10195800BDE8F84000F0EEB828090020000000209B
:10196800BC030020A0030020900300207403002083
:101978002404002008B5064B1B78012B00D008BDB5
:101988000020FFF7A3FFBDE8084002F025BA00BF1A
:10199800380900201E4B1B78CBB170B51D4C23882D
:1019A800B3B1013B9BB21C4A238013889BB21BB185
:1019B8001388013B9BB21380184A13889BB21BB152
:1019C8001388013B9BB21380FFF7D4FF70BD7047AB
:1019D800134D00F07DF9FFF723FD294651F80C0B54
:1019E80083689847686030B129460A2251F8080B85
:1019F8000368984708B90123D5E7284600F058FC42
:101A08002868EA894668A9680A23B047F3E700BF4F
:101A1800380900203E0900203C0900203A0900202E
:101A28005004002008B5002000F084F8BDE8084004
:101A3800024800228021FFF713BD00BF00000020EC
:101A480008B5FFF7E3FC18B9BDE80840FFF7D2BCBA
:101A5800BDE80840FFF7D4BCF0B42F4A2F493048FE
:101A680004258CB0D161D561D161D3690B9302266D
:101A78000B9BD061D661D061D3690A930A9B4FF45E
:101A880080444FF4A033D361D461D361D4690994FD
:101A98004FF09043099C01274FF00114DC61DF618E
:101AA800DC61D3F81CC0CDF820C0DDF820C0D461BB
:101AB800D761D461D2690792079A1A4ADA618024F9
:101AC800DC61DA61DA690692069AD861DE61D8616A
:101AD800DA6905920820144A059CDA61D861DA614E
:101AE800DA690492049AD961DD61D961DA690392ED
:101AF80040210E4A0398DA61D961DA61DA69029203
:101B080020210B4A0298DA61D961DA61DB69019315
:101B1800019B0CB0F0BC70470004004804000100B1
:101B280002000100800001000800010040000100DF
:101B38002000010038B52623164900FB03F30024D2
:101B4800CC50054603F10802581810330A440B44D8
:101B58001149446051F82500546094602146C3F847
:101B68000640C3F80A40C3F80E4006F0C9F80B4B0C
:101B7800214653F8250006F0C3F8094B53F8250011
:101B880007F0CCFA074B53F82500BDE8384000F0C1
:101B980025BE00BF00090020300000202C000020D6
:101BA8003400002028090020F0B5274C274E28488B
:101BB800284F294D85B0206006F080FC00F05AFCC3
:101BC800304606F089F8384607F032FD28683A466C
:101BD800314607F08BFA20682968204B204A00908C
:101BE8002048214C07F074F9204806F075F8204881
:101BF80006F072F81F4B204A1B682048C3E90242CE
:101C08001F4B186007F0D2F80020FFF793FF01235D
:101C1800286884F8243007F013FBC0F30F4203460A
:101C280028686282238207F00BFBC0F30F43286801
:101C3800A38207F001FB01461248002205B0BDE867
:101C4800F040FFF7EFBB00BF280900203803002051
:101C5800900100206800002034000020540000207B
:101C6800CC03002034020020000900200C030020CF
:101C7800E002002028000020740300203C0000201F
:101C8800FC08002000000020704700BFF8B5064699
:101C980072B60D4D262404FB0054B4F91000B4F9B3
:101CA800127062B694F824303BB172B6262303FB57
:101CB800065528826F8262B6F8BD044B53F8260099
:101CC80007F084FAE083F0E70009002034000020E0
:101CD800F0B583B000236946B648ADF8003007F088
:101CE800AFFBB54BB54C0546186806F07DF82046A5
:101CF800FFF702FC18B10A23E37703B0F0BD2046D2
:101D0800FFF7F8FB70BBE37F132BF6D801A252F85C
:101D180023F000BFE91E0008031D0008031D00088A
:101D2800031D00085B1E0008031D0008371E00087D
:101D3800031D0008171E0008031D00086D1D00087C
:101D4800091E0008031D0008031D0008031D0008E4
:101D5800031D0008C71D0008951D0008031D000885
:101D6800751D00080B23E37703B0F0BDA37F052B97
:101D780000F0CE80924807F033F90246002840F080
:101D8800DF808E481021FFF76BFBB6E7A37F8D4DF0
:101D9800052B286800F0BE80012100F023FD0028F3
:101DA800ABD0A37F032B00F0FF802868002106F04A
:101DB800E9FA1420FFF754FD1023E3779DE7A37F8A
:101DC800052B00F0A580FFF751FD002895D07D4D2B
:101DD800286806F017FA7C497C4B08687C49012280
:101DE80083F8242007F098F9724807F0FBFB0020DD
:101DF800FFF7A0FE04232868E37700F0F1FC7CE7F6
:101E0800A37F022B7FF479AF0023E38375E7FFF705
:101E18003DFD00283FF471AF6B4B6D49186807F022
:101E28007BF96B4807F0E0FC0023E38365E7A37FB9
:101E3800052B6DD06148FFF71FFB0020FFF726FF39
:101E4800002D7FF45AAF5D482A462021FFF708FB92
:101E580053E7A37F052B5BD0594807F0C1F802462A
:101E6800002863D155481021FFF7FAFA58480DF1B8
:101E7800020107F01DFD524807F0EAF800283FF478
:101E88003CAF4C4E0DF10201304607F00BFC054605
:101E98004A48FFF781FB41B2304607F0A1FC4C48A5
:101EA800294607F093FD002D3FF427AF474FB6F9B9
:101EB80004107868474DFFF72DFC0190286806F05C
:101EC80075FFB7F910102868002206F0BBFFBDF9AE
:101ED80004102868002206F0B5FF1323E3770CE707
:101EE800A57F05F0FD05012D7FF407AF3348354E7A
:101EF800FFF752FB0146324807F026F8306890F8A1
:101F08007F10002948D100F06DFC1123E377F4E637
:101F18002C4B186806F076F90020FFF70BFE4FF4FB
:101F28004870FFF7ADFC0823E377E6E6264B186810
:101F380007F04CF9254BB3F9142018825A8295E71B
:101F4800234801A907F0B4FC0546214807F04CFDD9
:101F580015B900283FF4D1AE1C4B1F48B3F91050F7
:101F680005F0D8FE01B205FB01F1174D1A4805F03E
:101F7800C7FE1049286807F0CFF80020FFF784FE55
:101F88000020FFF783FE286807F060F90B48FFF789
:101F980073FA0623E377B0E62946A0F8605000F00C
:101FA80021FC3068002102E70020FFF7C3FD002371
:101FB800E383A2E66800002028000020000000203B
:101FC80034020020280900203400002000090020E5
:101FD800CC030020FC080020380300202DE9F04342
:101FE8004C4F4D4CFB7F89B00546132BD4F81A0093
:101FF800059000F08380494BDFF844811B68D8F8CE
:1020080000005B6902A9B3F904600368984701F00E
:102018005BFF01F015FF0298FFF742FB3146039082
:10202800FFF778FBB4F91030009001B2591A3C4B15
:10203800186805F099FEBDF90230B4F91210C91AF2
:10204800384B8146186805F08FFEADF80490ADF85E
:1020580006000199344805F059FC31468146FFF7DE
:102068009BFB0146D8F80000049100F06FFA014686
:1020780002982060039860600098E0600129049845
:10208800C4F816902684C4F81A002FD02748284E82
:1020980006F0DEFF274A03466068D288069005A945
:1020A80030461C46ADF81C2007F0D8F8304607F03B
:1020B8006DFA44B1FB7F042B0DD0132B0BD02846AF
:1020C80009B0BDE8F083214606F1340005F018FE9A
:1020D800FB7F042BF1D1B3881748ADF8103004A961
:1020E80007F094FB284609B0BDE8F08309480022B0
:1020F800FFF7B6F9284609B0BDE8F0830F4E3068FF
:1021080006F07EFE00287FF476AF306806F056FEB3
:10211800208270E700000020000900203400002021
:10212800300000202C00002038000020340200205D
:102138006800002074030020CC030020FC08002065
:10214800280900202DE9F04F89B08568334B0693A4
:102158004FF00008324B4468B0F90C20ADF81680F7
:102168000646A0F80E806F18CDF80C800793C5F1CD
:102178000109A2F1020A002A0FFA8AFE0DF11603DC
:102188001FFA8AFA36DD34F802CB0DF120082CF05C
:1021980007000CF0070B1CF0060F224680B20CF06B
:1021A800380108EB8B0B2DD15BF808BCCDF800E0AB
:1021B800D847BDF8161005EB0903DBB2AAEB0102FC
:1021C800012B12B20C4412D0BD4221D005F8010BEC
:1021D800F3890133F3810028CBD0072812D00123DB
:1021E8000A280393C5D1039809B0BDE8F08F002AE7
:1021F800EAD10390039B002BF5D10398F38109B032
:10220800BDE8F08F01230393039809B0BDE8F08F70
:1022180008230393039809B0BDE8F08FB528000898
:10222800B52900082DE9F04786B00023ADF80E3037
:10223800C381B0F80C801C4B04931C4BD0F804905D
:1022480086680593B8F1000F29D007460CB24D46B1
:1022580012E05EF808AC0094D047A8EB050319FA21
:1022680083F39BB2E0B9BDF80E10FA89641A0A44E8
:102278000E44FA8124B29BB135F802CB0DF1180A4D
:102288002CF007000CF0070E1CF0060F0DF10E03E2
:10229800324680B20CF038010AEB8E0ED9D00120FC
:1022A80006B0BDE8F08700BFB92F0008ED30000880
:1022B800F0B504464668226836F8023B8089928960
:1022C80003F47F45013A023823F0070CB5F5807F07
:1022D80091B283B080B21FFA8CFC12B239D0013BA4
:1022E800534FA08103F0070303EB83030025BCF1E0
:1022F800380F666007EBC307E58135D8BCF1380FA6
:102308001ED8DFE80CF06C1D1D1D1D1D1D1D741D44
:102318001D1D1D1D1D1D591D1D1D1D1D1D1D4B1D7B
:102328001D1D1D1D1D1D531D1D1D1D1D1D1D5E1D5E
:102338001D1D1D1D1D1D471D1D1D1D1D1D1D66006F
:1023480000230220A268D054E3890133E38103B05B
:10235800F0BDCCF3C40C0023BCF1010FA081666072
:10236800E38151D90D20EDE7BCF1680F09D043D8BE
:10237800BCF1480FE4D13846FFF788F9E3892846CD
:10238800E0E7A3680093314604F10E03FFF744F831
:10239800E389D7E73846FFF7ABF838B93846FFF78F
:1023A800ADF880F00100E389C0B2CBE73846FFF70B
:1023B800BBF8E3890020C5E72046FFF733FFE38930
:1023C800C0E73846FFF794F8062829D0E3890020AB
:1023D800B8E73846FFF7C4F8E3890020B2E7A368F6
:1023E80004210122E1811A70E3890020AAE720462E
:1023F800FFF7A8FEE389A5E7BCF1780FA0D103F0A9
:1024080015FAE38928469DE70A4B53F82C506DB11D
:10241800A3680093314604F10E03A847E38991E7C6
:102428003846FFF7E5F8E38900208BE72B4699E764
:10243800000000204009002008B504F0EFF90A4B1D
:10244800A3FB0030C00903F003FA084B0022196807
:102458004FF0FF3003F0A0F90548FFF7CBF9BDE8CE
:102468000840FFF7F9BA00BFD34D6210F40400200A
:10247800CC1B00202249234A8B6810B423F4401354
:1024880023F0700343F0100383B08B608B6823F450
:10249800803323F0070343F006038B60936DDB075B
:1024A80016D4936D43F001039365936D4FF080410B
:1024B80003F001030193019B4B6943F001034B6156
:1024C800936D23F00103936503B05DF8044B7047E7
:1024D8004FF080430C485A6859680C4C014041F051
:1024E80020015960596941F0010159615968224038
:1024F80001400A435A6003B05DF8044B704700BFBF
:10250800002C0140001002408FFFFFFD7000000208
:10251800013270B552086FF00206550106610022BB
:1025280093F800C0BCF10F0F02F1010E0CD804693A
:10253800A407F5D51FFA8EF295420661F0D81C78EB
:102548000F2CEDD801230B8070BD00BF30B5B0F85B
:102558007040B0F84E204FEA214C0BB204FB0CFC43
:10256800CCEBCC7C02FB03F303EB4C02C3EB4C0338
:1025780002EBD27E03EBD371551C83B04FEA94046F
:102588004FEA4C0C4FEA6E0E4FEA61016BDB5D1CA3
:102598003DDBBEEB010E44BF0EF57F3E0EF2FF3E63
:1025A800002BBCBF03F57F3303F2FF33002AB8BF0B
:1025B80002F57F3290F8851004EBAE4E4FF001051E
:1025C800B8BF02F2FF3280F87A500EEBA343AEEBAD
:1025D800A24200296ED11FFA83FC1FFA8EF491B231
:1025E800A0F85C104169A0F858C02EEAEE7E23EAF4
:1025F800E37322EAE272A0F85A40A0F850E0A0F88B
:102608005230A0F8542003B0BDE830400847BCF170
:10261800000F7BDD002BB8BF03F57F33ACEB010166
:10262800B8BF03F2FF33BCF1000F04EBA14EB8BFF3
:102638000CF5FF3C90F87D104FF000020EEBA34321
:10264800B8BF0CF2FF1C80F87A20A3EB6C4200297B
:1026580040F0AE8090F88540002C00F0B9804FF033
:10266800020C0124BCE7B3F1FF3F90F8855070DB02
:10267800BCF1000F23DDBEEB0C0E44BF0EF57F3E10
:102688000EF2FF3E002AB8BF02F57F3204EBAE4ED1
:10269800B8BF02F2FF320223AEEBA24280F87A30D2
:1026A80002EB6C43002D7ED11FFA83FC94B21FFA13
:1026B8008EF195E74FF0020C0024012190E7BCEB66
:1026C800010144BF01F57F3101F2FF31002BB8BF92
:1026D80003F57F334FF00302B8BF03F2FF3380F8EE
:1026E8007A20BCF10002B8BF02F5FF3204EBA14E1C
:1026F8000EEBA343B8BF02F2FF12A3EB6242002D18
:1027080060D04FF0000C0124022169E7002AB8BF0D
:1027180002F57F324FF00503B8BF02F2FF32AEEB8D
:102728000C0E80F87A30BCF10003B8BF03F5FF3314
:1027380004EBAE4E90F88510AEEBA242B8BF03F2A0
:10274800FF1302EB6343C1B34FF0010C02240021D5
:1027580046E7BEEB010E44BF0EF57F3E0EF2FF3E8C
:10276800002BBCBF03F57F3303F2FF33002AB8BF49
:1027780002F57F3204EBAE4E4FF0040CB8BF02F204
:10278800FF3280F87AC00EEBA343AEEBA2422DB91C
:102798001FFA82FC1FFA8EF499B221E74FF0010C60
:1027A800002402211CE74FF0000C0224012117E746
:1027B8004FF0020C0124002112E71FFA8EFC94B29C
:1027C80099B20DE71FFA82FC9CB21FFA8EF107E757
:1027D8001FFA8EFC9CB291B202E700BF436818470B
:1027E8008368184710B5044679B1012901D0002043
:1027F80010BDB0F860306BB1013B9BB2A0F86030FF
:10280800002BF4D1C368984704E0FFF7E7FFE368BB
:1028180020469847012010BD90F883301BB990F8E6
:102828007B30022B04D0012380F880307830704749
:10283800D0E90F2110B4436CB0F848409462B0F866
:102848004A40B0F84C208C629A62012380F88030AC
:102858005DF8044B783070474A6C03464FF0010C22
:1028680042F480624A64783083F881C083F883C078
:10287800704700BF034690F88100A8B1002283F892
:1028880081204221022093F880201AB1002283F887
:102898008020084693F882202AB140F48060002204
:1028A80080B283F8822070474021ECE710B40839E1
:1028B800BDF904C0202912D8DFE801F01711111161
:1028C8001111111121111111111111112F111111C2
:1028D8001111111139111111111111114D0000228D
:1028E8001A8007205DF8044B704748284FF0010212
:1028F80014BF052004205DF8044B1A807047B0F51A
:10290800656F39D042D9B0F5696F35D041F6583284
:10291800904214BF052004202FE018284FF004022D
:1029280014BF052010465DF8044B1A80704701213A
:10293800198092F9000028B31FFA8CF003E019807F
:1029480012F9014FF4B101F1010C81421FFA8CF127
:10295800F5D30420C6E71288023292B21FFA8CFC23
:1029680062451A801AD8A828F3D01BD820F0400056
:102978002828EED00520B5E7002002225DF8044B98
:102988001A807047002313700420ABE720F0400042
:10299800B0F5B26F14BF05200420EEE700221A80BC
:1029A8000A209FE7E828E5D1D3E700BF30B583B018
:1029B8000839BDF918E094461C46202912D8DFE8EA
:1029C80001F0161111111111111123111111111109
:1029D8001111561111111111111144111111111167
:1029E8001111630000232380072003B030BD88281D
:1029F80000F0968020F0800048280CBF04200520B5
:102A08000123238003B030BDB0F5196F158800F09D
:102A180031825CD8B0F5347F00F0278200F2B980AB
:102A2800B0F5C87F00F0358200F21181D02800F09F
:102A3800F981B0F5887F00F0F081902840F052824B
:102A4800B74829B205F050F961E0012222809CF9CB
:102A58000030002B36D01FFA8EF303E022801CF9D9
:102A6800011F79B3511C93428AB2F7D82DE09828F8
:102A780066D05DD820F04000182814BF0520042037
:102A88000423238003B030BD11888A1C92B21FFA38
:102A98008EF39A4222803FD8B0F50A7F00F0E88092
:102AA80000F2A880B0F5D47F00F08A8000F2B280EE
:102AB800A8280AD000F2938120F04000282804D0EA
:102AC800052092E700238CF8003004208DE741F2BE
:102AD8009053984200F0C48140D941F6D0039842FF
:102AE80000F0FB8100F2A28041F21063984200F0EE
:102AF8008F8141F25063984200F0858141F2D053B2
:102B0800984240F0EF818748294605F0FDF80020FB
:102B18000223238003B030BD002323800A2064E70A
:102B28001378042B5DD0032B00F04081002067E769
:102B3800D82854D0B0F58C7F14BF052004209FE717
:102B4800B2F900307849794881FB0321A1EBE371A0
:102B5800002209B2FEF766FC002091E741F290439B
:102B6800984200F06E8140F2F28041F21053984290
:102B780000F0628141F25053984200F0588141F2CE
:102B8800D043984240F0AE816548294605F0E6F802
:102B9800BDE7B0F58A6F00F09B8100F2F980B0F5CF
:102BA800547F00F08881B0F5647F00F07781B0F53C
:102BB800447F40F097815E4829B205F0C7F8A6E740
:102BC800DCF80210584BBCF8062083FB0103A3EB8A
:102BD800E171564809B2FEF725FC002005E70420FC
:102BE8004EE75248FEF74EFD002201464F48FEF7D9
:102BF80023FC9BE7B0F55A7F00F0A280B0F5A56FE3
:102C08007FF45EAF4B480CF1020103B0BDE83040E1
:102C180004F096BFB0F5F47F7FF452AFBCF80620FD
:102C2800BCF902104148FEF707FCD6E741F65053BD
:102C3800984200F02B8100F2D68041F6101398429A
:102C480040F07C813C48294605F05EF85FE7B0F526
:102C5800047F00F00081B0F5247F00F0F780B0F524
:102C6800E87F40F03F812F4829B205F03FF84EE752
:102C78004B077FF453AFC9B22F293FF64FAFC908AE
:102C8800ABD0BCF90230284ABCF8085082FB03409C
:102C9800A0EBE370294BBCF906401C8201299D81F9
:102CA800D8819AD0BCF90A40BCF90E5082FB04E0E6
:102CB800A0EBE4700229BCF810401C839D83588364
:102CC8008BD0BCF91240BCF9165082FB04E0A0EB93
:102CD800E4700329BCF818409C841D85D8843FF40F
:102CE8007CAFBCF91A40BCF91E5082FB04E0A0EB93
:102CF800E4700529BCF820401C869D8658867FF420
:102D08006CAFBCF92210BCF9260082FB0142A2EB91
:102D1800E172BCF828409C87A3F84000DA875CE79A
:102D2800380300200C030020ABAAAA2A00000020C8
:102D3800E0020020240400209C000020340200202F
:102D4800DCF8021092480191FEF780FB45E7B0F5E8
:102D5800696F3FF4DCAE4DD8B0F5656F3FF4D7AE80
:102D680000F2C080B0F5396F00F0BE8000F2D98063
:102D7800B0F5256F00F0B88000F2EF80B0F51D6F58
:102D880000F0B280B0F5216F14BF05200420BFE623
:102D9800B0F5016F00F0A88011D8B0F5926F40F03F
:102DA800B3807C4829B204F09FFFB0E67848FEF76C
:102DB80029FC002201467648FEF734FBB6E6B0F55A
:102DC800156F40F093807248FEF73EFC034601936E
:102DD800ADF804506E480199FEF738FB97E6E828ED
:102DE8003FF473AE6CE641F6D05398427AD16A4B01
:102DF8001D808CE641F25043984273D167482946BA
:102E080004F082FF83E66648294604F0A7FF7EE6C1
:102E18006348294604F086FF79E6604829B204F041
:102E280095FF74E65D4829B204F060FF6FE65D48DF
:102E3800294604F077FF6AE65A48294604F064FFF9
:102E480065E65648294604F06DFF60E6554829B204
:102E580004F04AFF5BE6524829B204F077FF56E6D1
:102E68005048294604F07AFF51E64E4829B204F04A
:102E78003DFF4CE64648FEF7E7FB03460193ADF8F5
:102E8800065043480199FEF7E1FA40E6464B1D809B
:102E98003DE6434829B204F027FF38E601AA0DF1C0
:102EA8000201424806F07AFC4048BDF902102AB2F5
:102EB80006F07CFC2BE601AA0DF102013B4806F066
:102EC8006DFC3A48BDF9042029B206F06FFC1EE6F5
:102ED800304829B204F00AFF19E62E48294604F0C2
:102EE80021FF14E6052013E6042011E6FAD8B0F510
:102EF8000D6FF9D040D8B0F5056FF5D0B0F5096F72
:102F080014BF0520042003E6ECD3B0F5F26FEBD034
:102F18002CD820F04000B0F5B26F14BF0520042073
:102F2800F6E5B0F5456FDFD02CD8B0F53D6FDBD0B6
:102F3800B0F5416F14BF05200420E9E541F60F13F1
:102F48009842CFD941F690239842CDD041F65833D4
:102F5800984214BF05200420DAE5B0F5296FC3D0E4
:102F6800B0F5356F14BF05200420D1E5B0F5FA6F30
:102F780014BF05200420CBE5B0F5116F14BF052060
:102F88000420C5E5B0F5496F14BF05200420BFE54E
:102F9800000000209C000020F408002038030020D6
:102FA8000C030020E0020020F80800206800002040
:102FB80010B5A1F1080CBDF908E0BCF1200F12D83A
:102FC800DFE80CF01B11111111111111271111114A
:102FD80011111111221111111111111135111111A4
:102FE800111111111300072010BD282829D01288AB
:102FF8000232052092B21A8010BDBEF1000F1EDD0C
:1030080001221A80052010BDBEF1030F15DD042230
:10301800F7E7BEF1010F10DDB0F5656F5AD0B0F5D6
:10302800696F14BF0520002002221A8010BD2028D5
:103038002CD060280FD00022E3E7082010BD0846F6
:1030480010BD1FFA8EFE0A21BEF10B0F118035D874
:103058000C220820CFE7204C94F9000001211980A8
:1030680080B11FFA8EFEA44608E002F8010B198809
:10307800013189B219801CF9010F18B17145F4D3D7
:10308800062010BD00231370002010BD134C94F9C6
:103098000000012119800028F4D01FFA8EFEA446F2
:1030A80009E002F8010B1988013189B219801CF96D
:1030B800010F0028E6D08E45F3D8E1E708494868B3
:1030C8000C680989C2F80600C2F802405181002044
:1030D8000C2290E70020A7E7209C0008FC9B000832
:1030E800F09B000830B595B01D46A1F10803BDF965
:1030F80060C01446202B12D8DFE803F031111111FB
:10310800111111116A111111111111114711111118
:103118001111111161111111111111111400072050
:1031280015B030BDB0F5D47F00F0D4817ED8E82842
:1031380004F1020300F0EA8100F22181682800F01E
:10314800DA81A82840F0AE811FFA8CFC1022BCF16D
:10315800110F228000F24B821223082082E0BCF17A
:10316800000F40F37481882800F09881C82800F087
:103178009181482840F0CD80B648FEF7B9F9207013
:10318800002001232B8015B030BDBCF1030F4ADDB0
:10319800D82800F0C58100F26D81582800F04F81D1
:1031A800982800F0C481182840F0BF81A948FEF78C
:1031B800E9F92060002004232B8015B030BDA02839
:1031C80000F08F80E0286FD000232B800520A7E730
:1031D800BCF1010F27DDB0F51D6F00F01D8344D849
:1031E800B0F58A6F00F0138340F29580B0F5056F53
:1031F80000F0178300F2BB81B0F5BA6F00F093823C
:1032080000F25E82B0F5926F00F03483B0F5B26FD1
:1032180040F03C82904804F073FB20800020022399
:103228002B8015B030BD082015B030BDB0F50A7F31
:1032380000F0BD80B0F55A7F00F03981B0F5F47F19
:1032480040F03081042323808248FEF7CBF90346FF
:1032580063808048FEF7CAF92388024602330020BB
:10326800A2809BB22B8015B030BD41F290439842AA
:1032780000F0C18266D8B0F53D6F00F0008300F21F
:103288006381B0F5296F00F0EE8200F2E681B0F5B7
:10329800216F00F0B582B0F5256F40F0F7816D48D9
:1032A800FEF7E6F92080B9E76C4B1A6801232B80FA
:1032B80002F1240192F924207AB11FFA8CFC08E06B
:1032C80004F8012B2B8801339BB22B8011F9012FB5
:1032D8001AB19C45F4D8062022E700232370002069
:1032E8001EE75F4A012311682B8091F90020002A0C
:1032F800F3D01FFA8CFC09E004F8012B2B8801336A
:103308009BB22B8011F9012F002AE6D09C45F3D8F7
:10331800E1E7052035E7B0F5047F00F0508200F2C0
:103328003981B0F5887F00F02C8200F2BE819028A8
:1033380000F08F82D02840F0A9814A4804F0DCFCD4
:1033480020806BE741F21063984200F0248200F27B
:10335800338141F25053984200F00E8200F2988176
:1033680041F2D043984200F0798241F210539842DA
:1033780040F08C813C4804F0C5FC20804EE7B0F555
:10338800947F40F08F801FFA8CFC0C22BCF10D0F4B
:10339800228040F22981354A506814689168D268C1
:1033A800DA6058601C60996000200E235AE71FFA03
:1033B8008CFC2823BCF1290F238040F212812C4B6E
:1033C800B3F90E20B3F910009989218102EB42026A
:1033D800E0805200B3F91C00C4F80220B3F91A20A7
:1033E800198B218202EB4202E0815200B3F92800D6
:1033F800C4F80A20B3F92620998C218302EB4202F3
:10340800E0825200B3F93400C4F81220B3F9322034
:10341800198E218402EB4202E0835200B3F9400086
:10342800C4F81A20B3F93E20998F218502EB420295
:103438005200E084C4F822202A23002012E705481D
:10344800FEF7DCF800EB400040002060B2E60846DA
:1034580066E600BF00000020740300200804002076
:103468001004002038030020E0020020140400208B
:1034780034020020B0F58C7F61D041F65833984271
:1034880053D1B04B186804F0CBFC8DED010A019BB9
:1034980023608FE6AC4B93F8480070E6AB48FEF724
:1034A80077F86CE62388023305209BB2DAE604231A
:1034B8002380A648FEF7C8F803466380A348129302
:1034C800FEF7C2F82388C0F30F400233A0809BB2F6
:1034D8000020C7E69D48FEF781F800EB4000430056
:1034E800C4F802309948FEF781F80623E08023806B
:1034F80000200823B6E61FFA8CFC3C22BCF13D0FE5
:10350800228000F28E803E230820ABE61FFA8CFC56
:103518000E22BCF10F0F228076D810230820A1E6D6
:103528008B4BD3F80031236044E6052043E68748F7
:10353800FEF768F800EB4000400020603AE6844B54
:10354800D3F8FC30236035E6B0F5496F00F075819B
:1035580000F28F80B0F5416F00F06881B0F5456FDB
:1035680040F094807A4806F003F9208056E6B0F5DA
:10357800116F00F0308100F2C080B0F5096F00F0E3
:103588002381B0F50D6F40F081807048FEF752F846
:10359800208043E6B0F5447F00F0078100F29D806B
:1035A800B0F5247F00F0FC80B0F5347F6ED1694817
:1035B80004F0A2FB208031E641F61013984200F097
:1035C800688100F2A88041F25063984200F05C8163
:1035D80041F6D003984259D15F4804F09DFB208002
:1035E8001CE62A2308203DE60E2308203AE65B4A1B
:1035F8001268506814689168D268DA6058601C6074
:103608009960002012232DE6554A12681068516807
:1036180094689C601860596092899A8100201023F0
:1036280020E6504A126802F1300E1468506891681A
:10363800D2F80CC0C3F80CC0103272451C60586038
:10364800996003F11003F0D11068516892689A608C
:103658001860596000203E2304E6B0F5356F00F08D
:10366800F380B0F5396F11D1394805F035FD208068
:10367800D4E541F2504398425FD007D8B0F5656F62
:103688003FF4CCADB0F5696F3FF4C8AD0520C6E591
:1036980041F29053984279D041F2D0539842F5D1F3
:1036A800314804F02FFB2080B8E5B0F5C87F3FD043
:1036B800B0F5E87FEAD12C4804F01EFB2080ADE588
:1036C800B0F5FA6F76D0B0F5016FDFD11F48FDF77E
:1036D8009DFFC0F30F432380A0E5B0F5547F00F0B1
:1036E8008180B0F5647FD1D1194813AA12A906F0D8
:1036F80055F8BDF84C30238090E5B0F5156F00F013
:10370800CD80B0F5196FC1D11048FDF79DFFC0F30A
:103718000F43238082E541F690539842B6D1134B6C
:103728001B8823807AE5124804F0C4FA208075E5E6
:103738000D4804F0DDFA208070E50E4804F0E2FA46
:1037480020806BE5280000203402002000000020C3
:1037580068000020E00200209C00002004040020F3
:103768000C040020080400200C030020F6080020A8
:10377800A0030020380300204B4804F0CDFA208035
:103788004CE54A4804F0E4FA208047E5464804F04E
:10379800E3FA208042E5464804F0BEFA20803DE581
:1037A800414804F0A5FA208038E53F4804F0D0FAF3
:1037B800208033E53F48FDF729FF20802EE53C486F
:1037C80004F0C6FA208029E53A48FDF729FFC0F33E
:1037D8000F43238022E53748FDF72CFFC0F30F4342
:1037E80023801BE5344813AA12A905F0D7FFBDF8BA
:1037F8004830238012E52D4804F08EFA20800DE52C
:103808002C48FDF72BFFC0F30F43238006E52B4818
:1038180004F072FA208001E52648FDF71FFF20809A
:10382800FCE42448FDF7FCFE2080F7E4224805F07C
:10383800A3FFC0F30F432380F0E41F4805F098FF6F
:10384800C0F30F432380E9E41B4BB3F90430238012
:10385800E4E4164804F04CFA2080DFE4134804F04E
:103868007BFA2080DAE41348FDF702FFC0F30F4328
:103878002380D3E4114804F03BFA2080CEE40E48BC
:1038880005F07AFF2080C9E4094804F065FA208031
:10389800C4E40A4804F036FA2080BFE40548FDF77E
:1038A800D3FE2080BAE400BFE002002038030020E5
:1038B8000C03002000000020680000209C0000206D
:1038C80000F038000838C0B210289ABF014B185CC5
:1038D80000207047409D000800F03803102B03D0EB
:1038E800424B05200B60704720F00700B0F51D6FB4
:1038F80082B268D012D8B2F50D6F5FD020D8B2F579
:10390800056F65D04DD8B2F5FA6F3BD0B2F5016FAF
:10391800E6D1374B5B6800200233E3E7B2F5356F39
:1039280034D01BD8B2F5256F43D0B2F5296F24D017
:10393800B2F5216FD4D12E4B5B6800201833D1E744
:10394800B2F5156F4CD0B2F5196F22D0B2F5116FE0
:10395800C6D1274B5B6800200E33C3E7B2F5456F2D
:103968003BD0B2F5496F19D02248204BB2F5396FD8
:103978000ABF034605200020B4E71D4B5B68002002
:103988001C33AFE71A4B00205B68ABE71A4B0020EB
:10399800A8E7174B5B6800201233A3E7174B0020FA
:1039A800A0E7B2F5096F9BD1114B5B680020063385
:1039B80098E70F4B5B6800201A3393E70C4B5B6862
:1039C80000200C338EE70A4B5B680020163389E72A
:1039D800074B5B680020043384E7094B002081E72C
:1039E800034B5B68002010337CE700BFD01B00202E
:1039F80000000020740000206C000020DA00002085
:103A0800D800002070B58C4C2268002A33D090F87A
:103A180004C0137963451ED06168002900F0D38083
:103A28000B79634536D0A568002D00F0AD80FF22E4
:103A38002B79634500F0B880E568002D00F0BC8064
:103A48002B79634500F0CE80032A98BF036836D9E6
:103A5800FF22027370BD03681268934231D0616817
:103A6800002900F0DA800A79624500F0CB80A56869
:103A7800002DDCD189E06168002900F0A88090F869
:103A880004C00B79634506D0A568002DD0D1036822
:103A98002A460BE0FF2203680968994200F0A880D3
:103AA800A568002DC4D1042A6FD82A46E16831B12F
:103AB8000D79654503D10968994200F08180114666
:103AC80001E0002211465D4D44F821000024A6467D
:103AD80045F831409C6862F3070EE60762F30F2E43
:103AE80022D45C6824F004045C6004241C605C68D4
:103AF80024F020045C6020241C609C6824F040446E
:103B080024F03F0444F000449C609C68002CFCDBDB
:103B18001C68E50708D44A4D9C682C4044F0010411
:103B28009C601C68E407F7D5464D01EB41014C0049
:103B38002E1D012126F804E04FF0000E05F804E0E0
:103B48001C6B01FA0CF124F00F04BCF1090F1C6383
:103B580041EA8C610CEB4C041FD841EA0451CD0DAD
:103B680005F00405143386685C59C1F304514FF01D
:103B7800070E06FA01FC0EFA01F124EA010141EAF6
:103B88000C015951027370BD0368E26812B11179D2
:103B980061453ED00222114695E71E3C41EA045198
:103BA80041F00071DBE70A460368296899427FF40F
:103BB80043AF0222114686E7042A03687FF67FAFE7
:103BC800032211467FE7A568CDB1012230E7A56839
:103BD800D5B190F804C02B796345E4D0E56855B1B8
:103BE8000A462DE72968036899427FF42DAFE7E775
:103BF8000122114667E72A460368114663E703680E
:103C0800012253E7FF2247E790F804C003682A46D9
:103C18004CE712689A42D3D0BCE7A568002DEFD0D4
:103C28002A79624506D0E5680122002D7FF408AFA5
:103C3800114648E70122B8E7181C0020F81B0020AD
:103C4800C0FFFF7FE01B002030B5037B5E4A03EB1B
:103C580043014FEA430C12F81100002838D11178BB
:103C680091B904209179002975D1117B002977D168
:103C7800917C002900F09A80D17D994240F2A08081
:103C88004FF0030E704603E051798B42EAD2864624
:103C98000CEB030402EB440400EB4000617101EB00
:103CA800410184F804E002EB4101484C0B7102EB3E
:103CB8004000217843710CEB0300012501EB410121
:103CC80022F8105002EB41014978A94218BF23702D
:103CD8003F4991F8A010002938D13E4951F82310E6
:103CE8000C7908680121092C04EB440501FA04F158
:103CF80041EA846184BF1E3D41EA0551046B94BFCB
:103D080041EA055141F00071090D01F4F86124F40C
:103D1800F86421430163016C816821F0004121F0BE
:103D28003F0141F00401816001684907FCD50CEBB3
:103D3800030102EB4101006C244D91F805E085F880
:103D480000E020F00F00022448804C709C4402EBF5
:103D58004C02508830BDD17A8B421DD3117BF9B10A
:103D6800517C994228D8917C002985D102210846A6
:103D780000EB40000CEB030402EB440402EB4000B0
:103D880021714179617101EB410102EB41010F4C55
:103D98000B71437121788EE74FF0010E704677E77B
:103DA800917C00297FF468AF0121E0E70028DED08C
:103DB800064C194623707EE74FF0020E704667E7FF
:103DC80003200146D4E700BFE01B0020DC1B0020D5
:103DD80090010020181C0020144B2DE9F0411C68AC
:103DE80024B1134D267B2B78012B01D0BDE8F0813F
:103DF8002046FFF729FF0F4B18800F4B06EB4602B2
:103E080003EB420301465B780BB102232B700B4B8B
:103E180053F83670002FE9D003EBC60320465A68E2
:103E280000232B703B46BDE8F0411847D41B002007
:103E3800D81B0020DA1B0020E01B0020F81B002004
:103E48001E4B1F491A7802EB420311F81330A3B333
:103E58001C4B10B553F8223018680424046093F8FA
:103E680004C001230CEB4C04BCF1090F03FA0CF35A
:103E780043EA8C6384BF1E3C43EA04534FEA420E74
:103E880098BF43EA0453964488BF43F00073026B1B
:103E98001B0D03F4F86322F4F86213430363036C05
:103EA800836823F0004301EB4E0123F03F03012414
:103EB80043F0040383604C7010BD7047DC1B002086
:103EC800E01B0020181C002030B41248124A037866
:103ED80003EB430112F8114002EB41016CB10F4CA6
:103EE80054F82340246825686D074FEA430C06D42C
:103EF8009C4402EB4C025379037030BC70474D78F8
:103F080015F0FD0FF4D0246C24F00F044C8002242B
:103F18004C70EDE7DC1B0020E01B0020181C002083
:103F2800444BDA69520610B509D543494348CA6972
:103F3800402422F00102CA611C62FCF785FC3D4B5B
:103F4800D869DA69D9699B684C076AD5D8071ED53C
:103F5800384B0E221A624FF0402202F5816353E873
:103F6800003F23F0010302F5816040E80031002999
:103F7800F3D14FF0402202F5806353E8003F43F04D
:103F8800100302F5806040E800310029F3D1294B85
:103F9800DA691B68D20643D5DB0641D54FF04022CB
:103FA80002F5806353E8003F23F0100302F58060B8
:103FB80040E800310029F3D14FF0402202F5816337
:103FC80053E8003F43F0010302F5816040E8003107
:103FD8000029F3D14FF0402202F5816353E8003FF6
:103FE80023F0400302F5816040E800310029F3D155
:103FF800104B5B6A4FF0402202F5816353E8003FA3
:1040080043F0400302F5816040E800310029F3D114
:10401800094B0A480222BDE810405A60FCF70ABE64
:1040280010BDD907B3D502F0020200F00800024320
:104038008ED1ACE70044004000000240600400203C
:1040480008B5FDF7EFFCFEE710B50D4C2378022B01
:104058000FD00133DBB20B4A237013689B0704D5DA
:10406800022309485360FCF795FDBDE81040FDF7B1
:1040780091BC00F0EDFB01F007FC0123EBE700BF6A
:10408800E80400200000024060040020044B5A6944
:10409800520500D470474FF480625A61FDF7D0BCD6
:1040A8000004014000B50E4B1A6E42F0010283B0C5
:1040B8001A661A6E02F001020092009A9A6D42F096
:1040C80080529A659B6D03F0805301930420019BF5
:1040D80001F050FB03B05DF804EB02F015B800BF27
:1040E800001002400000000010B504469CB00021FA
:1040F80044220BA8CDE90611CDE908110A9105F073
:1041080077FC2368B3F1A04F04D0434A934246D0CA
:104118001CB010BD4FF400424FF080530BA80B9217
:104128001A9302F0ADFB00286AD13C4A13680133A8
:10413800012B136009D13A4BDA6C42F40052DA646D
:10414800DB6C03F400530193019B354BDA6C42F0AE
:104158000102DA64DA6C02F001020292029ADA6C65
:1041680042F00202DA64DB6C0520032103F002034B
:10417800CDE906010393002406A94FF09040039B64
:10418800089401F019FD44F202020323254808941B
:1041980006A9CDE9062301F00FFD1CB010BD4FF4B0
:1041A80000424FF080530BA80B921A9302F068FB61
:1041B80048BB1A4A13680133012B136009D1184B05
:1041C800DA6C42F40052DA64DB6C03F400530493B3
:1041D800049B134BDA6C42F00102DA64DB6C9FED4E
:1041E8000C7B03F00103059306A900234FF09040D0
:1041F8008DED067B059A089301F0DEFC1CB010BD1E
:10420800FDF7F6F891E7FDF7F3F8D2E7AFF3008092
:10421800400000000300000000010050281C00209E
:10422800001002400004004800B5026834498BB011
:1042380000238A42CDE90433CDE90633089308D038
:10424800304B9A421ED0304B9A4234D00BB05DF8B6
:1042580004FB03F1804303F504339FED237BDA6C01
:1042680042F00102DA64DB6C03F00103019304A954
:104278004FF090408DED047B019B01F09DFC0BB04D
:104288005DF804FB03F5863303F5FE73DA6C42F040
:104298000102DA64DB6C9FED167B03F001030293E5
:1042A80004A94FF090408DED047B029B01F084FC43
:1042B8000BB05DF804FB03F5863303F5FA73DA6C8B
:1042C800124842F00202DA64DB6C9FED0B7B03F0CC
:1042D8000203039304A98DED047B039B01F06CFC9E
:1042E8000BB05DF804FB00BF0200000003000000F3
:1042F800800000000300000001000000030000002F
:1043080000020140040201400C0201400004004880
:10431800094B02689A4200D07047D3F8482442F00B
:10432800080282B003F580639A649B6C03F008036B
:104338000193019B02B07047000C02400A4B0268CF
:104348009A4200D0704703F1704303F5003382B0FE
:10435800DA6C42F48022DA64DB6C03F48023019384
:10436800019B02B0704700BF001000500000000021
:1043780000B5026834498BB000238A42CDE9043382
:10438800CDE90633089308D0304B9A421ED0304B03
:104398009A4233D00BB05DF804FB03F1804303F578
:1043A80004339FED237BDA6C42F00102DA64DB6CA4
:1043B80003F00103019304A94FF090408DED047BB5
:1043C800019B01F0F9FB0BB05DF804FB03F58633A4
:1043D800FC33DA6C42F00102DA64DB6C9FED167B89
:1043E80003F00103029304A94FF090408DED047B84
:1043F800029B01F0E1FB0BB05DF804FB03F586338B
:10440800F833DA6C134842F00202DA64DB6C9FED91
:104418000C7B03F00203039304A98DED047B039B3B
:1044280001F0CAFB0BB05DF804FB00BFAFF30080DE
:104438000E00000003000000E00000000300000080
:1044480007000000030000000003014004030140CE
:104458000803014000040048094B02689A4200D052
:10446800704703F5644382B01A6E42F400621A661C
:104478001B6E03F400630193019B02B0704700BFF9
:10448800002C014070B52B4A01688AB00023914284
:10449800CDE90433CDE90633089301D00AB070BDE5
:1044A80003F1804303F504334FF40050DA6C42F013
:1044B8000402DA64DA6C02F004020192019ADA6CFE
:1044C80042F00202DA64DA6C02F002020292029A04
:1044D800DA6C42F00102DA64DB6C022103F00103BA
:1044E800CDE90401022402250393042604A91248F5
:1044F800039B0896CDE9064501F05EFB04A94FF43D
:10450800004202230D480896CDE90423CDE906456B
:1045180001F052FB4FF4B8520223CDE9042304A959
:1045280006234FF09040CDE90645089301F044FB7F
:104538000AB070BD002C0140000800480004004883
:1045480070B5044698B00021442207A8CDE90211AD
:10455800CDE90411069105F04BFA354B22689A42D1
:1045680001D018B070BD022307A8079302F088F99C
:1045780000284CD12F4B30489A6D304E42F400320F
:104588009A659A6D02F400320092009ADA6C9FEDF7
:10459800247B42F00202DA64DB6C8DED027B9FED36
:1045A800227B03F00203019302A90723019A0693D1
:1045B8008DED047B01F000FB21491A220023C6E996
:1045C800001230468022C6E90233C6E90423C6E950
:1045D8000633336201F05EFAF8B91A4D1A49C4F885
:1045E80080601B220023C5E9001228461021802282
:1045F800C5E90213C5E90533C5E90733B4622A6181
:1046080001F048FA30B9E567AC6218B070BDFCF744
:10461800EFFEAFE7FCF7ECFEF5E7FCF7E9FEDCE7B9
:104628001800000002000000000000000000000068
:1046380000440040001002400004004880050020AB
:1046480008000240200500201C000240024B4022C6
:104658001A60FDF725B900BF00010050034B04485C
:104668006FF001021A6104F065B900BF002C014027
:104678009001002008B50C4B1A69120605D56FF099
:1046880080020A481A61FEF7C7F807490B69DB057B
:1046980005D56FF4807305480B61FEF7DDF8BDE8BA
:1046A8000840FDF777B900BF002C014090010020B9
:1046B80030B4026802F1080151E8003F43F00103F9
:1046C80041E80034002CF7D1C168194D43686C5C8F
:1046D800234402F1240199604023136202F1080186
:1046E80051E8003F43F0400341E80034002CF7D183
:1046F8004023136252E8003F43F0400342E8003190
:104708000029F7D102F1080151E8003F43F0800386
:1047180041E80034002CF7D101698368695C0B44D7
:1047280002F128004021986030BC1162704700BF38
:10473800549D00080369806810B40B4CE35CC458AE
:10474800E40700EB030C0CD4CCF80C10DCF80410D4
:104758006FF30F010A43CCF80420C25842F001025B
:10476800C2505DF8044B7047549D000810B4C368EC
:104778000C4C4068E35CC45800EB030C24F00104C3
:10478800C450CCF80C10DCF804105DF8044B6FF33F
:104798000F011143CCF80410C25842F00102C25074
:1047A800704700BF549D000802681023136252E846
:1047B800003F43F0100342E800310029F7D1704769
:1047C800034AD2F8883043F47003C2F8883070473F
:1047D80000ED00E038B50F4B1B680BB9012038BD60
:1047E8000D494FF47A720546B2FBF3F30868B0FB43
:1047F800F3F001F02DF804460028EFD10F2DEDD885
:10480800024629464FF0FF3000F0C6FF034B204612
:104818001D6038BDF0040020EC040020F4040020E2
:104828000A4A136843F4807310B50320136000F03C
:10483800A1FF0420FFF7CEFF10B10124204610BDD0
:104848000446FFF72FFC204610BD00BF00200240A1
:10485800034A0449136809680B441360704700BF92
:104868002C1C0020F0040020014B1868704700BF82
:104878002C1C002030B583B000230193002800F0E1
:10488800AA80C56D0446002D00F0AA8022689368AE
:104898009D0005D5936823F0204323F03F039360E0
:1048A8009368D80019D4684B68481B6891689B09BD
:1048B800A0FB030321F010419B0921F03F010133C4
:1048C8005B0041F0805191600193019B2BB1019BEA
:1048D800013B0193019B002BF9D19368D9007DD44A
:1048E800E36D43F01003E365236E01200343236661
:1048F800936813F0040FE36D69D1DB0667D4E36DA9
:1049080023F4817343F00203E3659368DD0709D458
:104918004FF0A0439B6813F0010F4D4B9B6801D1EA
:10492800D9077AD5E568E36B94F824102B43A5687A
:104938002B43657F012943EA453343EA014355D0B8
:10494800E16A21B1256B01F4787129430B43D568DD
:10495800404929401943D1601369616B23F04063D2
:104968000B43136193681B0722D4D16894F838303D
:10497800257F21F480415B0021F0020143EA853361
:104988000B432169D360136900293CD043F4803379
:104998001361D2F8C0306FF30D030B43C2F8C03077
:1049A80094F84030012B40D0136923F001031361C0
:1049B8006369012B1FD0136B23F00F031363E36D9F
:1049C80023F0030343F00103E36503B030BDE36D57
:1049D80043F01003E365012003B030BD002087E7F2
:1049E800FFF782FB256684F858504FE7A16A013922
:1049F80043EA4143A4E7116B236A21F00F01013B0D
:104A08000B431363DBE723F480331361D2F8C03020
:104A18006FF30D03C2F8C030C2E70F4965688B68B1
:104A280023F47C132B438B607CE71169636CA56CC2
:104A38006FF38A012B430B43E16C0B43216D0B434E
:104A480043F001031361B3E7EC040020632D3E0536
:104A5800000100500740F0FF000300502DE9F0412D
:104A680090F8582082B00346012A4FF000000190C8
:104A780000F02D811A68012083F8580094686407B3
:104A880055D448684FEA901E00F01F0C0EF00C0E2B
:104A9800086802F13004C0F3846054F80E501F26F1
:104AA80000FA0CF006FA0CFC25EA0C0C40EA0C00A3
:104AB80044F80E009068470743D5906808689468E2
:104AC800E50712D4CE68B04CD2F8B05006F01807FB
:104AD800FC40C0F31207044025EA07052C43C2F83E
:104AE800B040AA4CA64200F0A280A94908421CD0B6
:104AF800A84CA94DA168A84201F0E07674D0A74D52
:104B0800A84271D0A64DA84200F0E580A54DA84264
:104B18000BD1490209D4A4498A4206D0A26822F0DE
:104B2800E072324342F48002A260002003E0DA6DB2
:104B380042F02002DA65002283F8582002B0BDE86E
:104B4800F081946808682607B9D48D68C0F30456C4
:104B58000724C00DB440B5F1004F00F004006FEA1F
:104B6800040400F0078102F11407B5403E583440B0
:104B78002C433C50506920F000405061D1E9046456
:104B88000868D568042E074600F0C880C5F3C1053B
:104B98006D0000F0F84704FA05F002F16004834D57
:104BA80054F826C00CEA05053D43284340F0004070
:104BB80044F826000D698E6954F8250020F08070AD
:104BC800304344F825000E690D7F54F82600A5F1FE
:104BD8000105B5FA85F56D0920F0007040EA4560D9
:104BE80044F8260008686AE70C029ED4B2F1A04F88
:104BF8009BD168496E488A6822F0E072324342F4D9
:104C080000028A6002686B499209A1FB02129209AC
:104C1800013202EB420292000192019A002A84D0EA
:104C2800019A013A0192019A002AF9D17DE7002FF1
:104C380060D090FAA0F4002C00F0BE80B4FA84F49E
:104C4800013404F01F04092C40F2B68090FAA0F455
:104C5800002C00F05781B4FA84F40134A40604F05F
:104C6800F84490FAA0F5002D00F05681B5FA85F5C4
:104C7800013505F01F05012606FA05F52C4390FAC3
:104C8800A0F0002800F04681B0FA80F0451C05F03D
:104C98001F0503206FF01D0610FB0560000540F09E
:104CA80000702043C50D8C6805F0040502F1140658
:104CB800C0F3045004FA00F74FF0070C74590CFACB
:104CC80000F024EA00003843705108680DE702201C
:104CD80002B0BDE8F081C8013FF527AF32498A42EA
:104CE8003FF423AFA26822F0E072324342F08072B0
:104CF800A2601AE7800E013000F01F05012480062B
:104D080000F0F840AC40092D44EA000405EB4500EA
:104D180077D91E38000540F00070C2E7146E146E93
:104D2800C0F31205C4F38464002D6CD1C0F3846011
:104D3800844200F0A080546E556E02F16004C5F301
:104D4800846502F1640E854200F0C080A568A568FC
:104D580004F1080CC5F38465854200F0A180E5687C
:104D6800E56804F10C06C5F38464A04200F0C48031
:104D78003846A4E602F1140635582C4034505069E0
:104D880040F000405061F9E6FFFF070000007F4057
:104D98000000088000030050000021C31000C090EC
:104DA800000052C7000084CB0001005000F0FF0350
:104DB800EC040020632D3E0590FAA0F4002C00F0CE
:104DC800B780B4FA84F40134A40604F0F84490FAE5
:104DD800A0F5002D00F0AA80B5FA85F5013505F09B
:104DE8001F05012606FA05F52C4390FAA0F00028C5
:104DF80000F09980B0FA80F0013000F01F0000EB5D
:104E0800400000054DE790FAA0F51DB1B5FA85F50B
:104E1800AC4230D0546E556E02F16004C5F384651F
:104E280002F1640E97FAA7F604F1080CE046002E8A
:104E380074D0B6FA86F6AE424AD0DCF80050DCF8F8
:104E48000050C5F3846597FAA7FE04F10C06B04636
:104E5800BEF1000F59D0BEFA8EFEAE4522D034689E
:104E68003468C4F3846497FAA7F5002D3FF427AE9D
:104E7800B5FA85F079E7106E144620F0004044F842
:104E8800600F0F68506E556EC7F3120602F1640E7C
:104E9800C5F384653846002EC4D1C7F3846052E751
:104EA80004F10C08DCF8000020F00040CCF8000009
:104EB8000F68E068E468C7F312054646C4F38464E3
:104EC8003846002DCFD1C7F384604EE704F10808B7
:104ED800DEF8000020F00040CEF800000F68A0685F
:104EE800A568C7F31206C446C5F384653846002E84
:104EF800A9D1C7F384602FE7306820F00040306004
:104F08000868DCE54FF08064ABE6E568E468C4F364
:104F18008464A8E70848C4E60225AFE6A568A56842
:104F2800C5F384658FE74FF44010BAE602255BE7C6
:104F38004FF080644BE700BF000050FE2DE9F043BE
:104F480090F8583083B00246012B4FF000000190D2
:104F580000F075810123556982F85830D1E9004085
:104F68001368002D72D00D6A012D6FD0976E00F076
:104F78001F00C4F384668640002F40F01A81886AB7
:104F8800013D002800F01E82CF6A00F07C00284313
:104F980038433043C2E919059868000710D491F8DE
:104FA800260091F825504005002D40F0F780DD6877
:104FB80091F8246025F4401540EA06502843D8604B
:104FC800986810F0040057D0986800209D68EE0794
:104FD80014D4CF68A34DD3F8B06007F0180C25FAA5
:104FE8000CF5C4F3120E254026EA0E0C45EA0C0512
:104FF800C3F8B0509C4DAF4200F0F6809B490C427C
:105008001ED09B4E9B4DB168AC4201F0E07700F09A
:105018009F80994DAC4200F09B80984DAC4200F0C7
:105028001281974DAC420BD1490209D495498B4264
:1050380006D0B36823F0E0733B4343F48003B360C6
:10504800002382F8583003B0BDE8F0830928A3D1C3
:10505800886A650C05F4785520B1CE6A00F07C00AA
:1050680030430543D86C884E30402843D86498684C
:1050780055660007A4D492E79D682F07A6D48D6AC9
:1050880091F82500002D40F0A6800128D86800F08E
:105098009B8120F00070D860002091F83050012DDD
:1050A80000F085811D6925F002051D618E68C4F335
:1050B80004570725E40DBD40B6F1004F04F0040481
:1050C8006FEA050500F0698103F1140CBE405CF835
:1050D80004703D4035434CF804505C6924F00044AA
:1050E8005C610F690C684D69DE68042FA44600F006
:1050F8000C81C6F3C106760004F0F84C05FA06F4F4
:1051080003F16005614E55F827E00EEA060646EA07
:105118000C06344344F0004445F827400F698E6973
:1051280055F8274024F08074344345F827400F6928
:105138000E7F55F82740A6F10106B6FA86F67609DD
:1051480024F0007444EA466445F827400C683DE7BB
:105158000D023FF575AFB3F1A04F7FF471AF44492D
:105168004B4C8B6823F0E0733B4343F400038B60A4
:10517800236848499B09A1FB03139B0903EB4303DD
:105188009B0018330193019B002B3FF459AF019BFF
:10519800013B0193019B002BF9D151E7DD6825F410
:1051A80040152843D860986810F004003FF464AFB5
:1051B8000AE7556E013F354397665566002F7FF421
:1051C800EBAED86C304E30402843D864986800075E
:1051D8003FF5F6AEE3E6CD6A002D3FF456AF012861
:1051E80000F01881D86854E7BEF1000F54D1A40E1E
:1051F800013404F01F060125A40604F0F844B54064
:10520800092E45EA040506EB460400F2FE80240553
:105218002C43E60D8D6806F0040603F11407C4F369
:10522800045405FA04FC4FF0070EBD590EFA04F4B5
:1052380025EA040444EA0C04BC510C68DEE60220AA
:1052480003B0BDE8F083CC013FF5FAAE0D498B42BF
:105258003FF4F6AEB36823F0E0733B4343F080734A
:10526800B360EDE6FFFF070000007F400000088004
:1052780000030050000021C31000C090000052C776
:10528800000084CB000100500040100400F0FF0330
:10529800EC040020632D3E0594FAA4F5002D00F0DF
:1052A800BE80B5FA85F5013505F01F05092D40F2D8
:1052B800B68094FAA4F5002D00F02B81B5FA85F597
:1052C8000135AD0605F0F84594FAA4F6002E00F075
:1052D8001E81B6FA86F6013606F01F06012707FA80
:1052E80006F6354394FAA4F4002C00F00981B4FAC8
:1052F80084F4661C06F01F0603246FF01D0714FBD8
:105308000674240544F0007482E71D6E1D6EC4F314
:105318001206C5F38465002E5AD094FAA4F626B175
:10532800B6FA86F6B54200F0CE805D6E5E6E03F189
:105338006005C6F3846603F164089CFAACF705F1CE
:10534800080EF146002F00F0DD80B7FA87F7B74264
:1053580000F0A380DEF80060DEF80060C6F3846623
:105368009CFAACF805F10C07B946B8F1000F00F04B
:10537800D380B8FA88F8B04577D03D683D68C5F362
:1053880084659CFAACF6002E3FF420AEB6FA86F49B
:10539800AC4200F0AF80644618E603F114073E59AA
:1053A80035403D515C6944F000445C6199E6D1E9BF
:1053B8000D571E693D4326F4FF76354345F0020537
:1053C8001D6173E62846E4E540F00070D86063E6A6
:1053D800C4F38464A54276D05D6E5E6E03F1600509
:1053E800C6F3846603F16408A64254D0AE68AE687A
:1053F80005F1080EC6F38466A64234D0EE68EE685E
:1054080005F10C07C6F38465C2E71E3C240544F089
:105418000074FDE6D56D45F02005D5653DE694FAA6
:10542800A4F5002D00F08280B5FA85F50135AD06AA
:1054380005F0F84594FAA4F6002E75D0B6FA86F66B
:10544800013606F01F06012707FA06F6354394FAD7
:10545800A4F4002C65D0B4FA84F4013404F01F04D9
:1054680004EB4404D3E605F10C09DEF8004024F00F
:105478000044CEF80040D1F800C0EC68ED68CCF3E9
:1054880012064F46C5F384656446002E7FF479AF53
:10549800CCF384647CE705F10809D8F8004024F0CF
:1054A8000044C8F80040D1F800C0AC68AE68CCF33E
:1054B8001207CE46C6F384666446002F7FF450AFC9
:1054C800CCF3846498E71C6E1D4624F0004445F82C
:1054D800604FD1F800C05C6E5E6ECCF31207C6F365
:1054E800846603F164086446002F7FF426AFCCF38A
:1054F800846479E73C6824F000443C600C6865E506
:105508000C4C85E6AE68AE68C6F3846628E70226CA
:10551800E7E64FF08065D7E6EE68ED68C5F3846589
:105528002FE74FF4401473E602268FE74FF08065AB
:1055380080E700BF000050FE90F85820012A45D0AF
:10554800F0B404689CB0034600220120B4F1A04FD7
:10555800189283F85800199208D0D96D83F858200A
:1055680041F02001D9651CB0F0BC7047224A906810
:1055780040070BD5A268DA6D42F020020120DA65F7
:10558800002283F858201CB0F0BC7047A06845077B
:10559800F1D40D68E5B1194E4F68B06893F838C07A
:1055A80020F46040384340EA4C30B060A06892680C
:1055B800C0071ED4D7071CD4B268896822F4716268
:1055C8000D4322F00F021543B56012E00220704728
:1055D8000A48816821F460418160A1689268CD071A
:1055E80007D4D40705D4826822F4716222F00F022E
:1055F80082600020C4E700BF000100500003005093
:1056080030B583B000230193002851D00268136895
:10561800002B04464CDB437F03F0FF01002B73D0C3
:10562800D4E901036169156803430B43E168106815
:105638000B4321690B433C4901400B43136013683A
:105648001B0201D52D0249D5384B9A4262D0384BFE
:105658009A4264D004339A4215BF6FF080426FF0CB
:1056680000524FF080414FF00051A369980722D0B3
:10567800304DA86813F0100F14BF08431040A860FD
:105688002C4DE86813F0200F14BF08431040E86061
:1056980028484161456813F0020F14BF0D431540B7
:1056A800DB07456015D5234B1A681143196009E0DB
:1056B800012003B030BD1F4B59681140596019686B
:1056C8000A401A60637F0BB901236377002003B097
:1056D80030BD18490B6813400B60F3E7164B1749A8
:1056E8001B689B09A1FB03139B09013303EB83038D
:1056F8009B000193019B002BA6D0019B013B0193CA
:10570800019B002BF9D19FE701770162FEF78CFD21
:10571800226885E76FF400124FF40011A5E76FF4D3
:1057280080024FF48001A0E70F7E00FF00020140D5
:105738000402014000040140EC040020632D3E05F2
:10574800B0B110B590F82130044603F0FF0253B110
:1057580000200123606284F82130C4E90100C4E913
:105768000300606110BD80F82020FEF7D1FDEFE74F
:10577800012070470749CA6803024FF6FF0003F487
:10578800E0630240134343F0BF6343F40033CB604C
:10579800704700BF00ED00E01B4BDB68C3F302233A
:1057A80000B5C3F1070EBEF1040F03F1040C28BFC6
:1057B8004FF0040EBCF1060F1CD9A3F1030C4FF0F7
:1057C800FF3303FA0CF322EA03024FF0FF3303FA24
:1057D8000EF321EA030303FA0CF313431B01002819
:1057E800DBB20ADB00F1604000F5614080F800336D
:1057F8005DF804FB00229446E7E7044A00F00F0036
:10580800024413765DF804FB00ED00E0FCEC00E0D8
:10581800002807DB044A4109012300F01F008340E8
:1058280042F82130704700BF00E100E0BFF34F8F1E
:105838000549064BCA6802F4E0621343CB60BFF324
:105848004F8F00BFFDE700BF00ED00E00400FA0540
:105858000138B0F1807F01D30120704710B44FF0B8
:10586800E023074C58614FF0F00C84F823C0002265
:10587800072110469A615DF8044B1961704700BF13
:1058880000ED00E0704700BF08B5FFF7FBFF08BD5B
:1058980088B110B50379044603F0FF023BB1002339
:1058A80002210122217123612271184610BD427123
:1058B800FEF744FDF3E70120704700BF002800F021
:1058C800C1802DE9F0410F46002900F0BD804379E1
:1058D800012B054600F0C7801646022301224271BB
:1058E8000371886804286FD02B6806F01006FA69DF
:1058F800012A08D1996B3A6A1F24B440B24021EAC0
:1059080004010A439A63B969DA6BD7F814E00129EC
:1059180000F09580022900F09A80BEFA8EFC4FEACA
:105928005C1C3C797979A4F10104B4FA84F4A1F1FE
:1059380001016409B1FA81F14909240244EA4124C8
:1059480040F20731B14022EA01083A6844EA0E04FD
:105958000443022A44EA0C0428F440487AD048EA6E
:105968000208B44044EA0804DC631A684FF4804132
:10597800B14022EA01021A60D7E903121C6840F616
:10598800FE70B04024EA000401FA06F020439201B8
:105998001860C1F3830102F470620A43C0241968D5
:1059A800B44021EA04011960196E40F60F70B04046
:1059B80021EA0001B24000240A4301211A66204668
:1059C80029716C71BDE8F081FEF74EFF2B68044623
:1059D8005A6B56B118E0FEF747FF001B01282B68E9
:1059E80002D95A6B110448D45A6B1204F3D47A6A58
:1059F8001A640DE0FEF738FF001B01282B6802D956
:105A08005A6B002A39DB5A6B002AF3DB7A6A5A642C
:105A18009A6CB96A06F0100640F2FF30B040B14007
:105A280022EA00020A439A64DA6CF96AFF20B0405D
:105A380022EA0002B1400A43B868DA6457E74FF037
:105A4800000C6EE7012070470120BDE8F0814FF09F
:105A5800010C66E700F0E2FE0C4B984205D92B6872
:105A680048F400487DE70220ACE7094A2B689042D9
:105A78007FF677AF48F4804873E72B69032243F039
:105A880008032B6103202A719CE700BF006889097D
:105A980000B4C404002876D0F0B43C4A04689442A8
:105AA80003465CD93A493B4A3B482144A2FB0121C1
:105AB8000909890002229D6883F82520DA68354E95
:105AC800364FC3E9100118692A4302435869024353
