:020000040800F2
:1000000000000520F52D0008F92200080123000852
:10001000092300081123000819230008000000002C
:100020000000000000000000000000002123000884
:100030002F230008000000003D2300084B23000888
:10004000452E0008452E0008452E0008452E0008C4
:10005000452E0008452E000857230008452E0008AD
:10006000452E0008452E0008452E0008452E0008A4
:1000700065230008452E0008452E00087923000856
:10008000452E0008452E00088D230008452E000847
:10009000452E0008452E0008452E0008452E000874
:1000A000452E0008452E0008452E0008452E000864
:1000B000452E0008A1230008452E0008452E000803
:1000C000452E0008452E0008452E0008452E000844
:1000D000452E0008452E0008452E0008B5230008CF
:1000E000452E0008452E0008452E0008452E000824
:1000F000C9230008452E0008452E0008452E00089B
:10010000452E0008452E0008452E0008452E000803
:10011000452E0008452E0008452E0008452E0008F3
:10012000DD230008452E0008452E0008452E000856
:10013000452E0008452E0008452E0008452E0008D3
:10014000452E0008452E0008452E0008452E0008C3
:10015000452E0008452E0008452E0008452E0008B3
:10016000452E0008452E0008452E0008452E0008A3
:10017000452E0008452E0008452E0008000000000E
:10018000452E0008452E0008452E0008452E000883
:10019000452E0008452E0008452E0008452E000873
:1001A000452E0008452E0008452E0008452E000863
:1001B000452E0008452E0008452E0008452E000853
:0801C000452E0008452E000841
:1001D00010B5054C237833B9044B13B10448AFF381
:1001E00000800123237010BD18FD002000000000D6
:1001F00088E8000808B5034B1BB103490348AFF377
:10020000008008BD000000001CFD002088E80008F8
:1002100001F0FF01102A2BDB10F0070F08D010F8B7
:10022000013B013A8B422DD010F0070F42B3F6D1BB
:10023000F0B441EA012141EA014122F007047FF0D4
:1002400000070023F0E80256083C85EA010586EA2B
:10025000010685FA47F5A3FA87F586FA47F6A5FA67
:1002600087F68EB9EED1F0BC01F0FF0102F0070273
:1002700032B110F8013B013A83EA010313B1F8D11E
:100280000020704701387047002D06BF35460338FF
:10029000073815F0010F07D1013015F4807F02BF38
:1002A000013015F4C03F0130F0BC0138704700BF89
:1002B000034613F8012B002AFBD1181A01387047A6
:1002C00081F0004102E000BF83F0004330B54FEA07
:1002D00041044FEA430594EA050F08BF90EA020F74
:1002E0001FBF54EA000C55EA020C7FEA645C7FEA07
:1002F000655C00F0E2804FEA5454D4EB5555B8BF2A
:100300006D420CDD2C4480EA020281EA030382EA9A
:10031000000083EA010180EA020281EA0303362D2C
:1003200088BF30BD11F0004F4FEA01314FF4801CFF
:100330004CEA113102D0404261EB410113F0004F11
:100340004FEA03334CEA133302D0524263EB4303C8
:1003500094EA050F00F0A780A4F10104D5F1200E66
:100360000DDB02FA0EFC22FA05F2801841F10001C1
:1003700003FA0EF2801843FA05F359410EE0A5F195
:1003800020050EF1200E012A03FA0EFC28BF4CF0C6
:10039000020C43FA05F3C01851EBE37101F000457C
:1003A00007D54FF0000EDCF1000C7EEB00006EEB89
:1003B0000101B1F5801F1BD3B1F5001F0CD3490813
:1003C0005FEA30004FEA3C0C04F101044FEA44526A
:1003D00012F5800F80F09A80BCF1004F08BF5FEAF1
:1003E000500C50F1000041EB045141EA050130BDD1
:1003F0005FEA4C0C404141EB0101013C28BFB1F5E3
:10040000801FE9D291F0000F04BF01460020B1FA2D
:1004100081F308BF2033A3F10B03B3F120020CDA00
:100420000C3208DD02F1140CC2F10C0201FA0CF0DE
:1004300021FA02F10CE002F11402D8BFC2F1200C43
:1004400001FA02F120FA0CFCDCBF41EA0C019040F9
:10045000E41AA2BF01EB0451294330BD6FEA040442
:100460001F3C1CDA0C340EDC04F11404C4F120022D
:1004700020FA04F001FA02F340EA030021FA04F33F
:1004800045EA030130BDC4F10C04C4F1200220FA96
:1004900002F001FA04F340EA0300294630BD21FAD4
:1004A00004F0294630BD94F0000F83F4801306BF9A
:1004B00081F480110134013D4EE77FEA645C18BF8E
:1004C0007FEA655C29D094EA050F08BF90EA020F25
:1004D00005D054EA000C04BF1946104630BD91EA1D
:1004E000030F1EBF0021002030BD5FEA545C05D120
:1004F0004000494128BF41F0004130BD14F580045F
:100500003CBF01F5801130BD01F0004545F0FE41D2
:1005100041F470014FF0000030BD7FEA645C1ABF07
:10052000194610467FEA655C1CBF0B46024650EA3E
:10053000013406BF52EA033591EA030F41F400216A
:1005400030BD00BF90F0000F04BF0021704730B5F0
:100550004FF4806404F132044FF000054FF00001C5
:1005600050E700BF90F0000F04BF0021704730B586
:100570004FF4806404F1320410F0004548BF40425B
:100580004FF000013EE700BF42004FEAE2014FEAB0
:1005900031014FEA02701FBF12F07F4393F07F4F8B
:1005A00081F06051704732F07F4208BF704793F08E
:1005B0007F4F04BF41F40021704730B54FF46074A1
:1005C00001F0004521F000411CE700BF50EA0102A4
:1005D00008BF704730B54FF000050AE050EA01024D
:1005E00008BF704730B511F0004502D5404261EBBD
:1005F00041014FF4806404F132045FEA915C3FF4FE
:10060000D8AE4FF003025FEADC0C18BF03325FEA9A
:10061000DC0C18BF033202EBDC02C2F1200300FA4B
:1006200003FC20FA02F001FA03FE40EA0E0021FA70
:1006300002F11444BDE600BF70B54FF0FF0C4CF45E
:10064000E06C1CEA11541DBF1CEA135594EA0C0F10
:1006500095EA0C0F00F0DEF82C4481EA030621EA4B
:100660004C5123EA4C5350EA013518BF52EA033586
:1006700041F4801143F4801338D0A0FB02CE4FF038
:100680000005E1FB02E506F00042E0FB03E54FF068
:100690000006E1FB03569CF0000F18BF4EF0010E60
:1006A000A4F1FF04B6F5007F64F5407404D25FEA5C
:1006B0004E0E6D4146EB060642EAC62141EA55510F
:1006C0004FEAC52040EA5E504FEACE2EB4F1FD0C51
:1006D00088BFBCF5E06F1ED8BEF1004F08BF5FEACF
:1006E000500E50F1000041EB045170BD06F0004681
:1006F00046EA010140EA020081EA0301B4EB5C042E
:10070000C2BFD4EB0C0541EA045170BD41F4801125
:100710004FF0000E013C00F3AB8014F1360FDEBF4A
:10072000002001F0004170BDC4F10004203C35DA26
:100730000C341BDC04F11404C4F1200500FA05F3A9
:1007400020FA04F001FA05F240EA020001F000424A
:1007500021F0004110EBD37021FA04F642EB0601C0
:100760005EEA430E08BF20EAD37070BDC4F10C04EA
:10077000C4F1200500FA04F320FA05F001FA04F2AE
:1007800040EA020001F0004110EBD37041F100019A
:100790005EEA430E08BF20EAD37070BDC4F12005A5
:1007A00000FA05F24EEA020E20FA04F301FA05F20D
:1007B00043EA020321FA04F001F0004121FA04F2B5
:1007C00020EA020000EBD3705EEA430E08BF20EA85
:1007D000D37070BD94F0000F0FD101F000464000BF
:1007E00041EB010111F4801F08BF013CF7D041EA41
:1007F000060195F0000F18BF704703F00046520045
:1008000043EB030313F4801F08BF013DF7D043EA15
:100810000603704794EA0C0F0CEA135518BF95EACB
:100820000C0F0CD050EA410618BF52EA4306D1D152
:1008300081EA030101F000414FF0000070BD50EA71
:10084000410606BF1046194652EA430619D094EAFB
:100850000C0F02D150EA013613D195EA0C0F05D1E5
:1008600052EA03361CBF104619460AD181EA030139
:1008700001F0004141F0FE4141F470014FF00000F1
:1008800070BD41F0FE4141F4780170BD70B54FF08C
:10089000FF0C4CF4E06C1CEA11541DBF1CEA13550C
:1008A00094EA0C0F95EA0C0F00F0A7F8A4EB0504EE
:1008B00081EA030E52EA03354FEA013100F08880E5
:1008C0004FEA03334FF0805545EA131343EA1263AE
:1008D0004FEA022245EA111545EA10654FEA002663
:1008E0000EF000419D4208BF964244F1FD0404F51C
:1008F000407402D25B084FEA3202B61A65EB030578
:100900005B084FEA32024FF480104FF4002CB6EB34
:10091000020E75EB030E22BFB61A754640EA0C00B4
:100920005B084FEA3202B6EB020E75EB030E22BFF4
:10093000B61A754640EA5C005B084FEA3202B6EB35
:10094000020E75EB030E22BFB61A754640EA9C00F4
:100950005B084FEA3202B6EB020E75EB030E22BFC4
:10096000B61A754640EADC0055EA060E18D04FEA82
:10097000051545EA16754FEA06164FEAC30343EA22
:1009800052734FEAC2025FEA1C1CC0D111F4801FEF
:100990000BD141EA00014FF000004FF0004CB6E7E8
:1009A00011F4801F04BF01430020B4F1FD0C88BF87
:1009B000BCF5E06F3FF6AFAEB5EB030C04BFB6EB92
:1009C000020C5FEA500C50F1000041EB045170BD85
:1009D0000EF0004E4EEA113114EB5C04C2BFD4EBB2
:1009E0000C0541EA045170BD41F480114FF0000E36
:1009F000013C90E645EA060E8DE60CEA135594EAB2
:100A00000C0F08BF95EA0C0F3FF43BAF94EA0C0FB4
:100A10000AD150EA01347FF434AF95EA0C0F7FF429
:100A200025AF104619462CE795EA0C0F06D152EA7D
:100A300003353FF4FDAE1046194622E750EA410661
:100A400018BF52EA43067FF4C5AE50EA41047FF472
:100A50000DAF52EA43057FF4EBAE12E74FF0FF3CD7
:100A600006E000BF4FF0010C02E000BF4FF0010CA8
:100A70004DF804CD4FEA410C7FEA6C5C4FEA430C21
:100A800018BF7FEA6C5C1BD001B050EA410C0CBF70
:100A900052EA430C91EA030F02BF90EA020F0020D2
:100AA000704710F1000F91EA030F58BF994208BF39
:100AB00090422CBFD8176FEAE37040F001007047F6
:100AC0004FEA410C7FEA6C5C02D150EA013C07D14D
:100AD0004FEA430C7FEA6C5CD6D152EA033CD3D098
:100AE0005DF8040B704700BF8446104662468C4692
:100AF0001946634600E000BF01B5FFF7B7FF0028C5
:100B000048BF10F1000F01BD4DF808EDFFF7F4FFED
:100B10000CBF012000205DF808FB00BF4DF808ED78
:100B2000FFF7EAFF34BF012000205DF808FB00BF9B
:100B30004DF808EDFFF7E0FF94BF012000205DF8BD
:100B400008FB00BF4DF808EDFFF7CEFF94BF012072
:100B500000205DF808FB00BF4DF808EDFFF7C4FF6B
:100B600034BF012000205DF808FB00BF4FEA410CB4
:100B70007FEA6C5C02D150EA013C0AD14FEA430C97
:100B80007FEA6C5C02D152EA033C02D14FF00000D4
:100B900070474FF0010070474FEA410212F5001212
:100BA00015D211D56FF47873B3EB625212D94FEAB4
:100BB000C12343F0004343EA505311F0004F23FA9E
:100BC00002F018BF404270474FF00000704750EAF3
:100BD000013005D111F0004008BF6FF000407047B0
:100BE0004FF00000704700BF4A0011D212F500120A
:100BF00011D20DD56FF47873B3EB62520ED44FEA75
:100C0000C12343F0004343EA505323FA02F07047F4
:100C10004FF00000704750EA013002D14FF0FF3032
:100C200070474FF0000070474FEA4102B2F1E043D5
:100C300024BFB3F5001CDCF1FE5C0DD901F0004CC3
:100C40004FEAC0024CEA5070B2F1004F40EB830013
:100C500008BF20F00100704711F0804F21D113F13F
:100C60003872BCBF01F00040704741F480114FEA78
:100C70005252C2F11802C2F1200C10FA0CF320FA01
:100C800002F018BF40F001004FEAC1234FEAD3231E
:100C900003FA0CFC40EA0C0023FA02F34FEA430388
:100CA000CCE77FEA625307D150EA01331EBF4FF011
:100CB000FE4040F44000704701F0004040F0FE402C
:100CC00040F40000704700BF53B94AB9002908BF7B
:100CD00000281CBF4FF0FF314FF0FF3000F0A0B9EB
:100CE000ADF1080C6DE904CE00F03CF8DDF804E04D
:100CF000DDE9022304B0704738B500220023044622
:100D00000D46FFF70BFF28B920462946BDE83840BD
:100D100000F00AB8204605F1004100F005F8404215
:100D200061EB410138BD00BFD0B50C4B0022064637
:100D30000F46FFF781FCFFF757FF0446FFF702FC61
:100D4000074B0022FFF778FC02460B463046394637
:100D5000FFF7BAFAFFF748FF2146D0BD0000F03D8B
:100D60000000F0412DE9F047089D0C46002B4ED1C4
:100D700094468C458646B2FA82F262D94AB1C2F1F3
:100D80002003914020FA03F30CFA02FC194300FA05
:100D900002FE4FEA1C471FFA8CF6B1FBF7F44FEA4C
:100DA0001E4307FB141143EA014304FB06F1994279
:100DB0000AD91CEB030304F1FF3080F01281994241
:100DC00040F20F81023C6344591A1FFA8EF3B1FBC3
:100DD000F7F007FB101143EA014300FB06F69E42C1
:100DE0000AD91CEB030300F1FF3180F0FC809E4226
:100DF00040F2F980634402389B1B40EA0440002122
:100E00001DB1D3400022C5E90032BDE8F0878B4216
:100E100005D90DB1C5E9000100210846F5E7B3FA8F
:100E200083F1002946D1A34202D39042C0F0F08062
:100E3000861A64EB03030120002DE6D0C5E90063A8
:100E4000E3E7002A40F09080A1EB0C044FEA1C4835
:100E50001FFA8CF70121B4FBF8F64FEA1E4308FB9A
:100E6000164443EA044307FB06F0984208D91CEBFA
:100E7000030306F1FF3402D2984200F2CD802646E9
:100E80001C1A1FFA8EF3B4FBF8F008FB104443EA77
:100E9000044300FB07F79F4208D91CEB030300F152
:100EA000FF3402D29F4200F2B0802046DB1B40EAB2
:100EB0000640A5E7C1F120068B4022FA06F71F4342
:100EC00020FA06FC04FA01F343EA0C03F44000FAAA
:100ED00001F8380C4FEA1349B4FBF0FE1FFA87FC07
:100EE00000FB1E4449EA04440EFB0CF9A14502FA3A
:100EF00001F20AD93C190EF1FF3A80F08480A14535
:100F000040F28180AEF1020E3C44A4EB09041FFACA
:100F100083F9B4FBF0F300FB134449EA044403FBF8
:100F20000CFCA44507D93C1903F1FF3067D2A44556
:100F300065D9023B3C4443EA0E40A0FB0293A4EB7C
:100F40000C049C42CE469C4651D34ED055B1B8EBD2
:100F50000E0364EB0C0404FA06F6CB401E43CC40AF
:100F6000C5E90064002150E7C2F1200320FA03F133
:100F70000CFA02FC24FA03F394400C434FEA1C4899
:100F800000FA02FE1FFA8CF7B3FBF8F008FB1031F1
:100F9000230C43EA014300FB07F1994208D91CEBFB
:100FA000030300F1FF362CD299422AD90238634458
:100FB0005B1AA4B2B3FBF8F108FB113344EA034413
:100FC00001FB07F3A34208D91CEB040401F1FF362F
:100FD00013D2A34211D902396444E41A41EA004110
:100FE00039E70446F0E6084606E7C845AED2B9EB55
:100FF000020E63EB070C0138A8E73146EDE7034624
:1010000099E73046D4E7D6467FE7634402384DE798
:101010000646234608460FE7023E634430E700BF1A
:10102000704700BF80B584B000AF3B4600221A6015
:101030005A609A60DA60304B304A1A602E4B4FF497
:1010400080325A602C4B00229A602B4B01221A618D
:10105000294B00229A61284B002283F82020264B3E
:101060004FF04052DA62244B4FF0E0629A62224B1A
:101070000022DA60204B0322DA611F4B012283F841
:1010800030201D4B00225A611B4801F05DFF0346D2
:10109000002B01D000F0FCFE03233B6001237B60AA
:1010A0000223BB603B461946134802F0AFF90346E2
:1010B000002B01D000F0ECFE0A233B6002237B6092
:1010C0003B4619460C4802F0A1F90346002B01D01B
:1010D00000F0DEFE0D233B6003237B603B46194698
:1010E000054802F093F90346002B01D000F0D0FE32
:1010F00000BF1037BD4680BD34FD002000200140F8
:1011000080B58AB000AF786007F1140300221A603E
:101110005A609A60DA601A617B681B683D4A9342A4
:1011200073D13D4B5B6C3C4A43F4807353643A4B40
:101130005B6C03F480733B613B69374B1B6B364A36
:1011400043F004031363344B1B6B03F00403FB6095
:10115000FB68314B1B6B304A43F0010313632E4B8A
:101160001B6B03F00103BB60BB6809237B61032396
:10117000BB610023FB6107F114031946274803F004
:1011800063FC08237B610323BB610023FB6107F140
:1011900014031946224803F057FC224B224A1A60D6
:1011A000204B00225A601F4B00229A601D4B0022E8
:1011B000DA601C4B4FF480621A611A4B4FF40062E4
:1011C0005A61184B4FF400529A61164B4FF48072DB
:1011D000DA61144B00221A62124B00225A62114843
:1011E00002F002FD0346002B01D000F051FE7B68A7
:1011F0000C4A9A630B4A7B689363002200211220F9
:1012000002F0BBFC122002F0D4FC00BF2837BD4620
:1012100080BD00BF002001400038024000080240AD
:10122000000002407CFD0020106402400EB480B536
:1012300085B000AF78607B6803F57043B3F8022A8D
:101240007B6803F57043B3F8003A9A4228D007F15F
:101250002003FB607B687A6802F57042B2F8002ACE
:1012600098187B6803F57043B3F8023A1A467B6816
:1012700003F57043B3F8003AD31A1946FB68FA69CC
:1012800009F01CFB01467B6803F57043B3F8002AA4
:101290008BB213449AB27B6803F57043A3F8002A1B
:1012A00000BF1437BD46BDE8804003B07047000062
:1012B00080B500AF4FF604220021064809F00CFB70
:1012C000044B03F570434FF47A42A3F8022A00BF9F
:1012D00080BD00BF0000002080B483B000AF744B1D
:1012E00001221A70724B64225A70714BC8229A7094
:1012F0006F4B0122DA700023FB80D2E0FA886D493F
:1013000013465B0013449B000B44B3F90020FB8899
:1013100002335B00D1B2664AD154FA88654913465C
:101320005B0013449B000B44B3F900301B121AB24C
:10133000FB885B000533D1B25D4AD154FA885D4920
:1013400013465B0013449B000B440233B3F90020A7
:10135000FB8852335B00D1B2554AD154FA885549C3
:1013600013465B0013449B000B440233B3F9003077
:101370001B121AB2FB885B00A533D1B24C4AD15480
:10138000FA884C4913465B0013449B000B4404331A
:10139000B3F90020FB88A2335B00D1B2444AD15498
:1013A000FA88444913465B0013449B000B44043302
:1013B000B3F900301B121AB2FB885B0003F245132D
:1013C000D1B23B4AD154FA883A4913465B001344E0
:1013D0009B000B440633B3F90020FB88F2335B001B
:1013E000D1B2334AD154FA88324913465B001344D0
:1013F0009B000B440633B3F900301B121AB2FB8872
:101400005B0003F2E513D1B2294AD154FA88294985
:1014100013465B0013449B000B440833B3F90020D0
:10142000FB8803F5A1735B00D1B2214AD154FA883D
:10143000204913465B0013449B000B440833B3F967
:1014400000301B121AB2FB885B0003F28523D1B275
:10145000174AD154FA88174913465B0013449B007E
:101460000B440A33B3F90020FB8803F5C9735B0012
:10147000D1B20F4AD154FA880E4913465B00134487
:101480009B000B440A33B3F900301B121AB2FB88DD
:101490005B0003F22533D1B2054AD154FB880133F6
:1014A000FB80FB884F2B7FF629AF0023BB8096E0A3
:1014B0005C4E0120DCFD00205A4B1B781A464FF48D
:1014C000965303FB02F1BA8813465B0013440B44A6
:1014D000554A32F81320BB8803F5F1735B00D1B293
:1014E000524AD1544F4B1B781A464FF4965303FB84
:1014F00002F1BA8813465B0013440B444A4A32F89F
:1015000013301B0A9AB2BB885B0003F2C533D1B219
:10151000464AD154434B1B781A464FF4965303FB6B
:1015200002F1BA8813465B0013440B4401333E4A70
:1015300032F81320BB8803F622035B00D1B23B4A8A
:10154000D154384B1B781A464FF4965303FB02F1E3
:10155000BA8813465B0013440B440133324A32F815
:1015600013301B0A99B2BB885A0041F24503134459
:10157000C9B22E4AD1542B4B1B781A464FF49653BE
:1015800003FB02F1BA8813465B0013440B44023399
:10159000254A32F81320BB8803F662635B00D1B2A0
:1015A000224AD1541F4B1B781A464FF4965303FB23
:1015B00002F1BA8813465B0013440B4402331A4A03
:1015C00032F813301B0A99B2BB885A0041F6C54362
:1015D0001344C9B2154AD154BB880133BB80BB88C0
:1015E000B3F5C86FFFF468AF104B03F50053C82282
:1015F00083F844290D4B03F500531E2283F8452937
:101600000A4B03F500530F2283F84629074B03F5D5
:101610000053C82283F8472900BF0C37BD465DF848
:10162000047B7047140201205C0301205C4E012002
:1016300080B500AF44F6206342F6481204490548DD
:1016400006F0D0FE03461A46034B1A7000BF80BD59
:101650005C4E0120D07801201502012080B582B0B7
:1016600000AF42F64813FB805023BB80FFF720FEFB
:10167000FB881A4626492748FFF7D8FD2649254802
:10168000FFF7D4FD25492348FFF7D0FDBB881A4654
:1016900023492048FFF7CAFD22491E48FFF7C6FD2F
:1016A00021491C48FFF7C2FD20491A48FFF7BEFD3B
:1016B0001F491848FFF7BAFD1E491648FFF7B6FD47
:1016C0001D491448FFF7B2FD1C491248FFF7AEFD53
:1016D0001B491048FFF7AAFD1A490E48FFF7A6FD5F
:1016E00019490C48FFF7A2FD0A4B03F57043B3F804
:1016F000002A44F620630749144806F073FE0346A7
:101700001A46134B1A7000BF0837BD4680BD00BF94
:10171000A0E8000800000020B8E80008D4E80008AD
:10172000F0E8000810E9000820E900088CE900084A
:10173000FCE900086CEA0008DCEA00084CEB000851
:10174000BCEB00082CEC00089CEC0008D0780120D1
:101750001502012080B582B000AF1A4B1B6B194AED
:1017600043F400131363174B1B6B03F400137B60EC
:101770007B68144B1B6B134A43F480031363114BB8
:101780001B6B03F480033B603B68002200210C20AC
:1017900002F0F3F90C2002F00CFA002200210F20D5
:1017A00002F0EBF90F2002F004FA002200213820A9
:1017B00002F0E3F9382002F0FCF900BF0837BD461B
:1017C00080BD00BF0038024080B500AF1F4B204AEB
:1017D0001A60204B00221A701E4B80225A701D4B3B
:1017E000E1229A701B4B0022DA701A4B00221A7108
:1017F000184B00225A71154B164A5A60134B4FF47E
:1018000000029A60114B144ADA60104B134A1A61B5
:101810000E4B40F2F4525A610C4802F0EFFD0346C1
:10182000002B01D000F034FB382200210C4809F0D5
:1018300053F80B4B21221A60094B4FF440025A61B6
:10184000074B00221A6100BF80BD00BF500201207B
:10185000008002400003012078FC0020D8FB00201B
:101860001802012080B58EB000AF786007F1240324
:1018700000221A605A609A60DA601A617B681B68FD
:101880004E4A934240F096804D4B1B6B4C4A43F0BE
:10189000007313634A4B1B6B03F000733B623B6A9C
:1018A000474B1B6B464A43F080631363444B1B6BEF
:1018B00003F08063FB61FB69414B1B6B404A43F0C3
:1018C000006313633E4B1B6B03F00063BB61BB699A
:1018D0003B4B1B6B3A4A43F004031363384B1B6BBF
:1018E00003F004037B617B69354B1B6B344A43F087
:1018F00001031363324B1B6B03F001033B613B6934
:101900002F4B1B6B2E4A43F0020313632C4B1B6BB4
:1019100003F00203FB60FB68294B1B6B284A43F072
:1019200040031363264B1B6B03F04003BB60BB6893
:1019300032237B620223BB620023FB6203233B63EF
:101940000B237B6307F1240319461E4803F07CF840
:1019500086237B620223BB620023FB6203233B637B
:101960000B237B6307F124031946174803F06CF837
:101970004FF400537B620223BB620023FB6203230C
:101980003B630B237B6307F1240319460F4803F0E5
:101990005BF84FF420537B620223BB620023FB629F
:1019A00003233B630B237B6307F124031946084899
:1019B00003F04AF800BF3837BD4680BD00800240C2
:1019C00000380240000802400000024000040240CB
:1019D0000018024080B58CB000AF07F11C03002254
:1019E0001A605A609A60DA601A61714B1B6B704A18
:1019F00043F0040313636E4B1B6B03F00403BB61E2
:101A0000BB696B4B1B6B6A4A43F080031363684BE3
:101A10001B6B03F080037B617B69654B1B6B644A26
:101A200043F001031363624B1B6B03F001033B6143
:101A30003B695F4B1B6B5E4A43F0020313635C4BD5
:101A40001B6B03F00203FB60FB68594B1B6B584A8E
:101A500043F008031363564B1B6B03F00803BB6092
:101A6000BB68534B1B6B524A43F040031363504B0C
:101A70001B6B03F040037B607B68012220214D48F3
:101A800003F08EF9002244F281414B4803F088F9BB
:101A900000224021494803F083F94FF40053FB61D1
:101AA0004FF488133B6200237B6207F11C03194645
:101AB000434802F0C9FF2023FB6101233B6202235C
:101AC0007B620323BB6207F11C031946394802F00D
:101AD000BBFF44F28103FB6101233B6200237B6275
:101AE0000023BB6207F11C031946334802F0ACFF28
:101AF0004FF48063FB6101233B6200237B6203237D
:101B0000BB6207F11C0319462B4802F09DFF4023DE
:101B1000FB6101233B6200237B620023BB6207F170
:101B20001C031946254802F08FFF8023FB61002328
:101B30003B6200237B6207F11C0319461F4802F039
:101B400083FF4FF4E853FB6102233B6200237B6277
:101B50000323BB620A23FB6207F11C0319461548E5
:101B600002F072FF4FF40073FB6100233B6200231D
:101B70007B6207F11C0319460E4802F065FF012342
:101B8000FB614FF488133B6200237B6207F11C0367
:101B900019460C4802F058FF00220021062001F0EF
:101BA000ECFF062002F005F800BF3037BD4680BDCF
:101BB00000380240000002400004024000180240C9
:101BC00000080240000C024080B500AF1B4B1C4ACD
:101BD0001A601A4B1B4A5A60184B00229A60174B26
:101BE0000122DA60154B00221A61144B00225A615F
:101BF000124B00229A61114B0022DA610F4B002236
:101C00001A620E4803F00AF90346002B01D000F0D7
:101C10003FF90021094803F059FE0346002B01D08B
:101C200000F036F90021054803F09BFE0346002B27
:101C300001D000F02DF900BF80BD00BF08030120D6
:101C4000005400400D03006080B5AAB000AF78607A
:101C500007F1940300221A605A609A60DA601A61F0
:101C600007F1100384220021184608F035FE7B6836
:101C70001B68224A93423CD14FF480433B610023CE
:101C80007B6707F11003184604F0E2FB0346002BC4
:101C900001D000F0FDF81A4B1B6B194A43F0020308
:101CA0001363174B1B6B03F00203FB60FB684FF4DD
:101CB0004073C7F894301223C7F898300023C7F850
:101CC0009C300323C7F8A0300423C7F8A43007F1E1
:101CD000940319460B4802F0B7FE094B1B6C084AE7
:101CE00043F400131364064B1B6C03F40013BB6036
:101CF000BB6800BFA837BD4680BD00BF0054004090
:101D0000003802400004024080B500AF01F09BF8AB
:101D100000F050F8FFF71EFDFFF75CFEFFF71AFD1D
:101D200000F06AFFFFF750FFFFF74EFD00F038FCB0
:101D3000FFF778F900F020FD00F0A8FCFFF78EFC1B
:101D400000BF144800F0AAF80346012BF9D011484F
:101D500000F079FA104804F0C3FF104804F0C0FF07
:101D60000F4B1B6800221A640C210D4805F092F8F5
:101D70004FF416520B490C4801F03AFA002106487C
:101D800005F082F908220949094806F0AEFB00BFB8
:101D9000FDE700BF0803012040780120F47701200F
:101DA000A87701205C03012034FD0020B0780120D9
:101DB000D078012080B594B000AF07F12003302225
:101DC0000021184608F088FD07F10C0300221A6074
:101DD0005A609A60DA601A6103F010FE2A4B1B6C9D
:101DE000294A43F080531364274B1B6C03F0805344
:101DF000BB60BB68254B1B68244A43F44043136017
:101E0000224B1B6803F440437B607B6801233B62E9
:101E10004FF4A0237B620223BB634FF48003FB6378
:101E200004233B64D8237B640223BB640323FB6449
:101E300007F12003184603F041FE0346002B01D0B2
:101E400000F026F803F0EAFD0346002B01D000F075
:101E50001FF80F23FB6002233B6100237B614FF4DB
:101E6000A053BB614FF48053FB6107F10C030721C2
:101E7000184604F0C7F80346002B01D000F008F81C
:101E800000BF5037BD4680BD0038024000700040A2
:101E900080B400AF72B600BF00BFFDE780B588B068
:101EA00004AF7860642302930123019307F10F03C9
:101EB000009301237522D021786803F053F9FB7B4E
:101EC000682B79D10023BB73642302930123019310
:101ED00007F10E03009301236B22D021786803F0F1
:101EE0002DF80723BB73642302930123019307F1A9
:101EF0000E03009301231922D021786803F01EF805
:101F00000023BB73642302930123019307F10E03A3
:101F1000009301231C22D021786803F00FF80023DE
:101F2000BB73642302930123019307F10E03009313
:101F300001231B22D021786803F000F80423BB732F
:101F4000642302930123019307F10E0300930123FD
:101F50006A22D021786802F0F1FF4023BB7364232A
:101F600002930123019307F10E03009301236A22D8
:101F7000D021786802F0E2FF0023BB736423029350
:101F80000123019307F10E03009301232322D021A3
:101F9000786802F0D3FF4023BB73642302930123CC
:101FA000019307F10E03009301236A22D021786880
:101FB00002F0C4FF002300E0012318461037BD469D
:101FC00080BD80B588B004AF78606423029302239B
:101FD000019307F10C03009301237222D02178684A
:101FE00003F0C0F83B7B1B021AB27B7B1BB213438E
:101FF0001BB2FB81FB8918461037BD4680BD2DE919
:10200000F0438DB004AFF860B9601346FB806B46B7
:102010001E460023BB77F9880B46013BBB618BB2A0
:102020000022984691464FF000024FF000034FEA1D
:10203000C90343EA58734FEAC8028BB200221C4618
:1020400015464FF000024FF00003EB0043EA5473D3
:10205000E2000B460733DB08DB00ADEB030D04ABFE
:1020600000337B610023FB7764230293FB88019399
:102070007B69009301237422D021F86803F072F881
:10208000D7E0B97FFA7F13465B0013449B000B44F3
:102090007A69D35C1B0218B2BB7F591CFA7F1346C6
:1020A0005B0013449B000B447A69D35C19B2FA7F3E
:1020B00013465B0013449B001A46BB68134440EA76
:1020C000010212B21A80BB7F991CFA7F13465B0093
:1020D00013449B000B447A69D35C1B0218B2BB7F8C
:1020E000D91CFA7F13465B0013449B000B447A69AA
:1020F000D35C19B2FA7F13465B0013449B001A4667
:10210000BB68134440EA010212B25A80BB7F191D1A
:10211000FA7F13465B0013449B000B447A69D35C3F
:102120001B0218B2BB7F591DFA7F13465B00134494
:102130009B000B447A69D35C19B2FA7F13465B00AB
:1021400013449B001A46BB68134440EA010212B2D2
:102150009A80BB7F991DFA7F13465B0013449B0056
:102160000B447A69D35C1B0218B2BB7FD91DFA7F7E
:1021700013465B0013449B000B447A69D35C19B28D
:10218000FA7F13465B0013449B001A46BB68134456
:1021900040EA010212B2DA80BB7F03F10801FA7F44
:1021A00013465B0013449B000B447A69D35C1B020B
:1021B00018B2BB7F03F10901FA7F13465B00134499
:1021C0009B000B447A69D35C19B2FA7F13465B001B
:1021D00013449B001A46BB68134440EA010212B242
:1021E0001A81BB7F03F10A01FA7F13465B00134497
:1021F0009B000B447A69D35C1B0218B2BB7F03F1CE
:102200000B01FA7F13465B0013449B000B447A6971
:10221000D35C19B2FA7F13465B0013449B001A4645
:10222000BB68134440EA010212B25A81FB7F0133BA
:10223000FB77FB7F4F2B7FF624AFB54600BF2437DB
:10224000BD46BDE8F08380B588B004AF78607823E0
:10225000FB73642302930123019307F10F0300939F
:1022600001232322D021786802F068FE0423FB7347
:10227000642302930123019307F10F0300930123C9
:102280006A22D021786802F059FE4023FB73642350
:1022900002930123019307F10F03009301236A22A4
:1022A000D021786802F04AFE00BF1037BD4680BDDD
:1022B00080B483B000AF0F4B1B6C0E4A43F08053C9
:1022C00013640C4B1B6C03F080537B607B68094BE1
:1022D0005B6C084A43F480435364064B5B6C03F425
:1022E00080433B603B6800BF0C37BD465DF8047B14
:1022F000704700BF0038024080B400AF00BFFDE768
:1023000080B400AF00BFFDE780B400AF00BFFDE7C1
:1023100080B400AF00BFFDE780B400AF00BFFDE7B1
:1023200080B400AF00BFBD465DF8047B704780B449
:1023300000AF00BFBD465DF8047B704780B400AFBE
:1023400000BFBD465DF8047B704780B500AF00F06C
:10235000B7FD00BF80BD80B500AF012002F03AFD9F
:1023600000BF80BD80B500AF024801F0DDFD00BFB9
:1023700080BD00BFB879012080B500AF024801F0F0
:10238000D3FD00BF80BD00BF5879012080B500AFEC
:10239000024800F01DFE00BF80BD00BF34FD0020DC
:1023A00080B500AF024804F0B7FF00BF80BD00BF9A
:1023B000F477012080B500AF024806F0DBF800BFDB
:1023C00080BD00BFD078012080B500AF024804F086
:1023D000A3FF00BF80BD00BF4078012080B500AFE3
:1023E000024801F0A1FD00BF80BD00BF7CFD0020C0
:1023F00080B400AF01231846BD465DF8047B7047EA
:1024000080B582B000AF7860396008F0B7FA034653
:1024100016221A604FF0FF3318460837BD4680BDBC
:1024200080B582B000AF78604FF0FF317868FFF779
:10243000E7FF00BFFDE780B586B000AFF860B96088
:102440007A6000237B610AE0AFF300800146BB683D
:102450005A1CBA60CAB21A707B6901337B617A690F
:102460007B689A42F0DB7B6818461837BD4680BD12
:1024700080B586B000AFF860B9607A6000237B61F8
:1024800009E0BB685A1CBA601B781846AFF300809D
:102490007B6901337B617A697B689A42F1DB7B68F7
:1024A00018461837BD4680BD80B483B000AF786051
:1024B0004FF0FF3318460C37BD465DF8047B70477C
:1024C00080B483B000AF786039603B684FF400524D
:1024D0005A60002318460C37BD465DF8047B7047F0
:1024E00080B483B000AF7860012318460C37BD4636
:1024F0005DF8047B704780B485B000AFF860B960C8
:102500007A60002318461437BD465DF8047B704797
:1025100080B586B000AF7860144A154BD31A7B6142
:102520007B693B61134B1B68002B02D1114B124A94
:102530001A60104B1A687B6813443A699A4207D2B2
:1025400008F01CFA03460C221A604FF0FF3309E032
:10255000084B1B68FB60074B1A687B681344054AED
:102560001360FB6818461837BD4680BD0000052083
:1025700000040000A4770120687B012080B400AF34
:10258000064BD3F88830054A43F47003C2F888300C
:1025900000BFBD465DF8047B704700BF00ED00E062
:1025A00080B58EB000AF07F1280300221A605A6090
:1025B0009A60DA6007F11C0300221A605A609A6080
:1025C0003B4600221A605A609A60DA601A615A61CA
:1025D0009A612D4B4FF080421A602B4B0A225A60B1
:1025E000294B00229A60284B4FF47A72DA60264B0E
:1025F00000221A61244B80229A61234804F018FBC0
:102600000346002B01D0FFF743FC4FF48053BB621D
:1026100007F1280319461C4805F0B2F80346002BC1
:1026200001D0FFF735FC184804F0D2FB0346002B1D
:1026300001D0FFF72DFC0023FB6100237B6207F133
:102640001C031946104805F055FD0346002B01D028
:10265000FFF71EFC60233B6000237B600023BB6010
:1026600000233B613B460C221946074804F074FFE7
:102670000346002B01D0FFF70BFC034800F07AF96A
:1026800000BF3837BD4680BDA877012080B58EB029
:1026900000AF07F1280300221A605A609A60DA60DE
:1026A00007F11C0300221A605A609A603B46002220
:1026B0001A605A609A60DA601A615A619A612C4B0A
:1026C0002C4A1A602A4B40F2BF625A60284B002203
:1026D0009A60274B49F63F42DA60254B00221A6187
:1026E000234B00229A61224804F0A2FA0346002BF1
:1026F00001D0FFF7CDFB4FF48053BB6207F12803F5
:1027000019461B4805F03CF80346002B01D0FFF7A3
:10271000BFFB174804F05CFB0346002B01D0FFF71A
:10272000B7FB2023FB6100237B6207F11C031946E2
:102730000F4805F0DFFC0346002B01D0FFF7A8FB94
:1027400060233B6000237B600023BB6000233B6170
:102750003B4600221946064804F0FEFE0346002BC5
:1027600001D0FFF795FB00BF3837BD4680BD00BFE5
:10277000F47701200004004080B59AB000AF07F163
:10278000580300221A605A609A60DA6007F14C031D
:1027900000221A605A609A6007F1300300221A6022
:1027A0005A609A60DA601A615A619A613B1D2C2264
:1027B0000021184608F090F8424B434A1A60414BFA
:1027C00000225A603F4B00229A603E4B42F62F2275
:1027D000DA603C4B00221A613A4B00225A61394BB5
:1027E00000229A61374804F023FA0346002B01D0F7
:1027F000FFF74EFB4FF48053BB6507F158031946B2
:10280000304804F0BDFF0346002B01D0FFF740FB2A
:102810002C4804F0DDFA0346002B01D0FFF738FB0B
:102820002023FB6400233B6500237B6507F14C03F9
:102830001946244805F05EFC0346002B01D0FFF743
:1028400027FB60233B6300237B630023BB630023E0
:10285000FB6300233B6400237B640023BB6407F11C
:10286000300300221946174804F076FE0346002B79
:1028700001D0FFF70DFB00237B600023BB6000232A
:10288000FB6000233B6100237B614FF40053BB617D
:102890000023FB6100233B624FF000737B62002347
:1028A000BB620023FB623B1D1946064805F0B0FCE5
:1028B0000346002B01D0FFF7EBFA00BF6837BD4697
:1028C00080BD00BF407801200004014080B586B083
:1028D00000AF78607B681B68B3F1804F0CD1224B4E
:1028E0001B6C214A43F0010313641F4B1B6C03F064
:1028F00001037B617B6932E07B681B681B4A934262
:1029000014D1194B1B6C184A43F002031364164B85
:102910001B6C03F002033B613B69002200211D2078
:1029200001F02BF91D2001F044F918E07B681B68C9
:102930000F4A934213D10C4B5B6C0B4A43F00203DA
:102940005364094B5B6C03F00203FB60FB680022DD
:1029500000212C2001F011F92C2001F02AF900BFF0
:102960001837BD4680BD00BF00380240000400405B
:102970000004014080B588B000AF786007F10C0317
:1029800000221A605A609A60DA601A617B681B68DC
:10299000B3F1804F1CD1104B1B6B0F4A43F0020365
:1029A00013630D4B1B6B03F00203BB60BB684FF45A
:1029B0000063FB6002233B6100237B610023BB615A
:1029C0000123FB6107F10C031946044802F03CF8AF
:1029D00000BF2037BD4680BD0038024000040240E1
:1029E00080B582B000AF7860234B00225A62224B40
:1029F0005B6A1A46214B1A60214B00221A7021484B
:102A0000FFF7DFFA03461A461F4B1A8006E01D48FF
:102A1000FFF7D7FA03461A461B4B1A801A4B1A883F
:102A20001A4BA3FB0213D9080B465B000B449B0017
:102A3000D31A9BB2002BEAD1134B1B881A461449B8
:102A40001048FFF7DCFA0C4B5B6A1A46114B1A6010
:102A5000FEF742FCFEF7ECFD074B5B6A1A460E4B95
:102A60001A600D4B1A68054B1B68D31A0B4A13608A
:102A700000BF0837BD4680BD0004004090780120AB
:102A800014020120080301208C780120ABAAAAAA15
:102A9000DCFD0020A878012094780120987801209E
:102AA00080B582B000AF7860224B5B6A1A46224B39
:102AB0001A60224B01221A702148FFF782FA03465E
:102AC0001A46204B1A8006E01D48FFF77AFA0346A3
:102AD0001A461C4B1A801B4B1A881B4BA3FB021374
:102AE000D9080B465B000B449B00D31A9BB2002B0A
:102AF000EAD1144B1B881A4614491148FFF77FFA94
:102B00000C4B5B6A1A46124B1A60FEF7E5FBFEF7A8
:102B10008FFD084B5B6A1A460E4B1A600D4B1A6804
:102B2000054B1B68D31A0C4A136000BF0837BD461B
:102B300080BD00BF000400409C78012014020120E9
:102B4000080301208C780120ABAAAAAADCFD002092
:102B5000AC780120A0780120A478012080B483B053
:102B600000AF78607B681B68054A934202D1054B31
:102B700000221A7000BF0C37BD465DF8047B704719
:102B800000480040CE78012080B584B000AF786066
:102B90000023BB810023FB817B681B68114A9342A1
:102BA0001CD107F10C031A460F49104807F0ECFD41
:102BB000BB891A46920013445B00FB81FB89B3F585
:102BC0007A7F02D94FF47A73FB81094B1B68FA892B
:102BD0001A6408220549074805F087FC00BF103732
:102BE000BD4680BD0048004010ED0008B0780120CF
:102BF000A8770120D078012080B500AF134B144A8C
:102C00001A60124B134A5A60104B00229A600F4B05
:102C10000022DA600D4B00221A610C4B0C225A6123
:102C20000A4B00229A61094B0022DA61074B00220D
:102C30001A62064B00225A62044805F085FB0346DF
:102C4000002B01D0FFF724F900BF80BDD078012010
:102C5000004800401055220080B5AAB000AF78604F
:102C600007F1940300221A605A609A60DA601A61D0
:102C700007F1100384220021184607F02DFE7B681F
:102C80001B68554A934240F0A2804FF480733B6129
:102C90000023FB6507F11003184603F0D9FB034638
:102CA000002B01D0FFF7F4F84C4B1B6C4B4A43F45C
:102CB00080231364494B1B6C03F48023FB60FB6887
:102CC000464B1B6B454A43F008031363434B1B6B96
:102CD00003F00803BB60BB684FF44073C7F894303F
:102CE0000223C7F898300023C7F89C300323C7F8A5
:102CF000A0300723C7F8A43007F1940319463848D9
:102D000001F0A2FE374B384A1A60364B4FF0606232
:102D10005A60344B40229A60324B0022DA60314BC9
:102D20004FF480621A612F4B00225A612D4B002212
:102D30009A612C4B0022DA612A4B4FF480321A62DE
:102D4000284B00225A62274800F04EFF0346002B12
:102D500001D0FFF79DF87B68224A1A67214A7B68F9
:102D60009363224B224A1A60204B4FF000625A6054
:102D70001E4B00229A601D4B0022DA601B4B4FF461
:102D800080621A61194B00225A61184B00229A6125
:102D9000164B0022DA61154B00221A62134B0022F7
:102DA0005A62124800F020FF0346002B01D0FFF7C3
:102DB0006FF87B680D4A5A670C4A7B689363002260
:102DC0000021272000F0D9FE272000F0F2FE00BFEE
:102DD000A837BD4680BD00BF004800400038024013
:102DE000000C02405879012070600240B87901203F
:102DF00028600240DFF834D00D480E490E4A002307
:102E000002E0D458C4500433C4188C42F9D30B4A9E
:102E10000B4C002301E013600432A242FBD3FFF706
:102E2000ADFB07F0B1FDFEF76FFF70470000052016
:102E300000000020D8FB0020A4F1000818FD0020AD
:102E4000687B0120FEE780B500AF032000F08AFE1A
:102E5000002000F005F8FFF72BFA0023184680BD8C
:102E600080B582B000AF7860124B1A68124B1B78A5
:102E700019464FF47A73B3FBF1F3B2FBF3F3184640
:102E800000F0A5FE0346002B01D001230EE07B6875
:102E90000F2B0AD8002279684FF0FF3000F06DFE4A
:102EA000064A7B681360002300E0012318460837B8
:102EB000BD4680BD04FA00200CFA002008FA00206C
:102EC00080B400AF064B1B781A46064B1B681344B0
:102ED000044A136000BFBD465DF8047B704700BF25
:102EE0000CFA0020187A012080B400AF034B1B6855
:102EF0001846BD465DF8047B704700BF187A012074
:102F000080B584B000AF7860FFF7EEFFB8607B68F3
:102F1000FB60FB68B3F1FF3F05D00A4B1B781A46F4
:102F2000FB681344FB6000BFFFF7DEFF0246BB688F
:102F3000D31AFA689A42F7D800BF00BF1037BD46CF
:102F400080BD00BF0CFA002080B584B000AF78606F
:102F50000023FB737B68002B01D1012331E07B68E8
:102F60001B6C002B09D17868FEF7CAF87B68002239
:102F70005A647B68002283F83C207B681B6C03F05A
:102F80001003002B16D17B681A6C104B134043F0D2
:102F900002027B681A64786800F08EFB7B6800226E
:102FA0005A647B681B6C23F0030343F001027B68C7
:102FB0001A6401E00123FB737B68002283F83C2044
:102FC000FB7B18461037BD4680BD00BFFDEEFFFFFE
:102FD00080B586B000AF786000237B6100233B6141
:102FE0007B681B681B68FB607B681B685B68BB6059
:102FF000FB6803F002037B61BB6803F020033B61C5
:103000007B69002B49D03B69002B46D07B681B6C49
:1030100003F01003002B05D17B681B6C43F4007296
:103020007B681A647B681B689B6803F04053002B25
:103030002BD17B689B69002B27D17B681B68DB6ADF
:1030400003F47003002B06D07B681B689B6803F4B5
:103050008063002B19D17B681B685A687B681B68EA
:1030600022F020025A607B681B6C23F480727B681C
:103070001A647B681B6C03F48053002B05D17B68BA
:103080001B6C43F001027B681A647868FFF708FD47
:103090007B681B686FF012021A60FB6803F0040380
:1030A0007B61BB6803F080033B617B69002B57D0D9
:1030B0003B69002B54D07B681B6C03F01003002B82
:1030C00005D17B681B6C43F400527B681A647B68F3
:1030D0001B689B6803F44013002B39D17B681B6885
:1030E0009B6B03F44013002B06D07B681B689B6826
:1030F00003F48063002B2BD17B681B685B6803F4AF
:103100008063002B24D17B681B689B6803F04053CD
:10311000002B1DD17B689B69002B19D17B681B6834
:103120005A687B681B6822F080025A607B681B6CBF
:1031300023F480527B681A647B681B6C03F48073F1
:10314000002B05D17B681B6C43F001027B681A647D
:10315000786800F02DFC7B681B686FF00C021A6029
:10316000FB6803F001037B61BB6803F040033B6134
:103170007B69002B17D03B69002B14D07B681B6840
:103180001B6803F00103012B0DD17B681B6C43F41A
:1031900080327B681A64786800F024F97B681B68C9
:1031A0006FF001021A60FB6803F020037B61BB68CB
:1031B00003F080633B617B69002B15D03B69002BDA
:1031C00012D07B685B6C43F002027B685A647B68B8
:1031D0001B686FF020021A60786800F00DF97B68B8
:1031E0001B686FF020021A6000BF1837BD4680BD13
:1031F00080B586B000AFF860B9607A6000237B616B
:10320000FB6893F83C30012B01D10223D4E0FB682A
:10321000012283F83C20FB681B689B6803F00103D4
:10322000012B18D0FB681B689A68FB681B6842F08A
:1032300001029A60624B1B68624AA2FB03239A0C4C
:1032400013465B0013447B6102E07B69013B7B61B9
:103250007B69002BF9D1FB681B689B6803F00103B5
:10326000012B40F09C80FB681A6C574B134043F4D1
:103270008072FB681A64FB681B685B6803F48063F8
:10328000002B07D0FB681B6C23F4405343F480529F
:10329000FB681A64FB681B6C03F48053B3F5805F12
:1032A00006D1FB685B6C23F00602FB685A6402E0FF
:1032B000FB6800225A64FB68002283F83C20FB680C
:1032C0009B6B424ADA63FB689B6B414A1A64FB685A
:1032D0009B6B404ADA64FB681B686FF022021A603D
:1032E000FB681B685A68FB681B6842F080625A6082
:1032F000FB681B689A68FB681B6842F480729A60DE
:10330000FB68986BFB681B684C331946BA687B688E
:1033100000F018FD304B5B6803F01F03002B0FD14A
:10332000FB681B689B6803F04053002B43D1FB688C
:103330001B689A68FB681B6842F080429A603AE01A
:10334000FB681B68254A93420ED1FB681B689B688B
:1033500003F04053002B07D1FB681B689A68FB6899
:103360001B6842F080429A601B4B5B6803F01003BD
:10337000002B20D1FB681B68194A93421BD1FB68C4
:103380001B689B6803F04053002B14D1FB681B683B
:103390009A68FB681B6842F080429A600BE0FB6809
:1033A0001B6C43F01002FB681A64FB685B6C43F013
:1033B0000102FB685A64002318461837BD4680BDD9
:1033C00004FA002083DE1B43FEF8FFFFAD3800083F
:1033D00067390008833900080023014000200140BC
:1033E0000022014080B483B000AF786000BF0C378A
:1033F000BD465DF8047B704780B483B000AF786051
:1034000000BF0C37BD465DF8047B704780B485B0C3
:1034100000AF786039600023FB607B6893F83C3034
:10342000012B01D1022336E17B68012283F83C2085
:103430003B681B68092B3AD93B681B68B3F1004F06
:1034400035D07B681B68D9683B681B689BB21A46FD
:1034500013465B0013441E3B072202FA03F3DA43D0
:103460007B681B680A40DA603B681B688D4A9342A0
:103470000AD17B681B68D9683B689B681A067B6821
:103480001B680A43DA6035E07B681B68D9683B68D3
:103490009A683B681B689BB2184603465B0003446E
:1034A0001E3B9A407B681B680A43DA6022E07B6817
:1034B0001B6819693B681B689BB21A4613465B0080
:1034C0001344072202FA03F3DA437B681B680A40BD
:1034D0001A617B681B6819693B689A683B681B68BE
:1034E0009BB2184603465B0003449A407B681B6806
:1034F0000A431A613B685B68062B24D87B681B680B
:10350000596B3B685A6813469B001344053B1F22C6
:1035100002FA03F3DA437B681B680A405A637B684C
:103520001B68596B3B681B689BB218463B685A681E
:1035300013469B001344053B00FA03F27B681B68AB
:103540000A435A634CE03B685B680C2B24D87B68C9
:103550001B68196B3B685A6813469B001344233B56
:103560001F2202FA03F3DA437B681B680A401A63DE
:103570007B681B68196B3B681B689BB218463B68ED
:103580005A6813469B001344233B00FA03F27B68FE
:103590001B680A431A6323E07B681B68D96A3B688F
:1035A0005A6813469B001344413B1F2202FA03F35F
:1035B000DA437B681B680A40DA627B681B68D96A59
:1035C0003B681B689BB218463B685A6813469B00D1
:1035D0001344413B00FA03F27B681B680A43DA623A
:1035E0007B681B68304A93420AD13B681B68B3F181
:1035F000004F05D12D4B5B682C4A23F440035360E8
:103600007B681B68284A93420FD13B681B68122BCA
:103610000BD1264B5B68254A23F400035360234BF0
:103620005B68224A43F4800353607B681B681E4A30
:1036300093422BD13B681B681A4A934203D03B68E4
:103640001B68112B22D1194B5B68184A23F48003A5
:103650005360164B5B68154A43F4000353603B68A4
:103660001B68104A934211D1114B1B68114AA2FBEF
:1036700003239A0C13469B0013445B00FB6002E09B
:10368000FB68013BFB60FB68002BF9D17B680022E3
:1036900083F83C20002318461437BD465DF8047BB0
:1036A000704700BF120000100020014000230140BD
:1036B00004FA002083DE1B4380B483B000AF78603F
:1036C000784B5B68774A23F440335360754B5A68F4
:1036D0007B685B68734913434B607B681B685A685F
:1036E0007B681B6822F480725A607B681B6859688B
:1036F0007B681B691A027B681B680A435A607B68F7
:103700001B685A687B681B6822F040725A607B68AD
:103710001B6859687B689A687B681B680A435A6013
:103720007B681B689A687B681B6822F400629A6059
:103730007B681B6899687B68DA687B681B680A434A
:103740009A607B689B6A584A934222D07B681B68C8
:103750009A687B681B6822F070629A607B681B68BD
:1037600099687B689A6A7B681B680A439A607B68E1
:103770001B689A687B681B6822F040529A607B68DD
:103780001B6899687B68DA6A7B681B680A439A60E1
:103790000FE07B681B689A687B681B6822F0706288
:1037A0009A607B681B689A687B681B6822F04052AD
:1037B0009A607B681B689A687B681B6822F002022B
:1037C0009A607B681B6899687B689B695A007B6874
:1037D0001B680A439A607B6893F82030002B1BD04B
:1037E0007B681B685A687B681B6842F400625A60F9
:1037F0007B681B685A687B681B6822F460425A60C9
:103800007B681B6859687B685B6A013B5A037B686D
:103810001B680A435A6007E07B681B685A687B682C
:103820001B6822F400625A607B681B68DA6A7B6856
:103830001B6822F47002DA627B681B68D96A7B68B5
:10384000DB69013B1A057B681B680A43DA627B6807
:103850001B689A687B681B6822F400729A607B6818
:103860001B6899687B6893F830305A027B681B6844
:103870000A439A607B681B689A687B681B6822F41D
:1038800080629A607B681B6899687B685B699A02B2
:103890007B681B680A439A6000BF0C37BD465DF821
:1038A000047B7047002301400100000F80B584B005
:1038B00000AF78607B689B6BFB60FB681B6C03F060
:1038C0005003002B3CD1FB681B6C43F40072FB6877
:1038D0001A64FB681B689B6803F04053002B2BD1D4
:1038E000FB689B69002B27D1FB681B68DB6A03F42C
:1038F0007003002B06D0FB681B689B6803F4806391
:10390000002B19D1FB681B685A68FB681B6822F002
:1039100020025A60FB681B6C23F48072FB681A64F7
:10392000FB681B6C03F48053002B05D1FB681B6CF8
:1039300043F00102FB681A64F868FFF7B1F80EE083
:10394000FB681B6C03F01003002B03D0F868FFF733
:1039500053FD04E0FB689B6BDB6C7868984700BF05
:103960001037BD4680BD80B584B000AF78607B68FD
:103970009B6BFB60F868FFF733F800BF1037BD465C
:1039800080BD80B584B000AF78607B689B6BFB60C6
:10399000FB6840221A64FB685B6C43F00402FB681E
:1039A0005A64F868FFF728FD00BF1037BD4680BD98
:1039B00080B483B000AF786000BF0C37BD465DF8BF
:1039C000047B704780B485B000AF78607B6803F0FB
:1039D0000703FB600B4BDB68BB60BA684FF6FF0365
:1039E0001340BB60FB681A02BB681A43064B1343C3
:1039F000BB60044ABB68D36000BF1437BD465DF8A6
:103A0000047B704700ED00E00000FA0580B400AFD1
:103A1000044BDB681B0A03F007031846BD465DF83C
:103A2000047B704700ED00E080B483B000AF034634
:103A3000FB7197F90730002B0BDBFB7903F01F02BA
:103A4000074997F907305B09012000FA02F241F8B3
:103A5000232000BF0C37BD465DF8047B704700BFD4
:103A600000E100E080B483B000AF03463960FB7131
:103A700097F90730002B0ADB3B68DAB20C4997F95B
:103A800007301201D2B20B4483F800230AE03B68EE
:103A9000DAB20849FB7903F00F03043B1201D2B2FA
:103AA0000B441A7600BF0C37BD465DF8047B7047A7
:103AB00000E100E000ED00E080B489B000AFF86004
:103AC000B9607A60FB6803F00703FB61FB69C3F12F
:103AD0000703042B28BF0423BB61FB690433062BB7
:103AE00002D9FB69033B00E000237B614FF0FF320A
:103AF000BB6902FA03F3DA43BB681A407B699A4058
:103B00004FF0FF317B6901FA03F3D9437B680B4027
:103B1000134318462437BD465DF8047B7047000008
:103B200080B582B000AF78607B68013BB3F1807FE5
:103B300001D301230FE00A4A7B68013B53600F2148
:103B40004FF0FF30FFF78EFF054B00229A60044BC9
:103B500007221A60002318460837BD4680BD00BF03
:103B600010E000E080B582B000AF78607868FFF7C1
:103B700029FF00BF0837BD4680BD80B586B000AFC5
:103B80000346B9607A60FB7300237B61FFF73EFF59
:103B900078617A68B9687869FFF78EFF024697F90D
:103BA0000F3011461846FFF75DFF00BF1837BD46BE
:103BB00080BD80B582B000AF0346FB7197F9073036
:103BC0001846FFF731FF00BF0837BD4680BD80B5FE
:103BD00082B000AF78607868FFF7A2FF034618460E
:103BE0000837BD4680BD000080B586B000AF786064
:103BF00000237B61FFF778F938617B68002B01D1E6
:103C0000012399E07B68022283F835207B6800223B
:103C100083F834207B681B681A687B681B6822F075
:103C200001021A600FE0FFF75FF902463B69D31A01
:103C3000052B08D97B6820225A657B68032283F80C
:103C40003520032378E07B681B681B6803F00103C1
:103C5000002BE8D17B681B681B687B617A69384B55
:103C600013407B617B685A687B689B681A437B685A
:103C7000DB681A437B681B691A437B685B691A43DC
:103C80007B689B691A437B68DB691A437B681B6A04
:103C900013437A6913437B617B685B6A042B07D10A
:103CA0007B68DA6A7B681B6B13437A6913437B6119
:103CB0007B681B687A691A607B681B685B697B613B
:103CC0007B6923F007037B617B685B6A7A69134336
:103CD0007B617B685B6A042B17D17B689B6A7A697E
:103CE00013437B617B68DB6A002B0ED0786800F0A1
:103CF00009FB0346002B08D07B6840225A657B688D
:103D0000012283F83520012316E07B681B687A695D
:103D10005A61786800F0C0FA0346FB607B68DB6D8F
:103D20003F229A40FB689A607B6800225A657B6854
:103D3000012283F83520002318461837BD4680BD80
:103D40003F8010F080B586B000AFF860B9607A604F
:103D50003B600023FB75FB689B6D3B61FB6893F840
:103D60003430012B01D1022348E0FB68012283F8A3
:103D70003420FB6893F83530DBB2012B37D1FB6878
:103D8000022283F83520FB6800225A653B687A6876
:103D9000B968F86800F052FAFB68DB6D3F229A4080
:103DA0003B699A60FB681B681A68FB681B6842F0F5
:103DB00016021A60FB681B685A69FB681B6842F0B0
:103DC00080025A61FB681B6C002B07D0FB681B68E4
:103DD0001A68FB681B6842F008021A60FB681B68DF
:103DE0001A68FB681B6842F001021A6005E0FB6874
:103DF000002283F834200223FB75FB7D1846183718
:103E0000BD4680BD80B584B000AF78607B689B6D97
:103E1000FB60FFF769F8B8607B6893F83530DBB278
:103E2000022B08D07B6880225A657B68002283F8C9
:103E30003420012352E07B681B681A687B681B688A
:103E400022F016021A607B681B685A697B681B683F
:103E500022F080025A617B681B6C002B03D17B68C7
:103E60009B6C002B07D07B681B681A687B681B68FB
:103E700022F008021A607B681B681A687B681B685E
:103E800022F001021A6013E0FFF72EF80246BB6829
:103E9000D31A052B0CD97B6820225A657B68032234
:103EA00083F835207B68002283F83420032315E053
:103EB0007B681B681B6803F00103002BE4D17B685F
:103EC000DB6D3F229A40FB689A607B68012283F891
:103ED00035207B68002283F83420002318461037F1
:103EE000BD4680BD80B483B000AF78607B6893F836
:103EF0003530DBB2022B04D07B6880225A65012367
:103F00000CE07B68052283F835207B681B681A6803
:103F10007B681B6822F001021A60002318460C37E8
:103F2000BD465DF8047B704780B586B000AF786011
:103F30000023BB608E4B1B688E4AA2FB03239B0AA7
:103F40007B617B689B6D3B613B691B68FB607B68A9
:103F5000DB6D08229A40FB681340002B1AD07B6867
:103F60001B681B6803F00403002B13D07B681B68DD
:103F70001A687B681B6822F004021A607B68DB6D9C
:103F800008229A403B699A607B685B6D43F00102AE
:103F90007B685A657B68DB6D01229A40FB681340A1
:103FA000002B12D07B681B685B6903F08003002B39
:103FB0000BD07B68DB6D01229A403B699A607B687D
:103FC0005B6D43F002027B685A657B68DB6D0422FF
:103FD0009A40FB681340002B12D07B681B681B685B
:103FE00003F00203002B0BD07B68DB6D04229A40A8
:103FF0003B699A607B685B6D43F004027B685A659D
:104000007B68DB6D10229A40FB681340002B43D085
:104010007B681B681B6803F00803002B3CD07B689F
:10402000DB6D10229A403B699A607B681B681B68B5
:1040300003F48023002B18D07B681B681B6803F4F3
:104040000023002B08D17B681B6C002B24D07B68DD
:104050001B6C786898471FE07B689B6C002B1BD01B
:104060007B689B6C7868984716E07B681B681B68C8
:1040700003F48073002B07D17B681B681A687B6888
:104080001B6822F008021A607B681B6C002B03D0AF
:104090007B681B6C786898477B68DB6D20229A40B0
:1040A000FB681340002B00F08F807B681B681B6847
:1040B00003F01003002B00F087807B68DB6D20226B
:1040C0009A403B699A607B6893F83530DBB2052BE8
:1040D00036D17B681B681A687B681B6822F0160261
:1040E0001A607B681B685A697B681B6822F0800233
:1040F0005A617B681B6C002B03D17B689B6C002B87
:1041000007D07B681B681A687B681B6822F008026E
:104110001A607B68DB6D3F229A403B699A607B683E
:10412000012283F835207B68002283F834207B68E5
:104130001B6D002B7ED07B681B6D7868984779E0FB
:104140007B681B681B6803F48023002B1DD07B68F1
:104150001B681B6803F40023002B0DD17B685B6C8C
:10416000002B31D07B685B6C786898472CE000BFEF
:1041700004FA0020B5814E1B7B68DB6B002B23D03B
:104180007B68DB6B786898471EE07B681B681B6860
:1041900003F48073002B0FD17B681B681A687B685F
:1041A0001B6822F010021A607B68012283F8352018
:1041B0007B68002283F834207B68DB6B002B03D004
:1041C0007B68DB6B786898477B685B6D002B32D02F
:1041D0007B685B6D03F00103002B22D07B68052216
:1041E00083F835207B681B681A687B681B6822F09F
:1041F00001021A60BB680133BB607A699A4207D337
:104200007B681B681B6803F00103002BF2D100E000
:1042100000BF7B68012283F835207B68002283F889
:1042200034207B68DB6C002B05D07B68DB6C786806
:10423000984700E000BF1837BD4680BD80B485B008
:1042400000AFF860B9607A603B60FB681B681A6871
:10425000FB681B6822F480221A60FB681B683A68BE
:104260005A60FB689B68402B08D1FB681B687A6822
:104270009A60FB681B68BA68DA6007E0FB681B6835
:10428000BA689A60FB681B687A68DA6000BF143706
:10429000BD465DF8047B704780B485B000AF7860A0
:1042A0007B681B68DBB2103B134AA2FB03231B098C
:1042B000FB60124AFB6813441B781A467B68DA6578
:1042C000FB68032B08D97B681B681A460C4B13400C
:1042D0001A1D7B689A6506E07B681B681A46084BC6
:1042E00013407A6893657B689B6D18461437BD460A
:1042F0005DF8047B704700BFABAAAAAA40ED000896
:1043000000FCFFFF80B485B000AF78600023FB7332
:104310007B689B6ABB607B689B69002B1FD1BB6875
:10432000032B56D801A252F823F000BF3D430008EA
:104330004F4300083D430008D34300087B68DB6A15
:1043400003F08073002B46D00123FB7343E07B68AE
:10435000DB6AB3F1C07F40D10123FB733DE07B6892
:104360009B69B3F5005F21D1BB68032B37D801A24D
:1043700052F823F0854300088B430008854300086A
:104380009D4300080123FB7330E07B68DB6A03F088
:104390008073002B25D00123FB7322E07B68DB6A4E
:1043A000B3F1C07F1FD10123FB731CE0BB68022B5C
:1043B00003D9BB68032B03D018E00123FB7315E07E
:1043C0007B68DB6A03F08073002B0ED00123FB7344
:1043D0000BE000BF0AE000BF08E000BF06E000BF3E
:1043E00004E000BF02E000BF00E000BFFB7B184616
:1043F0001437BD465DF8047B704700BF80B584B0BC
:1044000000AF78607B68002B01D101236AE07B68F4
:10441000D3F88430002B06D17B682322C3F8842094
:104420007868FDF71FFA314B5B6C304A43F48043E8
:1044300053642E4B5B6C03F48043BB60BB682C4B16
:104440005B682B4A23F400035360294B5A687B684E
:104450009B68274913434B60254B5B687B681B684F
:1044600003F580531B687A68126843F0010302F574
:1044700080521360FEF738FDF86011E0FEF734FD5E
:104480000246FB68D31AB3F5FA7F09D97B68042288
:10449000C3F888207B68E022C3F88420012321E050
:1044A0007B681B6803F580531B6803F00103002B36
:1044B000E4D1786800F058F9786800F0FFF978687E
:1044C00000F055FA7B685B681A460021786800F0B6
:1044D000BDF97B680022C3F888207B681022C3F8EE
:1044E0008420002318461037BD4680BD00380240A6
:1044F0000038014080B584B000AF786039607B68D7
:104500001B681B68FB60FA68514B1340FB603B68FB
:104510001B7C002B02D14FF4000200E000223B681C
:104520005B7C002B02D14FF4800300E000231A4390
:104530003B689B681A433B68DB7F1B041A433B685C
:104540005B6913433A68927F002A02D14FF400520C
:1045500000E000221A433B681B7F1B031A433B68A1
:104560009B691A433B681B799B0213433A6892F894
:104570002020002A02D14FF4007200E000221A43EA
:104580003B68DB7BDB011A433B685B6A1A433B6891
:1045900093F828301B011343FA681343FB607B68D0
:1045A0001B68FA681A607B681B681B68FB60012047
:1045B000FEF7A6FC7B681B68FA681A607B681B68BC
:1045C0009B69FB60FA684FF641731340FB603B68E0
:1045D0009B6C1B043A6892F84C20002A01D180227F
:1045E00000E000221A433B681B6D13433A6892F8BF
:1045F0005520012A01D1082200E0002213433A6825
:1046000092F85620012A01D1042200E0002213432F
:104610003A6892F85420012A01D1022200E00022D7
:104620001343FA681343FB607B681B68FA689A615E
:104630007B681B689B69FB600120FEF761FC7B685F
:104640001B68FA689A6100BF1037BD4680BD00BF85
:104650000F8120FF80B584B000AF786039607B683F
:104660001B6803F580539B69FB60FA683D4B134060
:10467000FB603B681B7B002B02D14FF0806200E0A7
:1046800000223B685B7B5B0613433A68527F002A3B
:1046900002D14FF4801200E000221A433B689B7B5A
:1046A0005B051A433B685B691A433B681B7FDB0170
:1046B0001A433B689B7F9B011A433B681B6A1A4362
:1046C0003B6893F824309B001343FA681343FB6064
:1046D0007B681B6803F580531A46FB6893617B680F
:1046E0001B6803F580539B69FB600120FEF708FC03
:1046F0007B681B6803F580531A46FB6893613B682F
:104700001B795A063B689B681A433B689B691A43AE
:104710003B681B691A433B6893F82530DB011A4359
:104720003B689B6A9B001A433B681B6813437A688B
:10473000126843F4000302F5805213607B681B6823
:1047400003F580531B68FB600120FEF7D9FB7B68F3
:104750001B6803F580531A46FB68136000BF1037CF
:10476000BD4680BD233FDEF880B5A6B000AF7860BF
:10477000012387F84430012387F845300023FB6389
:10478000002387F85330012387F85230002387F83D
:104790005030012387F83830002387F85430002345
:1047A00087F843300023BB65002387F85C30002383
:1047B000FB67002387F880300023C7F8843000238C
:1047C00087F88A30002387F888304FF48043BB6431
:1047D0004FF40063FB64002387F8893007F134034A
:1047E00019467868FFF786FE01233B7501237B7528
:1047F000012387F825300123BB750023FB610023CB
:1048000087F82430002387F826300023BB62012379
:1048100087F82C3001233B734FF480333B614FF416
:1048200080033B624FF40053BB61012387F82D30B6
:1048300000233B630023BB6007F108031946786837
:10484000FFF708FF00BF9837BD4680BD80B487B032
:1048500000AFF860B9607A607B6805331B781B0293
:104860007A680432127813437B61BA68114B13449F
:104870001A467B6913607B6803331B781A067B68D2
:1048800002331B781B041A437B6801331B781B021D
:1048900013437A68127813437B61BA68064B13445A
:1048A0001A467B69136000BF1C37BD465DF8047B68
:1048B000704700BF408002404480024080B485B011
:1048C00000AF78600023FB603EE07B68D968FA683F
:1048D00013469B001344DB000B44BB60BB68002203
:1048E0001A60BB6800225A60BB6800229A60BB68ED
:1048F0000022DA60B9687B68FA68063243F8221051
:10490000BB681B6843F48012BB681A60FB68022B0B
:104910000CD87B68D968FB685A1C13469B0013446B
:10492000DB000B441A46BB68DA6004E07B68DB6896
:104930001A46BB68DA60BB681B6843F44002BB6878
:104940001A60FB680133FB60FB68032BBDD97B68F1
:1049500000229A627B68DA687B681B6803F58053E3
:104960001A6100BF1437BD465DF8047B704780B400
:1049700085B000AF78600023FB6046E07B68196972
:10498000FA6813469B001344DB000B44BB60BB6812
:1049900000221A60BB6800225A60BB6800229A603D
:1049A000BB680022DA60BB6800221A62BB68002282
:1049B0005A62BB684FF000421A60BB6844F2F4527E
:1049C0005A60BB685B6823F00042BB685A60B968F4
:1049D0007B68FA68123243F82210FB68022B0CD86D
:1049E0007B681969FB685A1C13469B001344DB0063
:1049F0000B441A46BB68DA6004E07B681B691A4600
:104A0000BB68DA60FB680133FB60FB68032BB5D938
:104A10007B680022DA657B6800221A667B680022C8
:104A20009A667B680022DA667B6800229A657B685A
:104A30001A697B681B6803F58053DA6000BF14377E
:104A4000BD465DF8047B704780B489B000AF7860E4
:104A500039600023FB6100237B6100233B6100235D
:104A6000BB610023FB6175E10122FB6902FA03F3DC
:104A70007B613B681B687A6913403B613A697B69DB
:104A80009A4240F064813B685B6803F00303012BAA
:104A900005D03B685B6803F00303022B30D17B68D1
:104AA0009B68BB61FB695B00032202FA03F3DB43F3
:104AB000BA691340BB613B68DA68FB695B0002FAC4
:104AC00003F3BA691343BB617B68BA699A607B6878
:104AD0005B68BB610122FB6902FA03F3DB43BA693D
:104AE0001340BB613B685B681B0903F00102FB6973
:104AF00002FA03F3BA691343BB617B68BA695A606F
:104B00003B685B6803F00303032B17D07B68DB680B
:104B1000BB61FB695B00032202FA03F3DB43BA6962
:104B20001340BB613B689A68FB695B0002FA03F3C0
:104B3000BA691343BB617B68BA69DA603B685B683A
:104B400003F00303022B23D1FB69DA087B680832E8
:104B500053F82230BB61FB6903F007039B000F226F
:104B600002FA03F3DB43BA691340BB613B681A697D
:104B7000FB6903F007039B0002FA03F3BA691343CE
:104B8000BB61FB69DA087B680832B96943F8221017
:104B90007B681B68BB61FB695B00032202FA03F3BD
:104BA000DB43BA691340BB613B685B6803F00302F7
:104BB000FB695B0002FA03F3BA691343BB617B68CC
:104BC000BA691A603B685B6803F44033002B00F05D
:104BD000BE80664B5B6C654A43F480435364634B11
:104BE0005B6C03F48043FB60FB68614AFB699B08D4
:104BF000023352F82330BB61FB6903F003039B00CF
:104C00000F2202FA03F3DB43BA691340BB617B68EE
:104C1000584A934237D07B68574A934231D07B68D9
:104C2000564A93422BD07B68554A934225D07B68E5
:104C3000544A93421FD07B68534A934219D07B68F1
:104C4000524A934213D07B68514A93420DD07B68FD
:104C5000504A934207D07B684F4A934201D10923BF
:104C600012E00A2310E008230EE007230CE00623DD
:104C70000AE0052308E0042306E0032304E00223FE
:104C800002E0012300E00023FA6902F0030292002F
:104C90009340BA691343BB613549FB699B080233F2
:104CA000BA6941F823203D4B9B68BB613B69DB43FC
:104CB000BA691340BB613B685B6803F48013002B47
:104CC00003D0BA693B691343BB61344ABB69936043
:104CD000324BDB68BB613B69DB43BA691340BB61A4
:104CE0003B685B6803F40013002B03D0BA693B698F
:104CF0001343BB61294ABB69D360284B5B68BB6126
:104D00003B69DB43BA691340BB613B685B6803F4F2
:104D10000033002B03D0BA693B691343BB611F4AC0
:104D2000BB6953601D4B1B68BB613B69DB43BA69C0
:104D30001340BB613B685B6803F48033002B03D0F6
:104D4000BA693B691343BB61144ABB691360FB69D1
:104D50000133FB61FB690F2B7FF686AE00BF00BFFE
:104D60002437BD465DF8047B704700BF0038024021
:104D700000380140000002400004024000080240E8
:104D8000000C0240001002400014024000180240D3
:104D9000001C02400020024000240240003C014070
:104DA00080B483B000AF78600B467B8013467B7085
:104DB0007B78002B03D07A887B689A6103E07B883C
:104DC0001A047B689A6100BF0C37BD465DF8047B0E
:104DD0007047000080B582B000AF0346FB80084BEF
:104DE0005A69FB881340002B06D0054AFB885361A3
:104DF000FB88184600F006F800BF0837BD4680BDA6
:104E0000003C014080B483B000AF0346FB8000BF8C
:104E10000C37BD465DF8047B7047000080B582B05A
:104E200000AF78607B68002B01D101237FE07B68B5
:104E300093F84130DBB2002B06D17B68002283F867
:104E400040207868FCF700FF7B68242283F841202B
:104E50007B681B681A687B681B6822F001021A6075
:104E60007B685A687B681B6822F070621A617B68F5
:104E70001B689A687B681B6822F400429A607B6812
:104E8000DB68012B07D17B689A687B681B6842F45A
:104E900000429A6006E07B689A687B681B6842F46F
:104EA00004429A607B68DB68022B04D17B681B6834
:104EB0004FF400625A607B681B6859687B681A6807
:104EC0001D4B0B4353607B681B68DA687B681B686B
:104ED00022F40042DA607B681A697B685B6942EA07
:104EE00003017B689B691A027B681B680A43DA60CE
:104EF0007B68D9697B681A6A7B681B680A431A60F9
:104F00007B681B681A687B681B6842F001021A60A4
:104F10007B6800225A647B68202283F841207B68EA
:104F200000221A637B68002283F84220002318467F
:104F30000837BD4680BD00BF0080000280B588B044
:104F400002AFF860084611461A4603467B810B46BD
:104F50003B811346FB80FB6893F84130DBB2202B8A
:104F600040F0F9803B6A002B02D0BB8C002B05D1AE
:104F7000FB684FF400725A640123EDE0FB6893F87C
:104F80004030012B01D10223E6E0FB68012283F8C7
:104F90004020FDF7A9FF78617B6900931923012266
:104FA0004FF40041F86800F0C3FA0346002B01D02B
:104FB0000123D1E0FB68212283F84120FB684022D5
:104FC00083F84220FB6800225A64FB683A6A5A62FE
:104FD000FB68BA8C5A85FB6800225A63F8883A89C4
:104FE00079897B690193BB6A00930346F86800F0F6
:104FF000D3F90346002B05D0FB68002283F840203C
:105000000123A9E0FB685B8D9BB2FF2B0ED9FB68E7
:10501000FF221A85FB681B8DDAB279890023009381
:105020004FF08073F86800F01FFC0FE0FB685B8DA9
:105030009AB2FB681A85FB681B8DDAB27989002366
:1050400000934FF00073F86800F00EFC7A69B96ABB
:10505000F86800F0ADFA0346002B01D001237BE095
:10506000FB685B6A1A78FB681B689A62FB685B6A7C
:105070005A1CFB685A62FB685B8D9BB2013B9AB27B
:10508000FB685A85FB681B8D013B9AB2FB681A8549
:10509000FB685B8D9BB2002B34D0FB681B8D002B13
:1050A00030D17B690093BB6A00228021F86800F050
:1050B0003FFA0346002B01D001234DE0FB685B8DD6
:1050C0009BB2FF2B0ED9FB68FF221A85FB681B8D54
:1050D000DAB27989002300934FF08073F86800F00A
:1050E000C3FB0FE0FB685B8D9AB2FB681A85FB6817
:1050F0001B8DDAB27989002300934FF00073F868B2
:1051000000F0B2FBFB685B8D9BB2002B9ED17A69ED
:10511000B96AF86800F08CFA0346002B01D001232D
:105120001AE0FB681B682022DA61FB681B6859687B
:10513000FB681A680A4B0B405360FB68202283F817
:105140004120FB68002283F84220FB68002283F89C
:105150004020002300E0022318461837BD4680BDDA
:1051600000E800FE80B588B002AFF860084611463E
:105170001A4603467B810B463B811346FB80FB6846
:1051800093F84130DBB2202B40F0FD803B6A002BCE
:1051900002D0BB8C002B05D1FB684FF400725A641F
:1051A0000123F1E0FB6893F84030012B01D1022389
:1051B000EAE0FB68012283F84020FDF795FE786164
:1051C0007B690093192301224FF40041F86800F035
:1051D000AFF90346002B01D00123D5E0FB68222262
:1051E00083F84120FB68402283F84220FB680022BC
:1051F0005A64FB683A6A5A62FB68BA8C5A85FB6843
:1052000000225A63F8883A8979897B690193BB6ADD
:1052100000930346F86800F013F90346002B05D00D
:10522000FB68002283F840200123ADE0FB685B8D22
:105230009BB2FF2B0ED9FB68FF221A85FB681B8DE2
:10524000DAB27989524B00934FF08073F86800F01E
:105250000BFB0FE0FB685B8D9AB2FB681A85FB685D
:105260001B8DDAB279894A4B00934FF00073F868CE
:1052700000F0FAFA7B690093BB6A00220421F86807
:1052800000F056F90346002B01D001237CE0FB68B7
:105290001B685A6AFB685B6AD2B21A70FB685B6A69
:1052A0005A1CFB685A62FB681B8D013B9AB2FB6873
:1052B0001A85FB685B8D9BB2013B9AB2FB685A85ED
:1052C000FB685B8D9BB2002B34D0FB681B8D002BE1
:1052D00030D17B690093BB6A00228021F86800F01E
:1052E00027F90346002B01D001234DE0FB685B8DBD
:1052F0009BB2FF2B0ED9FB68FF221A85FB681B8D22
:10530000DAB27989002300934FF08073F86800F0D7
:10531000ABFA0FE0FB685B8D9AB2FB681A85FB68FD
:105320001B8DDAB27989002300934FF00073F8687F
:1053300000F09AFAFB685B8D9BB2002B9AD17A69D8
:10534000B96AF86800F074F90346002B01D0012314
:105350001AE0FB681B682022DA61FB681B68596849
:10536000FB681A680B4B0B405360FB68202283F8E4
:105370004120FB68002283F84220FB68002283F86A
:105380004020002300E0022318461837BD4680BDA8
:105390000024008000E800FE80B586B002AFF8600F
:1053A000084611461A4603467B810B463B8113464D
:1053B000FB80FB88DAB27989204B00934FF0807331
:1053C000F86800F051FAFA69B969F86800F0F0F885
:1053D0000346002B01D001232CE0FB88012B05D1D3
:1053E0003B89DAB2FB681B689A6215E03B891B0AAD
:1053F0009BB2DAB2FB681B689A62FA69B969F8680D
:1054000000F0D6F80346002B01D0012312E03B89BF
:10541000DAB2FB681B689A62FB690093BB690022E1
:105420008021F86800F084F80346002B01D00123A6
:1054300000E0002318461037BD4680BD00200080E4
:1054400080B586B002AFF860084611461A4603469A
:105450007B810B463B811346FB80FB88DAB279895E
:10546000204B00930023F86800F0FEF9FA69B9694F
:10547000F86800F09DF80346002B01D001232CE0D2
:10548000FB88012B05D13B89DAB2FB681B689A6265
:1054900015E03B891B0A9BB2DAB2FB681B689A6273
:1054A000FA69B969F86800F083F80346002B01D067
:1054B000012312E03B89DAB2FB681B689A62FB6940
:1054C0000093BB6900224021F86800F031F80346E0
:1054D000002B01D0012300E0002318461037BD4601
:1054E00080BD00BF0020008080B483B000AF786032
:1054F0007B681B689B6903F00203022B03D17B6866
:105500001B6800229A627B681B689B6903F0010399
:10551000012B07D07B681B689A697B681B6842F087
:1055200001029A6100BF0C37BD465DF8047B7047ED
:1055300080B584B000AFF860B9603B601346FB7182
:1055400022E03B68B3F1FF3F1ED0FDF7CDFC0246E1
:10555000BB69D31A3A689A4202D33B68002B13D135
:10556000FB685B6C43F02002FB685A64FB682022F6
:1055700083F84120FB68002283F84220FB68002268
:1055800083F8402001230FE0FB681B689A69BB6821
:105590001340BA689A420CBF01230023DBB21A46BB
:1055A000FB799A42CDD0002318461037BD4680BD06
:1055B00080B584B000AFF860B9607A602CE07A689A
:1055C000B968F86800F070F80346002B01D0012399
:1055D0002AE0BB68B3F1FF3F1ED0FDF785FC024611
:1055E0007B68D31ABA689A4202D3BB68002B13D1E6
:1055F000FB685B6C43F02002FB685A64FB68202266
:1056000083F84120FB68002283F84220FB680022D7
:1056100083F84020012307E0FB681B689B6903F0C7
:105620000203022BCBD1002318461037BD4680BDA4
:1056300080B584B000AFF860B9607A6028E07A681D
:10564000B968F86800F030F80346002B01D0012358
:1056500026E0FDF749FC02467B68D31ABA689A42F5
:1056600002D3BB68002B13D1FB685B6C43F02002B4
:10567000FB685A64FB68202283F84120FB68002203
:1056800083F84220FB68002283F84020012307E0D2
:10569000FB681B689B6903F02003202BCFD10023FC
:1056A00018461037BD4680BD80B58AB000AFF8609F
:1056B000B9607A60002387F82730FB681B689B6914
:1056C000BB6100233B627B68FB61BB6903F0100395
:1056D000002B68D0FB681B681022DA6149E0BB68C8
:1056E000B3F1FF3F45D0FDF7FFFB0246FB69D31A3C
:1056F000BA689A4202D3BB68002B3AD1FB681B6898
:105700005B6803F480437B61FB6893F84230FB7471
:10571000FB681B689B6903F40043B3F5004F21D17C
:105720007B69B3F5804F1DD0FB7C202B1AD0FB6822
:105730001B685A68FB681B6842F480425A60FDF798
:10574000D3FBF8610EE0FDF7CFFB0246FB69D31AED
:10575000192B07D93B6A43F020033B62012387F8EA
:10576000273006E0FB681B689B6903F02003202BB1
:10577000E9D1FB681B689B6903F02003202B03D051
:1057800097F82730002BAAD097F82730002B03D1A9
:10579000FB681B682022DA613B6A43F004033B622A
:1057A000012387F82730FB681B689B69BB61BB69D5
:1057B00003F48073002B0BD03B6A43F001033B6280
:1057C000FB681B684FF48072DA61012387F8273089
:1057D000BB6903F48063002B0BD03B6A43F00803E2
:1057E0003B62FB681B684FF48062DA61012387F833
:1057F0002730BB6903F40073002B0BD03B6A43F0E6
:1058000002033B62FB681B684FF40072DA610123FC
:1058100087F8273097F82730002B1CD0F868FFF75F
:1058200063FEFB681B685968FB681A680D4B0B40E8
:105830005360FB685A6C3B6A1A43FB685A64FB6806
:10584000202283F84120FB68002283F84220FB6875
:10585000002283F8402097F8273018462837BD46A5
:1058600080BD00BF00E800FE80B487B000AFF860E4
:105870007B600B467B8113467B727B89C3F30902F5
:105880007B7A1B0403F47F031A437B681A433B6A49
:10589000134323F000437B61FB681B685A683B6A33
:1058A0005B0D03F48061084B0B43DB4302EA030109
:1058B000FB681B687A690A435A6000BF1C37BD4603
:1058C0005DF8047B704700BFFF63FF0380B483B0C3
:1058D00000AF786039607B6893F84130DBB2202BF1
:1058E00038D17B6893F84030012B01D1022332E09C
:1058F0007B68012283F840207B68242283F84120C2
:105900007B681B681A687B681B6822F001021A60BA
:105910007B681B681A687B681B6822F480521A60D7
:105920007B681B6819687B681B683A680A431A60C1
:105930007B681B681A687B681B6842F001021A606A
:105940007B68202283F841207B68002283F8402076
:10595000002300E0022318460C37BD465DF8047BA7
:10596000704780B485B000AF786039607B6893F889
:105970004130DBB2202B39D17B6893F84030012BCA
:1059800001D1022333E07B68012283F840207B6849
:10599000242283F841207B681B681A687B681B6897
:1059A00022F001021A607B681B681B68FB60FB68C1
:1059B00023F47063FB603B681B02FA681343FB60CF
:1059C0007B681B68FA681A607B681B681A687B68CA
:1059D0001B6842F001021A607B68202283F8412094
:1059E0007B68002283F84020002300E00223184651
:1059F0001437BD465DF8047B7047000080B400AFEB
:105A0000054B1B68044A43F48073136000BFBD4616
:105A10005DF8047B704700BF0070004080B582B025
:105A200000AF00237B60234B1B6C224A43F0805362
:105A30001364204B1B6C03F080533B603B681E4B90
:105A40001B681D4A43F480331360FDF74DFA7860FC
:105A500009E0FDF749FA02467B68D31AB3F57A7F6D
:105A600001D9032322E0144B5B6803F48033B3F5C0
:105A7000803FEED1104B1B680F4A43F40033136094
:105A8000FDF732FA786009E0FDF72EFA02467B68EE
:105A9000D31AB3F57A7F01D9032307E0064B5B687D
:105AA00003F40033B3F5003FEED100231846083766
:105AB000BD4680BD003802400070004080B586B011
:105AC00000AF78600023FB757B68002B01D10123B8
:105AD00091E27B681B6803F00103002B00F08780D4
